{
  "_format": "hh-sol-artifact-1",
  "contractName": "ExchangeFacet",
  "sourceName": "contracts/facets/ExchangeFacet.sol",
  "abi": [
    {
      "anonymous": false,
      "inputs": [
        {
          "indexed": true,
          "internalType": "address",
          "name": "owner",
          "type": "address"
        },
        {
          "indexed": true,
          "internalType": "address",
          "name": "approved",
          "type": "address"
        },
        {
          "indexed": true,
          "internalType": "uint256",
          "name": "tokenId",
          "type": "uint256"
        }
      ],
      "name": "Approval",
      "type": "event"
    },
    {
      "anonymous": false,
      "inputs": [
        {
          "indexed": true,
          "internalType": "address",
          "name": "owner",
          "type": "address"
        },
        {
          "indexed": true,
          "internalType": "address",
          "name": "operator",
          "type": "address"
        },
        {
          "indexed": false,
          "internalType": "bool",
          "name": "approved",
          "type": "bool"
        }
      ],
      "name": "ApprovalForAll",
      "type": "event"
    },
    {
      "anonymous": false,
      "inputs": [
        {
          "indexed": true,
          "internalType": "address",
          "name": "_from",
          "type": "address"
        },
        {
          "indexed": true,
          "internalType": "uint256",
          "name": "_playerId",
          "type": "uint256"
        },
        {
          "indexed": false,
          "internalType": "uint256",
          "name": "_price",
          "type": "uint256"
        }
      ],
      "name": "CreateEquipmentListing",
      "type": "event"
    },
    {
      "anonymous": false,
      "inputs": [
        {
          "indexed": true,
          "internalType": "address",
          "name": "_from",
          "type": "address"
        },
        {
          "indexed": true,
          "internalType": "uint256",
          "name": "_playerId",
          "type": "uint256"
        },
        {
          "indexed": false,
          "internalType": "uint256",
          "name": "_price",
          "type": "uint256"
        }
      ],
      "name": "CreatePlayerListing",
      "type": "event"
    },
    {
      "anonymous": false,
      "inputs": [
        {
          "indexed": true,
          "internalType": "address",
          "name": "_from",
          "type": "address"
        },
        {
          "indexed": true,
          "internalType": "uint256",
          "name": "_playerId",
          "type": "uint256"
        }
      ],
      "name": "DelistPlayer",
      "type": "event"
    },
    {
      "anonymous": false,
      "inputs": [
        {
          "indexed": true,
          "internalType": "address",
          "name": "_to",
          "type": "address"
        },
        {
          "indexed": false,
          "internalType": "uint256",
          "name": "_id",
          "type": "uint256"
        }
      ],
      "name": "PurchaseEquipmentLisitng",
      "type": "event"
    },
    {
      "anonymous": false,
      "inputs": [
        {
          "indexed": true,
          "internalType": "address",
          "name": "_to",
          "type": "address"
        },
        {
          "indexed": false,
          "internalType": "uint256",
          "name": "_id",
          "type": "uint256"
        }
      ],
      "name": "PurchasePlayerListing",
      "type": "event"
    },
    {
      "anonymous": false,
      "inputs": [
        {
          "indexed": true,
          "internalType": "address",
          "name": "from",
          "type": "address"
        },
        {
          "indexed": true,
          "internalType": "address",
          "name": "to",
          "type": "address"
        },
        {
          "indexed": true,
          "internalType": "uint256",
          "name": "tokenId",
          "type": "uint256"
        }
      ],
      "name": "Transfer",
      "type": "event"
    },
    {
      "inputs": [
        {
          "internalType": "address",
          "name": "_facetAddress",
          "type": "address"
        },
        {
          "internalType": "uint256",
          "name": "_amount",
          "type": "uint256"
        },
        {
          "internalType": "address payable",
          "name": "_to",
          "type": "address"
        }
      ],
      "name": "claimGoldfromERC20",
      "outputs": [],
      "stateMutability": "nonpayable",
      "type": "function"
    },
    {
      "inputs": [
        {
          "internalType": "uint256",
          "name": "_playerId",
          "type": "uint256"
        },
        {
          "internalType": "uint256",
          "name": "_price",
          "type": "uint256"
        }
      ],
      "name": "createPlayerListing",
      "outputs": [],
      "stateMutability": "nonpayable",
      "type": "function"
    },
    {
      "inputs": [
        {
          "internalType": "uint256",
          "name": "_playerId",
          "type": "uint256"
        }
      ],
      "name": "deListPlayer",
      "outputs": [],
      "stateMutability": "nonpayable",
      "type": "function"
    },
    {
      "inputs": [],
      "name": "getAllPlayerListings",
      "outputs": [
        {
          "internalType": "uint256[]",
          "name": "",
          "type": "uint256[]"
        }
      ],
      "stateMutability": "view",
      "type": "function"
    },
    {
      "inputs": [
        {
          "internalType": "uint256",
          "name": "_playerId",
          "type": "uint256"
        }
      ],
      "name": "getPlayerListing",
      "outputs": [
        {
          "components": [
            {
              "internalType": "address payable",
              "name": "seller",
              "type": "address"
            },
            {
              "internalType": "uint256",
              "name": "playerId",
              "type": "uint256"
            },
            {
              "internalType": "uint256",
              "name": "price",
              "type": "uint256"
            },
            {
              "internalType": "uint256",
              "name": "pointer",
              "type": "uint256"
            },
            {
              "internalType": "uint256",
              "name": "addressPointer",
              "type": "uint256"
            }
          ],
          "internalType": "struct PlayerListing",
          "name": "",
          "type": "tuple"
        }
      ],
      "stateMutability": "view",
      "type": "function"
    },
    {
      "inputs": [
        {
          "internalType": "address",
          "name": "_address",
          "type": "address"
        }
      ],
      "name": "getPlayerListingsByAddress",
      "outputs": [
        {
          "internalType": "uint256[]",
          "name": "",
          "type": "uint256[]"
        }
      ],
      "stateMutability": "view",
      "type": "function"
    },
    {
      "inputs": [
        {
          "internalType": "address",
          "name": "_facetAddress",
          "type": "address"
        },
        {
          "internalType": "uint256",
          "name": "_amount",
          "type": "uint256"
        },
        {
          "internalType": "address payable",
          "name": "_to",
          "type": "address"
        }
      ],
      "name": "mintGoldERC20",
      "outputs": [],
      "stateMutability": "nonpayable",
      "type": "function"
    },
    {
      "inputs": [
        {
          "internalType": "uint256",
          "name": "_playerId",
          "type": "uint256"
        }
      ],
      "name": "owners",
      "outputs": [
        {
          "internalType": "address",
          "name": "",
          "type": "address"
        }
      ],
      "stateMutability": "view",
      "type": "function"
    },
    {
      "inputs": [
        {
          "internalType": "uint256",
          "name": "_playerId",
          "type": "uint256"
        }
      ],
      "name": "purchasePlayer",
      "outputs": [],
      "stateMutability": "payable",
      "type": "function"
    },
    {
      "inputs": [
        {
          "internalType": "address",
          "name": "_to",
          "type": "address"
        },
        {
          "internalType": "uint256",
          "name": "_playerId",
          "type": "uint256"
        }
      ],
      "name": "transferPlayer",
      "outputs": [],
      "stateMutability": "nonpayable",
      "type": "function"
    }
  ],
  "bytecode": "0x608060405234801561001057600080fd5b506001600081905550613237806100286000396000f3fe6080604052600436106100915760003560e01c806352d2872a1161005957806352d2872a146101805780635c41f39c146101a957806374c57c30146101d257806374e55f32146101fb578063a61896e61461023857610091565b8063025e7c2714610096578063075881d6146100d3578063275cca88146100ef5780634ae8e5771461011857806352605d4114610155575b600080fd5b3480156100a257600080fd5b506100bd60048036038101906100b89190612408565b610261565b6040516100ca9190612476565b60405180910390f35b6100ed60048036038101906100e89190612408565b610273565b005b3480156100fb57600080fd5b50610116600480360381019061011191906124fb565b610556565b005b34801561012457600080fd5b5061013f600480360381019061013a919061254e565b610576565b60405161014c9190612639565b60405180910390f35b34801561016157600080fd5b5061016a610588565b6040516101779190612639565b60405180910390f35b34801561018c57600080fd5b506101a760048036038101906101a2919061265b565b610597565b005b3480156101b557600080fd5b506101d060048036038101906101cb91906124fb565b610604565b005b3480156101de57600080fd5b506101f960048036038101906101f4919061269b565b610624565b005b34801561020757600080fd5b50610222600480360381019061021d9190612408565b610643565b60405161022f9190612752565b60405180910390f35b34801561024457600080fd5b5061025f600480360381019061025a9190612408565b61065b565b005b600061026c826106ab565b9050919050565b61027b6106f6565b60007308d8e680a2d295af8cbcd8b8e07f900275bc6b8d9050600061029f83610745565b9050806040015134146102e7576040517f08c379a00000000000000000000000000000000000000000000000000000000081526004016102de906127ca565b60405180910390fd5b6102f0836107ff565b6102fe816000015184610c2c565b61033d576040517f08c379a00000000000000000000000000000000000000000000000000000000081526004016103349061285c565b60405180910390fd5b61034c81600001513385610d7e565b6000606480836040015161036091906128ab565b6069846040015161037191906128ab565b61037b91906128ed565b6103859190612950565b9050600081836040015161039991906128ed565b90506000836000015173ffffffffffffffffffffffffffffffffffffffff16826040516103c5906129b2565b60006040518083038185875af1925050503d8060008114610402576040519150601f19603f3d011682016040523d82523d6000602084013e610407565b606091505b505090508061044b576040517f08c379a000000000000000000000000000000000000000000000000000000000815260040161044290612a39565b60405180910390fd5b60008573ffffffffffffffffffffffffffffffffffffffff1684604051610471906129b2565b60006040518083038185875af1925050503d80600081146104ae576040519150601f19603f3d011682016040523d82523d6000602084013e6104b3565b606091505b50509050806104f7576040517f08c379a00000000000000000000000000000000000000000000000000000000081526004016104ee90612acb565b60405180910390fd5b3373ffffffffffffffffffffffffffffffffffffffff167f225283508a8ce3b05daa68183df02a29ea48aeaa415ac67113c50dea09c1b6978860405161053d9190612afa565b60405180910390a25050505050506105536110a6565b50565b61055e6106f6565b6105698383836110b0565b6105716110a6565b505050565b6060610581826112ea565b9050919050565b6060610592611390565b905090565b61059f6106f6565b6105a982826113f7565b813373ffffffffffffffffffffffffffffffffffffffff167fbf8edb16a3925949bda35d6c527b8f53ff37a989912808fac0a134935dcf5051836040516105f09190612afa565b60405180910390a36106006110a6565b5050565b61060c6106f6565b6106178383836116d3565b61061f6110a6565b505050565b61062c6106f6565b610637338383610d7e565b61063f6110a6565b5050565b61064b61231e565b61065482610745565b9050919050565b610664816118a8565b803373ffffffffffffffffffffffffffffffffffffffff167f1d7264ed0fc0f609bb4cb82e2664c9cd699ae2dc128e0228df77e1abec16d25a60405160405180910390a350565b6000806106b6611ca0565b905080600201600084815260200190815260200160002060009054906101000a900473ffffffffffffffffffffffffffffffffffffffff16915050919050565b60026000540361073b576040517f08c379a000000000000000000000000000000000000000000000000000000000815260040161073290612b61565b60405180910390fd5b6002600081905550565b61074d61231e565b6000610757611ccd565b90508060000160008481526020019081526020016000206040518060a00160405290816000820160009054906101000a900473ffffffffffffffffffffffffffffffffffffffff1673ffffffffffffffffffffffffffffffffffffffff1673ffffffffffffffffffffffffffffffffffffffff168152602001600182015481526020016002820154815260200160038201548152602001600482015481525050915050919050565b6000610809611ca0565b90506000610815611ccd565b9050600081600001600085815260200190815260200160002060000160009054906101000a900473ffffffffffffffffffffffffffffffffffffffff16905081600001600085815260200190815260200160002060000160009054906101000a900473ffffffffffffffffffffffffffffffffffffffff1673ffffffffffffffffffffffffffffffffffffffff1683600201600086815260200190815260200160002060009054906101000a900473ffffffffffffffffffffffffffffffffffffffff1673ffffffffffffffffffffffffffffffffffffffff161461092f576040517f08c379a000000000000000000000000000000000000000000000000000000000815260040161092690612bcd565b60405180910390fd5b60008260000160008681526020019081526020016000206003015490506000836002016001856002018054905061096691906128ed565b8154811061097757610976612bed565b5b906000526020600020015490508084600201838154811061099b5761099a612bed565b5b90600052602060002001819055508184600001600083815260200190815260200160002060030181905550836002018054806109da576109d9612c1c565b5b60019003818190600052602060002001600090559055600084600001600088815260200190815260200160002060040154905060008560010160008673ffffffffffffffffffffffffffffffffffffffff1673ffffffffffffffffffffffffffffffffffffffff16815260200190815260200160002060018760010160008873ffffffffffffffffffffffffffffffffffffffff1673ffffffffffffffffffffffffffffffffffffffff16815260200190815260200160002080549050610aa191906128ed565b81548110610ab257610ab1612bed565b5b90600052602060002001549050808660010160008773ffffffffffffffffffffffffffffffffffffffff1673ffffffffffffffffffffffffffffffffffffffff1681526020019081526020016000208381548110610b1357610b12612bed565b5b906000526020600020018190555081866000016000838152602001908152602001600020600401819055508560010160008673ffffffffffffffffffffffffffffffffffffffff1673ffffffffffffffffffffffffffffffffffffffff168152602001908152602001600020805480610b8f57610b8e612c1c565b5b6001900381819060005260206000200160009055905560008760030160008a815260200190815260200160002060020181905550856000016000898152602001908152602001600020600080820160006101000a81549073ffffffffffffffffffffffffffffffffffffffff0219169055600182016000905560028201600090556003820160009055600482016000905550505050505050505050565b600080610c3883611cfa565b90508073ffffffffffffffffffffffffffffffffffffffff168473ffffffffffffffffffffffffffffffffffffffff161480610d035750610c77611d40565b60080160008273ffffffffffffffffffffffffffffffffffffffff1673ffffffffffffffffffffffffffffffffffffffff16815260200190815260200160002060008573ffffffffffffffffffffffffffffffffffffffff1673ffffffffffffffffffffffffffffffffffffffff16815260200190815260200160002060009054906101000a900460ff165b80610d7557508373ffffffffffffffffffffffffffffffffffffffff16610d28611d40565b600b01600085815260200190815260200160002060009054906101000a900473ffffffffffffffffffffffffffffffffffffffff1673ffffffffffffffffffffffffffffffffffffffff16145b91505092915050565b8273ffffffffffffffffffffffffffffffffffffffff16610d9e82611cfa565b73ffffffffffffffffffffffffffffffffffffffff1614610df4576040517f08c379a0000000000000000000000000000000000000000000000000000000008152600401610deb90612cbd565b60405180910390fd5b600073ffffffffffffffffffffffffffffffffffffffff168273ffffffffffffffffffffffffffffffffffffffff1603610e63576040517f08c379a0000000000000000000000000000000000000000000000000000000008152600401610e5a90612d4f565b60405180910390fd5b610e708383836001611d6d565b8273ffffffffffffffffffffffffffffffffffffffff16610e9082611cfa565b73ffffffffffffffffffffffffffffffffffffffff1614610ee6576040517f08c379a0000000000000000000000000000000000000000000000000000000008152600401610edd90612cbd565b60405180910390fd5b610eee611d40565b600b01600082815260200190815260200160002060006101000a81549073ffffffffffffffffffffffffffffffffffffffff02191690556001610f2f611d40565b600a0160008573ffffffffffffffffffffffffffffffffffffffff1673ffffffffffffffffffffffffffffffffffffffff168152602001908152602001600020600082825403925050819055506001610f86611d40565b600a0160008473ffffffffffffffffffffffffffffffffffffffff1673ffffffffffffffffffffffffffffffffffffffff1681526020019081526020016000206000828254019250508190555081610fdc611d40565b600901600083815260200190815260200160002060006101000a81548173ffffffffffffffffffffffffffffffffffffffff021916908373ffffffffffffffffffffffffffffffffffffffff160217905550611039838383611d73565b808273ffffffffffffffffffffffffffffffffffffffff168473ffffffffffffffffffffffffffffffffffffffff167fddf252ad1be2c89b69c2b068fc378daa952ba7f163c4a11628f55a4df523b3ef60405160405180910390a46110a183838360016122be565b505050565b6001600081905550565b60006110ba6122c4565b90508060010160003373ffffffffffffffffffffffffffffffffffffffff1673ffffffffffffffffffffffffffffffffffffffff16815260200190815260200160002054831115611140576040517f08c379a000000000000000000000000000000000000000000000000000000000815260040161113790612de1565b60405180910390fd5b60007308d8e680a2d295af8cbcd8b8e07f900275bc6b8d9050600085905060008511156112e2576000670de0b6b3a76400008661117d91906128ab565b90506000606460028361119091906128ab565b61119a9190612950565b9050600081836111aa91906128ed565b90508373ffffffffffffffffffffffffffffffffffffffff166340c10f1988836040518363ffffffff1660e01b81526004016111e7929190612e60565b600060405180830381600087803b15801561120157600080fd5b505af1158015611215573d6000803e3d6000fd5b505050508373ffffffffffffffffffffffffffffffffffffffff166340c10f1986846040518363ffffffff1660e01b8152600401611254929190612e89565b600060405180830381600087803b15801561126e57600080fd5b505af1158015611282573d6000803e3d6000fd5b50505050878660010160003373ffffffffffffffffffffffffffffffffffffffff1673ffffffffffffffffffffffffffffffffffffffff16815260200190815260200160002060008282546112d791906128ed565b925050819055505050505b505050505050565b606060006112f6611ccd565b90508060010160008473ffffffffffffffffffffffffffffffffffffffff1673ffffffffffffffffffffffffffffffffffffffff16815260200190815260200160002080548060200260200160405190810160405280929190818152602001828054801561138357602002820191906000526020600020905b81548152602001906001019080831161136f575b5050505050915050919050565b6060600061139c611ccd565b9050806002018054806020026020016040519081016040528092919081815260200182805480156113ec57602002820191906000526020600020905b8154815260200190600101908083116113d8575b505050505091505090565b6000611401611ca0565b9050600061140d611ccd565b90503373ffffffffffffffffffffffffffffffffffffffff1682600201600086815260200190815260200160002060009054906101000a900473ffffffffffffffffffffffffffffffffffffffff1673ffffffffffffffffffffffffffffffffffffffff16146114b2576040517f08c379a00000000000000000000000000000000000000000000000000000000081526004016114a990612efe565b60405180910390fd5b6000826003016000868152602001908152602001600020600201541461150d576040517f08c379a000000000000000000000000000000000000000000000000000000000815260040161150490612f6a565b60405180910390fd5b6063826003016000868152602001908152602001600020600201819055506040518060a001604052803373ffffffffffffffffffffffffffffffffffffffff168152602001858152602001848152602001826002018054905081526020018260010160003373ffffffffffffffffffffffffffffffffffffffff1673ffffffffffffffffffffffffffffffffffffffff1681526020019081526020016000208054905081525081600001600086815260200190815260200160002060008201518160000160006101000a81548173ffffffffffffffffffffffffffffffffffffffff021916908373ffffffffffffffffffffffffffffffffffffffff16021790555060208201518160010155604082015181600201556060820151816003015560808201518160040155905050806002018490806001815401808255809150506001900390600052602060002001600090919091909150558060010160003373ffffffffffffffffffffffffffffffffffffffff1673ffffffffffffffffffffffffffffffffffffffff16815260200190815260200160002084908060018154018082558091505060019003906000526020600020016000909190919091505550505050565b60006116dd6122c4565b9050600084905060008173ffffffffffffffffffffffffffffffffffffffff166370a08231336040518263ffffffff1660e01b815260040161171f9190612476565b602060405180830381865afa15801561173c573d6000803e3d6000fd5b505050506040513d601f19601f820116820180604052508101906117609190612f9f565b905084670de0b6b3a7640000826117779190612950565b10156117b8576040517f08c379a00000000000000000000000000000000000000000000000000000000081526004016117af9061303e565b60405180910390fd5b60008511156118a0576000670de0b6b3a7640000866117d791906128ab565b90508273ffffffffffffffffffffffffffffffffffffffff16639dc29fac33836040518363ffffffff1660e01b8152600401611814929190612e89565b600060405180830381600087803b15801561182e57600080fd5b505af1158015611842573d6000803e3d6000fd5b50505050858460010160008773ffffffffffffffffffffffffffffffffffffffff1673ffffffffffffffffffffffffffffffffffffffff1681526020019081526020016000206000828254611897919061305e565b92505081905550505b505050505050565b60006118b2611ca0565b905060006118be611ccd565b90503373ffffffffffffffffffffffffffffffffffffffff1681600001600085815260200190815260200160002060000160009054906101000a900473ffffffffffffffffffffffffffffffffffffffff1673ffffffffffffffffffffffffffffffffffffffff1614611966576040517f08c379a000000000000000000000000000000000000000000000000000000000815260040161195d90613104565b60405180910390fd5b600081600001600085815260200190815260200160002060000160009054906101000a900473ffffffffffffffffffffffffffffffffffffffff1690506000826000016000868152602001908152602001600020600301549050600083600201600185600201805490506119da91906128ed565b815481106119eb576119ea612bed565b5b9060005260206000200154905080846002018381548110611a0f57611a0e612bed565b5b9060005260206000200181905550818460000160008381526020019081526020016000206003018190555083600201805480611a4e57611a4d612c1c565b5b60019003818190600052602060002001600090559055600084600001600088815260200190815260200160002060040154905060008560010160008673ffffffffffffffffffffffffffffffffffffffff1673ffffffffffffffffffffffffffffffffffffffff16815260200190815260200160002060018760010160008873ffffffffffffffffffffffffffffffffffffffff1673ffffffffffffffffffffffffffffffffffffffff16815260200190815260200160002080549050611b1591906128ed565b81548110611b2657611b25612bed565b5b90600052602060002001549050808660010160008773ffffffffffffffffffffffffffffffffffffffff1673ffffffffffffffffffffffffffffffffffffffff1681526020019081526020016000208381548110611b8757611b86612bed565b5b906000526020600020018190555081866000016000838152602001908152602001600020600401819055508560010160008673ffffffffffffffffffffffffffffffffffffffff1673ffffffffffffffffffffffffffffffffffffffff168152602001908152602001600020805480611c0357611c02612c1c565b5b6001900381819060005260206000200160009055905560008760030160008a815260200190815260200160002060020181905550856000016000898152602001908152602001600020600080820160006101000a81549073ffffffffffffffffffffffffffffffffffffffff0219169055600182016000905560028201600090556003820160009055600482016000905550505050505050505050565b6000807f3cab9a070a0c61cd0ae9d9e9e2c0781e5ca8691bec4087e5a4701d5ac018dd4e90508091505090565b6000807f0e933a40bc736a597dbcd3653baab40cf09a5c2453d7c0d87eeb7ea00af356fb90508091505090565b6000611d04611d40565b600901600083815260200190815260200160002060009054906101000a900473ffffffffffffffffffffffffffffffffffffffff169050919050565b6000807f2569078dfb4b0305704d3008e7403993ae9601b85f7ae5e742de3de8f8011c4090508091505090565b50505050565b6000611d7d6122f1565b90508373ffffffffffffffffffffffffffffffffffffffff1681600201600084815260200190815260200160002060009054906101000a900473ffffffffffffffffffffffffffffffffffffffff1673ffffffffffffffffffffffffffffffffffffffff1614611dec57600080fd5b600073ffffffffffffffffffffffffffffffffffffffff168373ffffffffffffffffffffffffffffffffffffffff1603611e5b576040517f08c379a0000000000000000000000000000000000000000000000000000000008152600401611e5290613170565b60405180910390fd5b8281600201600084815260200190815260200160002060006101000a81548173ffffffffffffffffffffffffffffffffffffffff021916908373ffffffffffffffffffffffffffffffffffffffff16021790555060008160070160008673ffffffffffffffffffffffffffffffffffffffff1673ffffffffffffffffffffffffffffffffffffffff16815260200190815260200160002080549050905060005b818110156121a057838360070160008873ffffffffffffffffffffffffffffffffffffffff1673ffffffffffffffffffffffffffffffffffffffff1681526020019081526020016000208281548110611f5757611f56612bed565b5b90600052602060002001540361218d5760018360070160008873ffffffffffffffffffffffffffffffffffffffff1673ffffffffffffffffffffffffffffffffffffffff1681526020019081526020016000208054905003612011576060808460070160008973ffffffffffffffffffffffffffffffffffffffff1673ffffffffffffffffffffffffffffffffffffffff168152602001908152602001600020908051906020019061200a929190612363565b5050612188565b8260070160008773ffffffffffffffffffffffffffffffffffffffff1673ffffffffffffffffffffffffffffffffffffffff16815260200190815260200160002060018460070160008973ffffffffffffffffffffffffffffffffffffffff1673ffffffffffffffffffffffffffffffffffffffff168152602001908152602001600020805490506120a391906128ed565b815481106120b4576120b3612bed565b5b90600052602060002001548360070160008873ffffffffffffffffffffffffffffffffffffffff1673ffffffffffffffffffffffffffffffffffffffff168152602001908152602001600020828154811061211257612111612bed565b5b90600052602060002001819055508260070160008773ffffffffffffffffffffffffffffffffffffffff1673ffffffffffffffffffffffffffffffffffffffff16815260200190815260200160002080548061217157612170612c1c565b5b600190038181906000526020600020016000905590555b6121a0565b808061219890613190565b915050611efb565b508160070160008573ffffffffffffffffffffffffffffffffffffffff1673ffffffffffffffffffffffffffffffffffffffff1681526020019081526020016000208390806001815401808255809150506001900390600052602060002001600090919091909150558160040160008673ffffffffffffffffffffffffffffffffffffffff1673ffffffffffffffffffffffffffffffffffffffff168152602001908152602001600020600081548092919061225b906131d8565b91905055508160040160008573ffffffffffffffffffffffffffffffffffffffff1673ffffffffffffffffffffffffffffffffffffffff16815260200190815260200160002060008154809291906122b290613190565b91905055505050505050565b50505050565b6000807f2c89d74504b6ad8d4fbde22bc3474166bac5452a11195897f239d8bebe02d70790508091505090565b6000807f3cab9a070a0c61cd0ae9d9e9e2c0781e5ca8691bec4087e5a4701d5ac018dd4e90508091505090565b6040518060a00160405280600073ffffffffffffffffffffffffffffffffffffffff168152602001600081526020016000815260200160008152602001600081525090565b82805482825590600052602060002090810192821561239f579160200282015b8281111561239e578251825591602001919060010190612383565b5b5090506123ac91906123b0565b5090565b5b808211156123c95760008160009055506001016123b1565b5090565b600080fd5b6000819050919050565b6123e5816123d2565b81146123f057600080fd5b50565b600081359050612402816123dc565b92915050565b60006020828403121561241e5761241d6123cd565b5b600061242c848285016123f3565b91505092915050565b600073ffffffffffffffffffffffffffffffffffffffff82169050919050565b600061246082612435565b9050919050565b61247081612455565b82525050565b600060208201905061248b6000830184612467565b92915050565b61249a81612455565b81146124a557600080fd5b50565b6000813590506124b781612491565b92915050565b60006124c882612435565b9050919050565b6124d8816124bd565b81146124e357600080fd5b50565b6000813590506124f5816124cf565b92915050565b600080600060608486031215612514576125136123cd565b5b6000612522868287016124a8565b9350506020612533868287016123f3565b9250506040612544868287016124e6565b9150509250925092565b600060208284031215612564576125636123cd565b5b6000612572848285016124a8565b91505092915050565b600081519050919050565b600082825260208201905092915050565b6000819050602082019050919050565b6125b0816123d2565b82525050565b60006125c283836125a7565b60208301905092915050565b6000602082019050919050565b60006125e68261257b565b6125f08185612586565b93506125fb83612597565b8060005b8381101561262c57815161261388826125b6565b975061261e836125ce565b9250506001810190506125ff565b5085935050505092915050565b6000602082019050818103600083015261265381846125db565b905092915050565b60008060408385031215612672576126716123cd565b5b6000612680858286016123f3565b9250506020612691858286016123f3565b9150509250929050565b600080604083850312156126b2576126b16123cd565b5b60006126c0858286016124a8565b92505060206126d1858286016123f3565b9150509250929050565b6126e4816124bd565b82525050565b60a08201600082015161270060008501826126db565b50602082015161271360208501826125a7565b50604082015161272660408501826125a7565b50606082015161273960608501826125a7565b50608082015161274c60808501826125a7565b50505050565b600060a08201905061276760008301846126ea565b92915050565b600082825260208201905092915050565b7f53656e642074686520657861637420616d6f756e740000000000000000000000600082015250565b60006127b460158361276d565b91506127bf8261277e565b602082019050919050565b600060208201905081810360008301526127e3816127a7565b9050919050565b7f4552433732313a2073656c6c6572206973206e6f7420746f6b656e206f776e6560008201527f72206f7220617070726f76656400000000000000000000000000000000000000602082015250565b6000612846602d8361276d565b9150612851826127ea565b604082019050919050565b6000602082019050818103600083015261287581612839565b9050919050565b7f4e487b7100000000000000000000000000000000000000000000000000000000600052601160045260246000fd5b60006128b6826123d2565b91506128c1836123d2565b92508282026128cf816123d2565b915082820484148315176128e6576128e561287c565b5b5092915050565b60006128f8826123d2565b9150612903836123d2565b925082820390508181111561291b5761291a61287c565b5b92915050565b7f4e487b7100000000000000000000000000000000000000000000000000000000600052601260045260246000fd5b600061295b826123d2565b9150612966836123d2565b92508261297657612975612921565b5b828204905092915050565b600081905092915050565b50565b600061299c600083612981565b91506129a78261298c565b600082019050919050565b60006129bd8261298f565b9150819050919050565b7f4661696c656420746f2073656e6420457468657220746f207468652073656c6c60008201527f6572000000000000000000000000000000000000000000000000000000000000602082015250565b6000612a2360228361276d565b9150612a2e826129c7565b604082019050919050565b60006020820190508181036000830152612a5281612a16565b9050919050565b7f4661696c656420746f2073656e6420457468657220746f20746865206665652060008201527f6163636f756e7400000000000000000000000000000000000000000000000000602082015250565b6000612ab560278361276d565b9150612ac082612a59565b604082019050919050565b60006020820190508181036000830152612ae481612aa8565b9050919050565b612af4816123d2565b82525050565b6000602082019050612b0f6000830184612aeb565b92915050565b7f5265656e7472616e637947756172643a207265656e7472616e742063616c6c00600082015250565b6000612b4b601f8361276d565b9150612b5682612b15565b602082019050919050565b60006020820190508181036000830152612b7a81612b3e565b9050919050565b7f74686973206974656d20617320736f6c6420656c736577686572650000000000600082015250565b6000612bb7601b8361276d565b9150612bc282612b81565b602082019050919050565b60006020820190508181036000830152612be681612baa565b9050919050565b7f4e487b7100000000000000000000000000000000000000000000000000000000600052603260045260246000fd5b7f4e487b7100000000000000000000000000000000000000000000000000000000600052603160045260246000fd5b7f4552433732313a207472616e736665722066726f6d20696e636f72726563742060008201527f6f776e6572000000000000000000000000000000000000000000000000000000602082015250565b6000612ca760258361276d565b9150612cb282612c4b565b604082019050919050565b60006020820190508181036000830152612cd681612c9a565b9050919050565b7f4552433732313a207472616e7366657220746f20746865207a65726f2061646460008201527f7265737300000000000000000000000000000000000000000000000000000000602082015250565b6000612d3960248361276d565b9150612d4482612cdd565b604082019050919050565b60006020820190508181036000830152612d6881612d2c565b9050919050565b7f45786368616e676546616365743a20596f7520646f206e6f742068617665206560008201527f6e6f75676820676f6c6420746f206d696e740000000000000000000000000000602082015250565b6000612dcb60328361276d565b9150612dd682612d6f565b604082019050919050565b60006020820190508181036000830152612dfa81612dbe565b9050919050565b6000819050919050565b6000612e26612e21612e1c84612435565b612e01565b612435565b9050919050565b6000612e3882612e0b565b9050919050565b6000612e4a82612e2d565b9050919050565b612e5a81612e3f565b82525050565b6000604082019050612e756000830185612e51565b612e826020830184612aeb565b9392505050565b6000604082019050612e9e6000830185612467565b612eab6020830184612aeb565b9392505050565b7f596f7520646f206e6f74206f776e207468697320706c61796572000000000000600082015250565b6000612ee8601a8361276d565b9150612ef382612eb2565b602082019050919050565b60006020820190508181036000830152612f1781612edb565b9050919050565b7f506c617965722073746175732069732069646c65000000000000000000000000600082015250565b6000612f5460148361276d565b9150612f5f82612f1e565b602082019050919050565b60006020820190508181036000830152612f8381612f47565b9050919050565b600081519050612f99816123dc565b92915050565b600060208284031215612fb557612fb46123cd565b5b6000612fc384828501612f8a565b91505092915050565b7f45786368616e676546616365743a20596f7520646f206e6f742068617665206560008201527f6e6f75676820746f6b656e7320746f20636c61696d0000000000000000000000602082015250565b600061302860358361276d565b915061303382612fcc565b604082019050919050565b600060208201905081810360008301526130578161301b565b9050919050565b6000613069826123d2565b9150613074836123d2565b925082820190508082111561308c5761308b61287c565b5b92915050565b7f63616c6c6572206d75737420626520746865206f776e6572206f66207468652060008201527f6c697374696e6700000000000000000000000000000000000000000000000000602082015250565b60006130ee60278361276d565b91506130f982613092565b604082019050919050565b6000602082019050818103600083015261311d816130e1565b9050919050565b7f5f746f2063616e6e6f74206265207a65726f2061646472657373000000000000600082015250565b600061315a601a8361276d565b915061316582613124565b602082019050919050565b600060208201905081810360008301526131898161314d565b9050919050565b600061319b826123d2565b91507fffffffffffffffffffffffffffffffffffffffffffffffffffffffffffffffff82036131cd576131cc61287c565b5b600182019050919050565b60006131e3826123d2565b9150600082036131f6576131f561287c565b5b60018203905091905056fea264697066735822122077f95694335b8ab9da09c769e5ee57bb4df4efb0f66a62ef29761ae7fc2d91ab64736f6c63430008120033",
  "linkReferences": {},
  "deployedLinkReferences": {}
}