{"@redstone-finance/evm-connector/contracts/data-services/MainDemoConsumerBase.sol":{"MainDemoConsumerBase":{"abi":[{"inputs":[],"name":"CalldataMustHaveValidPayload","type":"error"},{"inputs":[],"name":"CalldataOverOrUnderFlow","type":"error"},{"inputs":[],"name":"CanNotPickMedianOfEmptyArray","type":"error"},{"inputs":[],"name":"DataPackageTimestampMustNotBeZero","type":"error"},{"inputs":[],"name":"DataPackageTimestampsMustBeEqual","type":"error"},{"inputs":[],"name":"EachSignerMustProvideTheSameValue","type":"error"},{"inputs":[],"name":"EmptyCalldataPointersArr","type":"error"},{"inputs":[],"name":"GetDataServiceIdNotImplemented","type":"error"},{"inputs":[],"name":"IncorrectUnsignedMetadataSize","type":"error"},{"inputs":[{"internalType":"uint256","name":"receivedSignersCount","type":"uint256"},{"internalType":"uint256","name":"requiredSignersCount","type":"uint256"}],"name":"InsufficientNumberOfUniqueSigners","type":"error"},{"inputs":[],"name":"InvalidCalldataPointer","type":"error"},{"inputs":[],"name":"RedstonePayloadMustHaveAtLeastOneDataPackage","type":"error"},{"inputs":[{"internalType":"address","name":"receivedSigner","type":"address"}],"name":"SignerNotAuthorised","type":"error"},{"inputs":[{"internalType":"uint256","name":"receivedTimestampSeconds","type":"uint256"},{"internalType":"uint256","name":"blockTimestamp","type":"uint256"}],"name":"TimestampFromTooLongFuture","type":"error"},{"inputs":[{"internalType":"uint256","name":"receivedTimestampSeconds","type":"uint256"},{"internalType":"uint256","name":"blockTimestamp","type":"uint256"}],"name":"TimestampIsTooOld","type":"error"},{"inputs":[{"internalType":"uint256[]","name":"values","type":"uint256[]"}],"name":"aggregateValues","outputs":[{"internalType":"uint256","name":"","type":"uint256"}],"stateMutability":"view","type":"function"},{"inputs":[],"name":"extractTimestampsAndAssertAllAreEqual","outputs":[{"internalType":"uint256","name":"extractedTimestamp","type":"uint256"}],"stateMutability":"pure","type":"function"},{"inputs":[{"internalType":"address","name":"signerAddress","type":"address"}],"name":"getAuthorisedSignerIndex","outputs":[{"internalType":"uint8","name":"","type":"uint8"}],"stateMutability":"view","type":"function"},{"inputs":[],"name":"getDataServiceId","outputs":[{"internalType":"string","name":"","type":"string"}],"stateMutability":"view","type":"function"},{"inputs":[],"name":"getUniqueSignersThreshold","outputs":[{"internalType":"uint8","name":"","type":"uint8"}],"stateMutability":"view","type":"function"},{"inputs":[{"internalType":"uint256","name":"receivedTimestampMilliseconds","type":"uint256"}],"name":"validateTimestamp","outputs":[],"stateMutability":"view","type":"function"}],"evm":{"bytecode":{"linkReferences":{},"object":"608060405234801561001057600080fd5b50610e26806100206000396000f3fe608060405234801561001057600080fd5b50600436106100625760003560e01c80633ce142f51461006757806355a547d514610097578063b24ebfcc146100b5578063c274583a146100e5578063f50b2efe14610103578063f90c49241461011f575b600080fd5b610081600480360381019061007c9190610888565b61013d565b60405161008e91906108d1565b60405180910390f35b61009f6101d1565b6040516100ac9190610905565b60405180910390f35b6100cf60048036038101906100ca9190610aa5565b610341565b6040516100dc9190610905565b60405180910390f35b6100ed610353565b6040516100fa9190610b6d565b60405180910390f35b61011d60048036038101906101189190610b8f565b610390565b005b61012761039c565b60405161013491906108d1565b60405180910390f35b6000730c39486f770b26f5527bbbf942726537986cd7eb73ffffffffffffffffffffffffffffffffffffffff168273ffffffffffffffffffffffffffffffffffffffff160361018f57600090506101cc565b816040517fec459bc00000000000000000000000000000000000000000000000000000000081526004016101c39190610bcb565b60405180910390fd5b919050565b6000806101dc6103a5565b905060006101e9826104b6565b61ffff16905060008103610229576040517f8552ff3c00000000000000000000000000000000000000000000000000000000815260040160405180910390fd5b6002826102369190610c15565b915060005b8181101561033b57600061024e84610512565b90506000806068866102609190610c15565b905060008160003690506102749190610c49565b90508035925060008365ffffffffffff16036102bc576040517f336dc9d000000000000000000000000000000000000000000000000000000000815260040160405180910390fd5b600088036102d4578265ffffffffffff169750610316565b878365ffffffffffff1614610315576040517fd9d1f46500000000000000000000000000000000000000000000000000000000815260040160405180910390fd5b5b83876103229190610c15565b965050505050808061033390610c7d565b91505061023b565b50505090565b600061034c82610551565b9050919050565b60606040518060400160405280601281526020017f72656473746f6e652d6d61696e2d64656d6f0000000000000000000000000000815250905090565b61039981610563565b50565b60006001905090565b60008060203603356602ed57011e000081166602ed57011e000014915050806103fa576040517fe7764c9e00000000000000000000000000000000000000000000000000000000815260040160405180910390fd5b6000803690506029111561043a576040517f5796f78a00000000000000000000000000000000000000000000000000000000815260040160405180910390fd5b602936033590506000600960038362ffffff166104579190610c15565b6104619190610c15565b905060003690506002826104759190610c15565b11156104ad576040517fc30a7bd700000000000000000000000000000000000000000000000000000000815260040160405180910390fd5b80935050505090565b6000806020836104c69190610c15565b90506000369050811115610506576040517f5796f78a00000000000000000000000000000000000000000000000000000000815260040160405180910390fd5b80360335915050919050565b60008060006105208461062d565b91509150604e8160206105339190610c15565b8361053e9190610cc5565b6105489190610c15565b92505050919050565b600061055c826106a3565b9050919050565b60006103e8826105739190610d36565b9050804210156105d557603c428261058b9190610c49565b11156105d05780426040517fb6b0916d0000000000000000000000000000000000000000000000000000000081526004016105c7929190610d67565b60405180910390fd5b610629565b60b481426105e39190610c49565b11156106285780426040517f0321d0b500000000000000000000000000000000000000000000000000000000815260040161061f929190610d67565b60405180910390fd5b5b5050565b60008060008060006041866106429190610c15565b905060006106696020836106569190610c15565b600036905061079790919063ffffffff16565b90508035935061068360038261079790919063ffffffff16565b9050803592508362ffffff1695508263ffffffff16945050505050915091565b6000808251036106df576040517f9e198af900000000000000000000000000000000000000000000000000000000815260040160405180910390fd5b6106e8826107ad565b6000600283516106f89190610d36565b905060006002845161070a9190610d90565b0361077357600061075b846001846107229190610c49565b8151811061073357610732610dc1565b5b602002602001015185848151811061074e5761074d610dc1565b5b6020026020010151610800565b905060028161076a9190610d36565b92505050610792565b82818151811061078657610785610dc1565b5b60200260200101519150505b919050565b600081836107a59190610c49565b905092915050565b805160208201602082028101815b818110156107f957825b818110156107ed5781518151808210156107e0578084528183525b50506020810190506107c5565b506020810190506107bb565b5050505050565b6000818361080e9190610c15565b905092915050565b6000604051905090565b600080fd5b600080fd5b600073ffffffffffffffffffffffffffffffffffffffff82169050919050565b60006108558261082a565b9050919050565b6108658161084a565b811461087057600080fd5b50565b6000813590506108828161085c565b92915050565b60006020828403121561089e5761089d610820565b5b60006108ac84828501610873565b91505092915050565b600060ff82169050919050565b6108cb816108b5565b82525050565b60006020820190506108e660008301846108c2565b92915050565b6000819050919050565b6108ff816108ec565b82525050565b600060208201905061091a60008301846108f6565b92915050565b600080fd5b6000601f19601f8301169050919050565b7f4e487b7100000000000000000000000000000000000000000000000000000000600052604160045260246000fd5b61096e82610925565b810181811067ffffffffffffffff8211171561098d5761098c610936565b5b80604052505050565b60006109a0610816565b90506109ac8282610965565b919050565b600067ffffffffffffffff8211156109cc576109cb610936565b5b602082029050602081019050919050565b600080fd5b6109eb816108ec565b81146109f657600080fd5b50565b600081359050610a08816109e2565b92915050565b6000610a21610a1c846109b1565b610996565b90508083825260208201905060208402830185811115610a4457610a436109dd565b5b835b81811015610a6d5780610a5988826109f9565b845260208401935050602081019050610a46565b5050509392505050565b600082601f830112610a8c57610a8b610920565b5b8135610a9c848260208601610a0e565b91505092915050565b600060208284031215610abb57610aba610820565b5b600082013567ffffffffffffffff811115610ad957610ad8610825565b5b610ae584828501610a77565b91505092915050565b600081519050919050565b600082825260208201905092915050565b60005b83811015610b28578082015181840152602081019050610b0d565b60008484015250505050565b6000610b3f82610aee565b610b498185610af9565b9350610b59818560208601610b0a565b610b6281610925565b840191505092915050565b60006020820190508181036000830152610b878184610b34565b905092915050565b600060208284031215610ba557610ba4610820565b5b6000610bb3848285016109f9565b91505092915050565b610bc58161084a565b82525050565b6000602082019050610be06000830184610bbc565b92915050565b7f4e487b7100000000000000000000000000000000000000000000000000000000600052601160045260246000fd5b6000610c20826108ec565b9150610c2b836108ec565b9250828201905080821115610c4357610c42610be6565b5b92915050565b6000610c54826108ec565b9150610c5f836108ec565b9250828203905081811115610c7757610c76610be6565b5b92915050565b6000610c88826108ec565b91507fffffffffffffffffffffffffffffffffffffffffffffffffffffffffffffffff8203610cba57610cb9610be6565b5b600182019050919050565b6000610cd0826108ec565b9150610cdb836108ec565b9250828202610ce9816108ec565b91508282048414831517610d0057610cff610be6565b5b5092915050565b7f4e487b7100000000000000000000000000000000000000000000000000000000600052601260045260246000fd5b6000610d41826108ec565b9150610d4c836108ec565b925082610d5c57610d5b610d07565b5b828204905092915050565b6000604082019050610d7c60008301856108f6565b610d8960208301846108f6565b9392505050565b6000610d9b826108ec565b9150610da6836108ec565b925082610db657610db5610d07565b5b828206905092915050565b7f4e487b7100000000000000000000000000000000000000000000000000000000600052603260045260246000fdfea2646970667358221220cb74f532dccd430a4e3f9d890f3bb64990eccb2ab0770c71aca88912d1e9eddf64736f6c63430008120033","opcodes":"PUSH1 0x80 PUSH1 0x40 MSTORE CALLVALUE DUP1 ISZERO PUSH2 0x10 JUMPI PUSH1 0x0 DUP1 REVERT JUMPDEST POP PUSH2 0xE26 DUP1 PUSH2 0x20 PUSH1 0x0 CODECOPY PUSH1 0x0 RETURN INVALID PUSH1 0x80 PUSH1 0x40 MSTORE CALLVALUE DUP1 ISZERO PUSH2 0x10 JUMPI PUSH1 0x0 DUP1 REVERT JUMPDEST POP PUSH1 0x4 CALLDATASIZE LT PUSH2 0x62 JUMPI PUSH1 0x0 CALLDATALOAD PUSH1 0xE0 SHR DUP1 PUSH4 0x3CE142F5 EQ PUSH2 0x67 JUMPI DUP1 PUSH4 0x55A547D5 EQ PUSH2 0x97 JUMPI DUP1 PUSH4 0xB24EBFCC EQ PUSH2 0xB5 JUMPI DUP1 PUSH4 0xC274583A EQ PUSH2 0xE5 JUMPI DUP1 PUSH4 0xF50B2EFE EQ PUSH2 0x103 JUMPI DUP1 PUSH4 0xF90C4924 EQ PUSH2 0x11F JUMPI JUMPDEST PUSH1 0x0 DUP1 REVERT JUMPDEST PUSH2 0x81 PUSH1 0x4 DUP1 CALLDATASIZE SUB DUP2 ADD SWAP1 PUSH2 0x7C SWAP2 SWAP1 PUSH2 0x888 JUMP JUMPDEST PUSH2 0x13D JUMP JUMPDEST PUSH1 0x40 MLOAD PUSH2 0x8E SWAP2 SWAP1 PUSH2 0x8D1 JUMP JUMPDEST PUSH1 0x40 MLOAD DUP1 SWAP2 SUB SWAP1 RETURN JUMPDEST PUSH2 0x9F PUSH2 0x1D1 JUMP JUMPDEST PUSH1 0x40 MLOAD PUSH2 0xAC SWAP2 SWAP1 PUSH2 0x905 JUMP JUMPDEST PUSH1 0x40 MLOAD DUP1 SWAP2 SUB SWAP1 RETURN JUMPDEST PUSH2 0xCF PUSH1 0x4 DUP1 CALLDATASIZE SUB DUP2 ADD SWAP1 PUSH2 0xCA SWAP2 SWAP1 PUSH2 0xAA5 JUMP JUMPDEST PUSH2 0x341 JUMP JUMPDEST PUSH1 0x40 MLOAD PUSH2 0xDC SWAP2 SWAP1 PUSH2 0x905 JUMP JUMPDEST PUSH1 0x40 MLOAD DUP1 SWAP2 SUB SWAP1 RETURN JUMPDEST PUSH2 0xED PUSH2 0x353 JUMP JUMPDEST PUSH1 0x40 MLOAD PUSH2 0xFA SWAP2 SWAP1 PUSH2 0xB6D JUMP JUMPDEST PUSH1 0x40 MLOAD DUP1 SWAP2 SUB SWAP1 RETURN JUMPDEST PUSH2 0x11D PUSH1 0x4 DUP1 CALLDATASIZE SUB DUP2 ADD SWAP1 PUSH2 0x118 SWAP2 SWAP1 PUSH2 0xB8F JUMP JUMPDEST PUSH2 0x390 JUMP JUMPDEST STOP JUMPDEST PUSH2 0x127 PUSH2 0x39C JUMP JUMPDEST PUSH1 0x40 MLOAD PUSH2 0x134 SWAP2 SWAP1 PUSH2 0x8D1 JUMP JUMPDEST PUSH1 0x40 MLOAD DUP1 SWAP2 SUB SWAP1 RETURN JUMPDEST PUSH1 0x0 PUSH20 0xC39486F770B26F5527BBBF942726537986CD7EB PUSH20 0xFFFFFFFFFFFFFFFFFFFFFFFFFFFFFFFFFFFFFFFF AND DUP3 PUSH20 0xFFFFFFFFFFFFFFFFFFFFFFFFFFFFFFFFFFFFFFFF AND SUB PUSH2 0x18F JUMPI PUSH1 0x0 SWAP1 POP PUSH2 0x1CC JUMP JUMPDEST DUP2 PUSH1 0x40 MLOAD PUSH32 0xEC459BC000000000000000000000000000000000000000000000000000000000 DUP2 MSTORE PUSH1 0x4 ADD PUSH2 0x1C3 SWAP2 SWAP1 PUSH2 0xBCB JUMP JUMPDEST PUSH1 0x40 MLOAD DUP1 SWAP2 SUB SWAP1 REVERT JUMPDEST SWAP2 SWAP1 POP JUMP JUMPDEST PUSH1 0x0 DUP1 PUSH2 0x1DC PUSH2 0x3A5 JUMP JUMPDEST SWAP1 POP PUSH1 0x0 PUSH2 0x1E9 DUP3 PUSH2 0x4B6 JUMP JUMPDEST PUSH2 0xFFFF AND SWAP1 POP PUSH1 0x0 DUP2 SUB PUSH2 0x229 JUMPI PUSH1 0x40 MLOAD PUSH32 0x8552FF3C00000000000000000000000000000000000000000000000000000000 DUP2 MSTORE PUSH1 0x4 ADD PUSH1 0x40 MLOAD DUP1 SWAP2 SUB SWAP1 REVERT JUMPDEST PUSH1 0x2 DUP3 PUSH2 0x236 SWAP2 SWAP1 PUSH2 0xC15 JUMP JUMPDEST SWAP2 POP PUSH1 0x0 JUMPDEST DUP2 DUP2 LT ISZERO PUSH2 0x33B JUMPI PUSH1 0x0 PUSH2 0x24E DUP5 PUSH2 0x512 JUMP JUMPDEST SWAP1 POP PUSH1 0x0 DUP1 PUSH1 0x68 DUP7 PUSH2 0x260 SWAP2 SWAP1 PUSH2 0xC15 JUMP JUMPDEST SWAP1 POP PUSH1 0x0 DUP2 PUSH1 0x0 CALLDATASIZE SWAP1 POP PUSH2 0x274 SWAP2 SWAP1 PUSH2 0xC49 JUMP JUMPDEST SWAP1 POP DUP1 CALLDATALOAD SWAP3 POP PUSH1 0x0 DUP4 PUSH6 0xFFFFFFFFFFFF AND SUB PUSH2 0x2BC JUMPI PUSH1 0x40 MLOAD PUSH32 0x336DC9D000000000000000000000000000000000000000000000000000000000 DUP2 MSTORE PUSH1 0x4 ADD PUSH1 0x40 MLOAD DUP1 SWAP2 SUB SWAP1 REVERT JUMPDEST PUSH1 0x0 DUP9 SUB PUSH2 0x2D4 JUMPI DUP3 PUSH6 0xFFFFFFFFFFFF AND SWAP8 POP PUSH2 0x316 JUMP JUMPDEST DUP8 DUP4 PUSH6 0xFFFFFFFFFFFF AND EQ PUSH2 0x315 JUMPI PUSH1 0x40 MLOAD PUSH32 0xD9D1F46500000000000000000000000000000000000000000000000000000000 DUP2 MSTORE PUSH1 0x4 ADD PUSH1 0x40 MLOAD DUP1 SWAP2 SUB SWAP1 REVERT JUMPDEST JUMPDEST DUP4 DUP8 PUSH2 0x322 SWAP2 SWAP1 PUSH2 0xC15 JUMP JUMPDEST SWAP7 POP POP POP POP POP DUP1 DUP1 PUSH2 0x333 SWAP1 PUSH2 0xC7D JUMP JUMPDEST SWAP2 POP POP PUSH2 0x23B JUMP JUMPDEST POP POP POP SWAP1 JUMP JUMPDEST PUSH1 0x0 PUSH2 0x34C DUP3 PUSH2 0x551 JUMP JUMPDEST SWAP1 POP SWAP2 SWAP1 POP JUMP JUMPDEST PUSH1 0x60 PUSH1 0x40 MLOAD DUP1 PUSH1 0x40 ADD PUSH1 0x40 MSTORE DUP1 PUSH1 0x12 DUP2 MSTORE PUSH1 0x20 ADD PUSH32 0x72656473746F6E652D6D61696E2D64656D6F0000000000000000000000000000 DUP2 MSTORE POP SWAP1 POP SWAP1 JUMP JUMPDEST PUSH2 0x399 DUP2 PUSH2 0x563 JUMP JUMPDEST POP JUMP JUMPDEST PUSH1 0x0 PUSH1 0x1 SWAP1 POP SWAP1 JUMP JUMPDEST PUSH1 0x0 DUP1 PUSH1 0x20 CALLDATASIZE SUB CALLDATALOAD PUSH7 0x2ED57011E0000 DUP2 AND PUSH7 0x2ED57011E0000 EQ SWAP2 POP POP DUP1 PUSH2 0x3FA JUMPI PUSH1 0x40 MLOAD PUSH32 0xE7764C9E00000000000000000000000000000000000000000000000000000000 DUP2 MSTORE PUSH1 0x4 ADD PUSH1 0x40 MLOAD DUP1 SWAP2 SUB SWAP1 REVERT JUMPDEST PUSH1 0x0 DUP1 CALLDATASIZE SWAP1 POP PUSH1 0x29 GT ISZERO PUSH2 0x43A JUMPI PUSH1 0x40 MLOAD PUSH32 0x5796F78A00000000000000000000000000000000000000000000000000000000 DUP2 MSTORE PUSH1 0x4 ADD PUSH1 0x40 MLOAD DUP1 SWAP2 SUB SWAP1 REVERT JUMPDEST PUSH1 0x29 CALLDATASIZE SUB CALLDATALOAD SWAP1 POP PUSH1 0x0 PUSH1 0x9 PUSH1 0x3 DUP4 PUSH3 0xFFFFFF AND PUSH2 0x457 SWAP2 SWAP1 PUSH2 0xC15 JUMP JUMPDEST PUSH2 0x461 SWAP2 SWAP1 PUSH2 0xC15 JUMP JUMPDEST SWAP1 POP PUSH1 0x0 CALLDATASIZE SWAP1 POP PUSH1 0x2 DUP3 PUSH2 0x475 SWAP2 SWAP1 PUSH2 0xC15 JUMP JUMPDEST GT ISZERO PUSH2 0x4AD JUMPI PUSH1 0x40 MLOAD PUSH32 0xC30A7BD700000000000000000000000000000000000000000000000000000000 DUP2 MSTORE PUSH1 0x4 ADD PUSH1 0x40 MLOAD DUP1 SWAP2 SUB SWAP1 REVERT JUMPDEST DUP1 SWAP4 POP POP POP POP SWAP1 JUMP JUMPDEST PUSH1 0x0 DUP1 PUSH1 0x20 DUP4 PUSH2 0x4C6 SWAP2 SWAP1 PUSH2 0xC15 JUMP JUMPDEST SWAP1 POP PUSH1 0x0 CALLDATASIZE SWAP1 POP DUP2 GT ISZERO PUSH2 0x506 JUMPI PUSH1 0x40 MLOAD PUSH32 0x5796F78A00000000000000000000000000000000000000000000000000000000 DUP2 MSTORE PUSH1 0x4 ADD PUSH1 0x40 MLOAD DUP1 SWAP2 SUB SWAP1 REVERT JUMPDEST DUP1 CALLDATASIZE SUB CALLDATALOAD SWAP2 POP POP SWAP2 SWAP1 POP JUMP JUMPDEST PUSH1 0x0 DUP1 PUSH1 0x0 PUSH2 0x520 DUP5 PUSH2 0x62D JUMP JUMPDEST SWAP2 POP SWAP2 POP PUSH1 0x4E DUP2 PUSH1 0x20 PUSH2 0x533 SWAP2 SWAP1 PUSH2 0xC15 JUMP JUMPDEST DUP4 PUSH2 0x53E SWAP2 SWAP1 PUSH2 0xCC5 JUMP JUMPDEST PUSH2 0x548 SWAP2 SWAP1 PUSH2 0xC15 JUMP JUMPDEST SWAP3 POP POP POP SWAP2 SWAP1 POP JUMP JUMPDEST PUSH1 0x0 PUSH2 0x55C DUP3 PUSH2 0x6A3 JUMP JUMPDEST SWAP1 POP SWAP2 SWAP1 POP JUMP JUMPDEST PUSH1 0x0 PUSH2 0x3E8 DUP3 PUSH2 0x573 SWAP2 SWAP1 PUSH2 0xD36 JUMP JUMPDEST SWAP1 POP DUP1 TIMESTAMP LT ISZERO PUSH2 0x5D5 JUMPI PUSH1 0x3C TIMESTAMP DUP3 PUSH2 0x58B SWAP2 SWAP1 PUSH2 0xC49 JUMP JUMPDEST GT ISZERO PUSH2 0x5D0 JUMPI DUP1 TIMESTAMP PUSH1 0x40 MLOAD PUSH32 0xB6B0916D00000000000000000000000000000000000000000000000000000000 DUP2 MSTORE PUSH1 0x4 ADD PUSH2 0x5C7 SWAP3 SWAP2 SWAP1 PUSH2 0xD67 JUMP JUMPDEST PUSH1 0x40 MLOAD DUP1 SWAP2 SUB SWAP1 REVERT JUMPDEST PUSH2 0x629 JUMP JUMPDEST PUSH1 0xB4 DUP2 TIMESTAMP PUSH2 0x5E3 SWAP2 SWAP1 PUSH2 0xC49 JUMP JUMPDEST GT ISZERO PUSH2 0x628 JUMPI DUP1 TIMESTAMP PUSH1 0x40 MLOAD PUSH32 0x321D0B500000000000000000000000000000000000000000000000000000000 DUP2 MSTORE PUSH1 0x4 ADD PUSH2 0x61F SWAP3 SWAP2 SWAP1 PUSH2 0xD67 JUMP JUMPDEST PUSH1 0x40 MLOAD DUP1 SWAP2 SUB SWAP1 REVERT JUMPDEST JUMPDEST POP POP JUMP JUMPDEST PUSH1 0x0 DUP1 PUSH1 0x0 DUP1 PUSH1 0x0 PUSH1 0x41 DUP7 PUSH2 0x642 SWAP2 SWAP1 PUSH2 0xC15 JUMP JUMPDEST SWAP1 POP PUSH1 0x0 PUSH2 0x669 PUSH1 0x20 DUP4 PUSH2 0x656 SWAP2 SWAP1 PUSH2 0xC15 JUMP JUMPDEST PUSH1 0x0 CALLDATASIZE SWAP1 POP PUSH2 0x797 SWAP1 SWAP2 SWAP1 PUSH4 0xFFFFFFFF AND JUMP JUMPDEST SWAP1 POP DUP1 CALLDATALOAD SWAP4 POP PUSH2 0x683 PUSH1 0x3 DUP3 PUSH2 0x797 SWAP1 SWAP2 SWAP1 PUSH4 0xFFFFFFFF AND JUMP JUMPDEST SWAP1 POP DUP1 CALLDATALOAD SWAP3 POP DUP4 PUSH3 0xFFFFFF AND SWAP6 POP DUP3 PUSH4 0xFFFFFFFF AND SWAP5 POP POP POP POP POP SWAP2 POP SWAP2 JUMP JUMPDEST PUSH1 0x0 DUP1 DUP3 MLOAD SUB PUSH2 0x6DF JUMPI PUSH1 0x40 MLOAD PUSH32 0x9E198AF900000000000000000000000000000000000000000000000000000000 DUP2 MSTORE PUSH1 0x4 ADD PUSH1 0x40 MLOAD DUP1 SWAP2 SUB SWAP1 REVERT JUMPDEST PUSH2 0x6E8 DUP3 PUSH2 0x7AD JUMP JUMPDEST PUSH1 0x0 PUSH1 0x2 DUP4 MLOAD PUSH2 0x6F8 SWAP2 SWAP1 PUSH2 0xD36 JUMP JUMPDEST SWAP1 POP PUSH1 0x0 PUSH1 0x2 DUP5 MLOAD PUSH2 0x70A SWAP2 SWAP1 PUSH2 0xD90 JUMP JUMPDEST SUB PUSH2 0x773 JUMPI PUSH1 0x0 PUSH2 0x75B DUP5 PUSH1 0x1 DUP5 PUSH2 0x722 SWAP2 SWAP1 PUSH2 0xC49 JUMP JUMPDEST DUP2 MLOAD DUP2 LT PUSH2 0x733 JUMPI PUSH2 0x732 PUSH2 0xDC1 JUMP JUMPDEST JUMPDEST PUSH1 0x20 MUL PUSH1 0x20 ADD ADD MLOAD DUP6 DUP5 DUP2 MLOAD DUP2 LT PUSH2 0x74E JUMPI PUSH2 0x74D PUSH2 0xDC1 JUMP JUMPDEST JUMPDEST PUSH1 0x20 MUL PUSH1 0x20 ADD ADD MLOAD PUSH2 0x800 JUMP JUMPDEST SWAP1 POP PUSH1 0x2 DUP2 PUSH2 0x76A SWAP2 SWAP1 PUSH2 0xD36 JUMP JUMPDEST SWAP3 POP POP POP PUSH2 0x792 JUMP JUMPDEST DUP3 DUP2 DUP2 MLOAD DUP2 LT PUSH2 0x786 JUMPI PUSH2 0x785 PUSH2 0xDC1 JUMP JUMPDEST JUMPDEST PUSH1 0x20 MUL PUSH1 0x20 ADD ADD MLOAD SWAP2 POP POP JUMPDEST SWAP2 SWAP1 POP JUMP JUMPDEST PUSH1 0x0 DUP2 DUP4 PUSH2 0x7A5 SWAP2 SWAP1 PUSH2 0xC49 JUMP JUMPDEST SWAP1 POP SWAP3 SWAP2 POP POP JUMP JUMPDEST DUP1 MLOAD PUSH1 0x20 DUP3 ADD PUSH1 0x20 DUP3 MUL DUP2 ADD DUP2 JUMPDEST DUP2 DUP2 LT ISZERO PUSH2 0x7F9 JUMPI DUP3 JUMPDEST DUP2 DUP2 LT ISZERO PUSH2 0x7ED JUMPI DUP2 MLOAD DUP2 MLOAD DUP1 DUP3 LT ISZERO PUSH2 0x7E0 JUMPI DUP1 DUP5 MSTORE DUP2 DUP4 MSTORE JUMPDEST POP POP PUSH1 0x20 DUP2 ADD SWAP1 POP PUSH2 0x7C5 JUMP JUMPDEST POP PUSH1 0x20 DUP2 ADD SWAP1 POP PUSH2 0x7BB JUMP JUMPDEST POP POP POP POP POP JUMP JUMPDEST PUSH1 0x0 DUP2 DUP4 PUSH2 0x80E SWAP2 SWAP1 PUSH2 0xC15 JUMP JUMPDEST SWAP1 POP SWAP3 SWAP2 POP POP JUMP JUMPDEST PUSH1 0x0 PUSH1 0x40 MLOAD SWAP1 POP SWAP1 JUMP JUMPDEST PUSH1 0x0 DUP1 REVERT JUMPDEST PUSH1 0x0 DUP1 REVERT JUMPDEST PUSH1 0x0 PUSH20 0xFFFFFFFFFFFFFFFFFFFFFFFFFFFFFFFFFFFFFFFF DUP3 AND SWAP1 POP SWAP2 SWAP1 POP JUMP JUMPDEST PUSH1 0x0 PUSH2 0x855 DUP3 PUSH2 0x82A JUMP JUMPDEST SWAP1 POP SWAP2 SWAP1 POP JUMP JUMPDEST PUSH2 0x865 DUP2 PUSH2 0x84A JUMP JUMPDEST DUP2 EQ PUSH2 0x870 JUMPI PUSH1 0x0 DUP1 REVERT JUMPDEST POP JUMP JUMPDEST PUSH1 0x0 DUP2 CALLDATALOAD SWAP1 POP PUSH2 0x882 DUP2 PUSH2 0x85C JUMP JUMPDEST SWAP3 SWAP2 POP POP JUMP JUMPDEST PUSH1 0x0 PUSH1 0x20 DUP3 DUP5 SUB SLT ISZERO PUSH2 0x89E JUMPI PUSH2 0x89D PUSH2 0x820 JUMP JUMPDEST JUMPDEST PUSH1 0x0 PUSH2 0x8AC DUP5 DUP3 DUP6 ADD PUSH2 0x873 JUMP JUMPDEST SWAP2 POP POP SWAP3 SWAP2 POP POP JUMP JUMPDEST PUSH1 0x0 PUSH1 0xFF DUP3 AND SWAP1 POP SWAP2 SWAP1 POP JUMP JUMPDEST PUSH2 0x8CB DUP2 PUSH2 0x8B5 JUMP JUMPDEST DUP3 MSTORE POP POP JUMP JUMPDEST PUSH1 0x0 PUSH1 0x20 DUP3 ADD SWAP1 POP PUSH2 0x8E6 PUSH1 0x0 DUP4 ADD DUP5 PUSH2 0x8C2 JUMP JUMPDEST SWAP3 SWAP2 POP POP JUMP JUMPDEST PUSH1 0x0 DUP2 SWAP1 POP SWAP2 SWAP1 POP JUMP JUMPDEST PUSH2 0x8FF DUP2 PUSH2 0x8EC JUMP JUMPDEST DUP3 MSTORE POP POP JUMP JUMPDEST PUSH1 0x0 PUSH1 0x20 DUP3 ADD SWAP1 POP PUSH2 0x91A PUSH1 0x0 DUP4 ADD DUP5 PUSH2 0x8F6 JUMP JUMPDEST SWAP3 SWAP2 POP POP JUMP JUMPDEST PUSH1 0x0 DUP1 REVERT JUMPDEST PUSH1 0x0 PUSH1 0x1F NOT PUSH1 0x1F DUP4 ADD AND SWAP1 POP SWAP2 SWAP1 POP JUMP JUMPDEST PUSH32 0x4E487B7100000000000000000000000000000000000000000000000000000000 PUSH1 0x0 MSTORE PUSH1 0x41 PUSH1 0x4 MSTORE PUSH1 0x24 PUSH1 0x0 REVERT JUMPDEST PUSH2 0x96E DUP3 PUSH2 0x925 JUMP JUMPDEST DUP2 ADD DUP2 DUP2 LT PUSH8 0xFFFFFFFFFFFFFFFF DUP3 GT OR ISZERO PUSH2 0x98D JUMPI PUSH2 0x98C PUSH2 0x936 JUMP JUMPDEST JUMPDEST DUP1 PUSH1 0x40 MSTORE POP POP POP JUMP JUMPDEST PUSH1 0x0 PUSH2 0x9A0 PUSH2 0x816 JUMP JUMPDEST SWAP1 POP PUSH2 0x9AC DUP3 DUP3 PUSH2 0x965 JUMP JUMPDEST SWAP2 SWAP1 POP JUMP JUMPDEST PUSH1 0x0 PUSH8 0xFFFFFFFFFFFFFFFF DUP3 GT ISZERO PUSH2 0x9CC JUMPI PUSH2 0x9CB PUSH2 0x936 JUMP JUMPDEST JUMPDEST PUSH1 0x20 DUP3 MUL SWAP1 POP PUSH1 0x20 DUP2 ADD SWAP1 POP SWAP2 SWAP1 POP JUMP JUMPDEST PUSH1 0x0 DUP1 REVERT JUMPDEST PUSH2 0x9EB DUP2 PUSH2 0x8EC JUMP JUMPDEST DUP2 EQ PUSH2 0x9F6 JUMPI PUSH1 0x0 DUP1 REVERT JUMPDEST POP JUMP JUMPDEST PUSH1 0x0 DUP2 CALLDATALOAD SWAP1 POP PUSH2 0xA08 DUP2 PUSH2 0x9E2 JUMP JUMPDEST SWAP3 SWAP2 POP POP JUMP JUMPDEST PUSH1 0x0 PUSH2 0xA21 PUSH2 0xA1C DUP5 PUSH2 0x9B1 JUMP JUMPDEST PUSH2 0x996 JUMP JUMPDEST SWAP1 POP DUP1 DUP4 DUP3 MSTORE PUSH1 0x20 DUP3 ADD SWAP1 POP PUSH1 0x20 DUP5 MUL DUP4 ADD DUP6 DUP2 GT ISZERO PUSH2 0xA44 JUMPI PUSH2 0xA43 PUSH2 0x9DD JUMP JUMPDEST JUMPDEST DUP4 JUMPDEST DUP2 DUP2 LT ISZERO PUSH2 0xA6D JUMPI DUP1 PUSH2 0xA59 DUP9 DUP3 PUSH2 0x9F9 JUMP JUMPDEST DUP5 MSTORE PUSH1 0x20 DUP5 ADD SWAP4 POP POP PUSH1 0x20 DUP2 ADD SWAP1 POP PUSH2 0xA46 JUMP JUMPDEST POP POP POP SWAP4 SWAP3 POP POP POP JUMP JUMPDEST PUSH1 0x0 DUP3 PUSH1 0x1F DUP4 ADD SLT PUSH2 0xA8C JUMPI PUSH2 0xA8B PUSH2 0x920 JUMP JUMPDEST JUMPDEST DUP2 CALLDATALOAD PUSH2 0xA9C DUP5 DUP3 PUSH1 0x20 DUP7 ADD PUSH2 0xA0E JUMP JUMPDEST SWAP2 POP POP SWAP3 SWAP2 POP POP JUMP JUMPDEST PUSH1 0x0 PUSH1 0x20 DUP3 DUP5 SUB SLT ISZERO PUSH2 0xABB JUMPI PUSH2 0xABA PUSH2 0x820 JUMP JUMPDEST JUMPDEST PUSH1 0x0 DUP3 ADD CALLDATALOAD PUSH8 0xFFFFFFFFFFFFFFFF DUP2 GT ISZERO PUSH2 0xAD9 JUMPI PUSH2 0xAD8 PUSH2 0x825 JUMP JUMPDEST JUMPDEST PUSH2 0xAE5 DUP5 DUP3 DUP6 ADD PUSH2 0xA77 JUMP JUMPDEST SWAP2 POP POP SWAP3 SWAP2 POP POP JUMP JUMPDEST PUSH1 0x0 DUP2 MLOAD SWAP1 POP SWAP2 SWAP1 POP JUMP JUMPDEST PUSH1 0x0 DUP3 DUP3 MSTORE PUSH1 0x20 DUP3 ADD SWAP1 POP SWAP3 SWAP2 POP POP JUMP JUMPDEST PUSH1 0x0 JUMPDEST DUP4 DUP2 LT ISZERO PUSH2 0xB28 JUMPI DUP1 DUP3 ADD MLOAD DUP2 DUP5 ADD MSTORE PUSH1 0x20 DUP2 ADD SWAP1 POP PUSH2 0xB0D JUMP JUMPDEST PUSH1 0x0 DUP5 DUP5 ADD MSTORE POP POP POP POP JUMP JUMPDEST PUSH1 0x0 PUSH2 0xB3F DUP3 PUSH2 0xAEE JUMP JUMPDEST PUSH2 0xB49 DUP2 DUP6 PUSH2 0xAF9 JUMP JUMPDEST SWAP4 POP PUSH2 0xB59 DUP2 DUP6 PUSH1 0x20 DUP7 ADD PUSH2 0xB0A JUMP JUMPDEST PUSH2 0xB62 DUP2 PUSH2 0x925 JUMP JUMPDEST DUP5 ADD SWAP2 POP POP SWAP3 SWAP2 POP POP JUMP JUMPDEST PUSH1 0x0 PUSH1 0x20 DUP3 ADD SWAP1 POP DUP2 DUP2 SUB PUSH1 0x0 DUP4 ADD MSTORE PUSH2 0xB87 DUP2 DUP5 PUSH2 0xB34 JUMP JUMPDEST SWAP1 POP SWAP3 SWAP2 POP POP JUMP JUMPDEST PUSH1 0x0 PUSH1 0x20 DUP3 DUP5 SUB SLT ISZERO PUSH2 0xBA5 JUMPI PUSH2 0xBA4 PUSH2 0x820 JUMP JUMPDEST JUMPDEST PUSH1 0x0 PUSH2 0xBB3 DUP5 DUP3 DUP6 ADD PUSH2 0x9F9 JUMP JUMPDEST SWAP2 POP POP SWAP3 SWAP2 POP POP JUMP JUMPDEST PUSH2 0xBC5 DUP2 PUSH2 0x84A JUMP JUMPDEST DUP3 MSTORE POP POP JUMP JUMPDEST PUSH1 0x0 PUSH1 0x20 DUP3 ADD SWAP1 POP PUSH2 0xBE0 PUSH1 0x0 DUP4 ADD DUP5 PUSH2 0xBBC JUMP JUMPDEST SWAP3 SWAP2 POP POP JUMP JUMPDEST PUSH32 0x4E487B7100000000000000000000000000000000000000000000000000000000 PUSH1 0x0 MSTORE PUSH1 0x11 PUSH1 0x4 MSTORE PUSH1 0x24 PUSH1 0x0 REVERT JUMPDEST PUSH1 0x0 PUSH2 0xC20 DUP3 PUSH2 0x8EC JUMP JUMPDEST SWAP2 POP PUSH2 0xC2B DUP4 PUSH2 0x8EC JUMP JUMPDEST SWAP3 POP DUP3 DUP3 ADD SWAP1 POP DUP1 DUP3 GT ISZERO PUSH2 0xC43 JUMPI PUSH2 0xC42 PUSH2 0xBE6 JUMP JUMPDEST JUMPDEST SWAP3 SWAP2 POP POP JUMP JUMPDEST PUSH1 0x0 PUSH2 0xC54 DUP3 PUSH2 0x8EC JUMP JUMPDEST SWAP2 POP PUSH2 0xC5F DUP4 PUSH2 0x8EC JUMP JUMPDEST SWAP3 POP DUP3 DUP3 SUB SWAP1 POP DUP2 DUP2 GT ISZERO PUSH2 0xC77 JUMPI PUSH2 0xC76 PUSH2 0xBE6 JUMP JUMPDEST JUMPDEST SWAP3 SWAP2 POP POP JUMP JUMPDEST PUSH1 0x0 PUSH2 0xC88 DUP3 PUSH2 0x8EC JUMP JUMPDEST SWAP2 POP PUSH32 0xFFFFFFFFFFFFFFFFFFFFFFFFFFFFFFFFFFFFFFFFFFFFFFFFFFFFFFFFFFFFFFFF DUP3 SUB PUSH2 0xCBA JUMPI PUSH2 0xCB9 PUSH2 0xBE6 JUMP JUMPDEST JUMPDEST PUSH1 0x1 DUP3 ADD SWAP1 POP SWAP2 SWAP1 POP JUMP JUMPDEST PUSH1 0x0 PUSH2 0xCD0 DUP3 PUSH2 0x8EC JUMP JUMPDEST SWAP2 POP PUSH2 0xCDB DUP4 PUSH2 0x8EC JUMP JUMPDEST SWAP3 POP DUP3 DUP3 MUL PUSH2 0xCE9 DUP2 PUSH2 0x8EC JUMP JUMPDEST SWAP2 POP DUP3 DUP3 DIV DUP5 EQ DUP4 ISZERO OR PUSH2 0xD00 JUMPI PUSH2 0xCFF PUSH2 0xBE6 JUMP JUMPDEST JUMPDEST POP SWAP3 SWAP2 POP POP JUMP JUMPDEST PUSH32 0x4E487B7100000000000000000000000000000000000000000000000000000000 PUSH1 0x0 MSTORE PUSH1 0x12 PUSH1 0x4 MSTORE PUSH1 0x24 PUSH1 0x0 REVERT JUMPDEST PUSH1 0x0 PUSH2 0xD41 DUP3 PUSH2 0x8EC JUMP JUMPDEST SWAP2 POP PUSH2 0xD4C DUP4 PUSH2 0x8EC JUMP JUMPDEST SWAP3 POP DUP3 PUSH2 0xD5C JUMPI PUSH2 0xD5B PUSH2 0xD07 JUMP JUMPDEST JUMPDEST DUP3 DUP3 DIV SWAP1 POP SWAP3 SWAP2 POP POP JUMP JUMPDEST PUSH1 0x0 PUSH1 0x40 DUP3 ADD SWAP1 POP PUSH2 0xD7C PUSH1 0x0 DUP4 ADD DUP6 PUSH2 0x8F6 JUMP JUMPDEST PUSH2 0xD89 PUSH1 0x20 DUP4 ADD DUP5 PUSH2 0x8F6 JUMP JUMPDEST SWAP4 SWAP3 POP POP POP JUMP JUMPDEST PUSH1 0x0 PUSH2 0xD9B DUP3 PUSH2 0x8EC JUMP JUMPDEST SWAP2 POP PUSH2 0xDA6 DUP4 PUSH2 0x8EC JUMP JUMPDEST SWAP3 POP DUP3 PUSH2 0xDB6 JUMPI PUSH2 0xDB5 PUSH2 0xD07 JUMP JUMPDEST JUMPDEST DUP3 DUP3 MOD SWAP1 POP SWAP3 SWAP2 POP POP JUMP JUMPDEST PUSH32 0x4E487B7100000000000000000000000000000000000000000000000000000000 PUSH1 0x0 MSTORE PUSH1 0x32 PUSH1 0x4 MSTORE PUSH1 0x24 PUSH1 0x0 REVERT INVALID LOG2 PUSH5 0x6970667358 0x22 SLT KECCAK256 0xCB PUSH21 0xF532DCCD430A4E3F9D890F3BB64990ECCB2AB0770C PUSH18 0xACA88912D1E9EDDF64736F6C634300081200 CALLER "},"methodIdentifiers":{"aggregateValues(uint256[])":"b24ebfcc","extractTimestampsAndAssertAllAreEqual()":"55a547d5","getAuthorisedSignerIndex(address)":"3ce142f5","getDataServiceId()":"c274583a","getUniqueSignersThreshold()":"f90c4924","validateTimestamp(uint256)":"f50b2efe"}}}}}