{"contracts/facets/PlayerFacet.sol":{"PlayerFacet":{"abi":[{"anonymous":false,"inputs":[{"indexed":true,"internalType":"address","name":"owner","type":"address"},{"indexed":true,"internalType":"address","name":"approved","type":"address"},{"indexed":true,"internalType":"uint256","name":"tokenId","type":"uint256"}],"name":"Approval","type":"event"},{"anonymous":false,"inputs":[{"indexed":true,"internalType":"address","name":"owner","type":"address"},{"indexed":true,"internalType":"address","name":"operator","type":"address"},{"indexed":false,"internalType":"bool","name":"approved","type":"bool"}],"name":"ApprovalForAll","type":"event"},{"anonymous":false,"inputs":[{"indexed":true,"internalType":"uint256","name":"_playerId","type":"uint256"},{"indexed":true,"internalType":"uint256","name":"_stat","type":"uint256"}],"name":"LevelUp","type":"event"},{"anonymous":false,"inputs":[{"indexed":true,"internalType":"uint256","name":"id","type":"uint256"},{"indexed":true,"internalType":"address","name":"owner","type":"address"},{"indexed":false,"internalType":"string","name":"name","type":"string"},{"indexed":false,"internalType":"uint256","name":"_class","type":"uint256"}],"name":"Mint","type":"event"},{"anonymous":false,"inputs":[{"indexed":true,"internalType":"address","name":"owner","type":"address"},{"indexed":true,"internalType":"uint256","name":"id","type":"uint256"},{"indexed":true,"internalType":"string","name":"newName","type":"string"}],"name":"NameChange","type":"event"},{"anonymous":false,"inputs":[{"indexed":true,"internalType":"address","name":"from","type":"address"},{"indexed":true,"internalType":"address","name":"to","type":"address"},{"indexed":true,"internalType":"uint256","name":"tokenId","type":"uint256"}],"name":"Transfer","type":"event"},{"inputs":[{"internalType":"uint256","name":"_id","type":"uint256"},{"internalType":"string","name":"_newName","type":"string"}],"name":"changeName","outputs":[],"stateMutability":"nonpayable","type":"function"},{"inputs":[],"name":"getBlocktime","outputs":[{"internalType":"uint256","name":"","type":"uint256"}],"stateMutability":"view","type":"function"},{"inputs":[{"internalType":"uint256","name":"_playerId","type":"uint256"}],"name":"getPlayer","outputs":[{"components":[{"internalType":"uint256","name":"level","type":"uint256"},{"internalType":"uint256","name":"xp","type":"uint256"},{"internalType":"uint256","name":"status","type":"uint256"},{"internalType":"uint256","name":"strength","type":"uint256"},{"internalType":"uint256","name":"health","type":"uint256"},{"internalType":"uint256","name":"currentHealth","type":"uint256"},{"internalType":"uint256","name":"magic","type":"uint256"},{"internalType":"uint256","name":"mana","type":"uint256"},{"internalType":"uint256","name":"maxMana","type":"uint256"},{"internalType":"uint256","name":"agility","type":"uint256"},{"internalType":"uint256","name":"luck","type":"uint256"},{"internalType":"uint256","name":"wisdom","type":"uint256"},{"internalType":"uint256","name":"haki","type":"uint256"},{"internalType":"uint256","name":"perception","type":"uint256"},{"internalType":"uint256","name":"defense","type":"uint256"},{"internalType":"string","name":"name","type":"string"},{"internalType":"string","name":"uri","type":"string"},{"internalType":"bool","name":"male","type":"bool"},{"components":[{"internalType":"uint256","name":"head","type":"uint256"},{"internalType":"uint256","name":"body","type":"uint256"},{"internalType":"uint256","name":"leftHand","type":"uint256"},{"internalType":"uint256","name":"rightHand","type":"uint256"},{"internalType":"uint256","name":"pants","type":"uint256"},{"internalType":"uint256","name":"feet","type":"uint256"},{"internalType":"uint256","name":"neck","type":"uint256"}],"internalType":"struct PlayerSlotLib.Slot","name":"slot","type":"tuple"},{"internalType":"uint256","name":"playerClass","type":"uint256"}],"internalType":"struct PlayerSlotLib.Player","name":"player","type":"tuple"}],"stateMutability":"view","type":"function"},{"inputs":[{"internalType":"address","name":"_address","type":"address"}],"name":"getPlayers","outputs":[{"internalType":"uint256[]","name":"","type":"uint256[]"}],"stateMutability":"view","type":"function"},{"inputs":[{"internalType":"uint256","name":"_playerId","type":"uint256"},{"internalType":"uint256","name":"_stat","type":"uint256"}],"name":"levelUp","outputs":[],"stateMutability":"nonpayable","type":"function"},{"inputs":[{"internalType":"string","name":"_name","type":"string"},{"internalType":"bool","name":"_isMale","type":"bool"},{"internalType":"uint256","name":"_class","type":"uint256"},{"internalType":"address","name":"_to","type":"address"}],"name":"mint","outputs":[],"stateMutability":"payable","type":"function"},{"inputs":[{"internalType":"string","name":"_name","type":"string"}],"name":"nameAvailable","outputs":[{"internalType":"bool","name":"available","type":"bool"}],"stateMutability":"view","type":"function"},{"inputs":[{"internalType":"uint256","name":"_playerId","type":"uint256"}],"name":"ownerOfPlayer","outputs":[{"internalType":"address","name":"owner","type":"address"}],"stateMutability":"view","type":"function"},{"inputs":[],"name":"playerCount","outputs":[{"internalType":"uint256","name":"","type":"uint256"}],"stateMutability":"view","type":"function"}],"evm":{"bytecode":{"linkReferences":{},"object":"608060405234801561001057600080fd5b506133ae806100206000396000f3fe6080604052600436106100865760003560e01c806382bbdbec1161005957806382bbdbec14610147578063b93b66b114610184578063bfcc8b6d146101a0578063c39cbef1146101dd578063e55ae4e81461020657610086565b80630501b79f1461008b578063302bcc57146100b65780635226dc93146100e15780637a80b6b41461010a575b600080fd5b34801561009757600080fd5b506100a0610243565b6040516100ad91906120aa565b60405180910390f35b3480156100c257600080fd5b506100cb61024b565b6040516100d891906120aa565b60405180910390f35b3480156100ed57600080fd5b5061010860048036038101906101039190612105565b61025a565b005b34801561011657600080fd5b50610131600480360381019061012c91906121a3565b610296565b60405161013e919061228e565b60405180910390f35b34801561015357600080fd5b5061016e600480360381019061016991906123f6565b6102a8565b60405161017b919061245a565b60405180910390f35b61019e600480360381019061019991906124a1565b6102ba565b005b3480156101ac57600080fd5b506101c760048036038101906101c29190612524565b610418565b6040516101d49190612560565b60405180910390f35b3480156101e957600080fd5b5061020460048036038101906101ff919061257b565b61042a565b005b34801561021257600080fd5b5061022d60048036038101906102289190612524565b610492565b60405161023a91906128a6565b60405180910390f35b600042905090565b60006102556104aa565b905090565b61026482826104c2565b80827f3b7ca85b5e3d1ebb3a81e8d9e27bfeb9ef2f447026c115421132a20b0733b73f60405160405180910390a35050565b60606102a1826109bd565b9050919050565b60006102b382610a63565b9050919050565b60006638d7ea4c6800009050803410156102d357600080fd5b60007308d8e680a2d295af8cbcd8b8e07f900275bc6b8d90506000808273ffffffffffffffffffffffffffffffffffffffff1634604051610313906128f9565b60006040518083038185875af1925050503d8060008114610350576040519150601f19603f3d011682016040523d82523d6000602084013e610355565b606091505b50915091508161039a576040517f08c379a00000000000000000000000000000000000000000000000000000000081526004016103919061296b565b60405180910390fd5b6103a688888888610aa6565b60006103b061024b565b90508573ffffffffffffffffffffffffffffffffffffffff16817fcb5aab6c0bec1e5513425dfaad4acfbca112f8b0ffe1027bd614e3d98a3ee5d28b8a6040516103fb9291906129c4565b60405180910390a361040d86826114f7565b505050505050505050565b600061042382611515565b9050919050565b6104348282611560565b806040516104429190612a30565b6040518091039020823373ffffffffffffffffffffffffffffffffffffffff167fe4ce50a62b6cbb7d19acd75fd57f7e2588dd09705647d97993e2ece872c305b260405160405180910390a45050565b61049a611fb3565b6104a382611814565b9050919050565b6000806104b5611a8a565b9050806001015491505090565b60006104cc611a8a565b905060008160030160008581526020019081526020016000206040518061028001604052908160008201548152602001600182015481526020016002820154815260200160038201548152602001600482015481526020016005820154815260200160068201548152602001600782015481526020016008820154815260200160098201548152602001600a8201548152602001600b8201548152602001600c8201548152602001600d8201548152602001600e8201548152602001600f8201805461059790612a76565b80601f01602080910402602001604051908101604052809291908181526020018280546105c390612a76565b80156106105780601f106105e557610100808354040283529160200191610610565b820191906000526020600020905b8154815290600101906020018083116105f357829003601f168201915b5050505050815260200160108201805461062990612a76565b80601f016020809104026020016040519081016040528092919081815260200182805461065590612a76565b80156106a25780601f10610677576101008083540402835291602001916106a2565b820191906000526020600020905b81548152906001019060200180831161068557829003601f168201915b505050505081526020016011820160009054906101000a900460ff16151515158152602001601282016040518060e001604052908160008201548152602001600182015481526020016002820154815260200160038201548152602001600482015481526020016005820154815260200160068201548152505081526020016019820154815250509050600a816000015161073d9190612ad6565b8160200151101561074d57600080fd5b6000830361078857816003016000858152602001908152602001600020600301600081548092919061077e90612b18565b9190505550610918565b600183036107c35781600301600085815260200190815260200160002060040160008154809291906107b990612b18565b9190505550610917565b600283036107fe5781600301600085815260200190815260200160002060090160008154809291906107f490612b18565b9190505550610916565b6003830361083957816003016000858152602001908152602001600020600601600081548092919061082f90612b18565b9190505550610915565b6004830361087457816003016000858152602001908152602001600020600e01600081548092919061086a90612b18565b9190505550610914565b600583036108af57816003016000858152602001908152602001600020600a0160008154809291906108a590612b18565b9190505550610913565b81600301600085815260200190815260200160002060080160008154809291906108d890612b18565b919050555081600301600085815260200190815260200160002060080154826003016000868152602001908152602001600020600701819055505b5b5b5b5b5b8160030160008581526020019081526020016000206004015482600301600086815260200190815260200160002060050181905550600a816000015161095e9190612ad6565b816020015161096d9190612b60565b8260030160008681526020019081526020016000206001018190555081600301600085815260200190815260200160002060000160008154809291906109b290612b18565b919050555050505050565b606060006109c9611a8a565b90508060070160008473ffffffffffffffffffffffffffffffffffffffff1673ffffffffffffffffffffffffffffffffffffffff168152602001908152602001600020805480602002602001604051908101604052809291908181526020018280548015610a5657602002820191906000526020600020905b815481526020019060010190808311610a42575b5050505050915050919050565b600080610a6e611a8a565b90508060060183604051610a829190612a30565b908152602001604051809103902060009054906101000a900460ff16915050919050565b6000610ab0611a8a565b9050611f4081600101541115610ac557600080fd5b8060060185604051610ad79190612a30565b908152602001604051809103902060009054906101000a900460ff1615610b33576040517f08c379a0000000000000000000000000000000000000000000000000000000008152600401610b2a90612be0565b60405180910390fd5b6002831115610b4157600080fd5b600a85511115610b5057600080fd5b600385511015610b5f57600080fd5b806001016000815480929190610b7490612b18565b9190505550606060008403610dfd5784610ba95760405180608001604052806043815260200161326d60439139905080610bc6565b604051806080016040528060438152602001613336604391399050805b50604051806102800160405280600181526020016000815260200160008152602001600b8152602001600c8152602001600c8152602001600a8152602001600a8152602001600a8152602001600a815260200160018152602001600181526020016001815260200160018152602001600b815260200187815260200182815260200186151581526020016040518060e00160405280600081526020016000815260200160008152602001600081526020016000815260200160008152602001600081525081526020018581525082600301600084600101548152602001908152602001600020600082015181600001556020820151816001015560408201518160020155606082015181600301556080820151816004015560a0820151816005015560c0820151816006015560e082015181600701556101008201518160080155610120820151816009015561014082015181600a015561016082015181600b015561018082015181600c01556101a082015181600d01556101c082015181600e01556101e082015181600f019081610d5f9190612dac565b50610200820151816010019081610d769190612dac565b506102208201518160110160006101000a81548160ff02191690831515021790555061024082015181601201600082015181600001556020820151816001015560408201518160020155606082015181600301556080820151816004015560a0820151816005015560c08201518160060155505061026082015181601901559050506112ff565b6001840361107f5784610e2b576040518060800160405280604381526020016132f360439139905080610e48565b6040518060800160405280604381526020016132b0604391399050805b50604051806102800160405280600181526020016000815260200160008152602001600b8152602001600b8152602001600b8152602001600a8152602001600a8152602001600a8152602001600c815260200160018152602001600181526020016001815260200160018152602001600a815260200187815260200182815260200186151581526020016040518060e00160405280600081526020016000815260200160008152602001600081526020016000815260200160008152602001600081525081526020018581525082600301600084600101548152602001908152602001600020600082015181600001556020820151816001015560408201518160020155606082015181600301556080820151816004015560a0820151816005015560c0820151816006015560e082015181600701556101008201518160080155610120820151816009015561014082015181600a015561016082015181600b015561018082015181600c01556101a082015181600d01556101c082015181600e01556101e082015181600f019081610fe19190612dac565b50610200820151816010019081610ff89190612dac565b506102208201518160110160006101000a81548160ff02191690831515021790555061024082015181601201600082015181600001556020820151816001015560408201518160020155606082015181600301556080820151816004015560a0820151816005015560c08201518160060155505061026082015181601901559050506112fe565b600284036112fd57846110ad5760405180608001604052806043815260200161322a604391399050806110ca565b6040518060800160405280604381526020016131e7604391399050805b50604051806102800160405280600181526020016000815260200160008152602001600a8152602001600a8152602001600a8152602001600c8152602001600c8152602001600c8152602001600a815260200160018152602001600181526020016001815260200160018152602001600a815260200187815260200182815260200186151581526020016040518060e00160405280600081526020016000815260200160008152602001600081526020016000815260200160008152602001600081525081526020018581525082600301600084600101548152602001908152602001600020600082015181600001556020820151816001015560408201518160020155606082015181600301556080820151816004015560a0820151816005015560c0820151816006015560e082015181600701556101008201518160080155610120820151816009015561014082015181600a015561016082015181600b015561018082015181600c01556101a082015181600d01556101c082015181600e01556101e082015181600f0190816112639190612dac565b5061020082015181601001908161127a9190612dac565b506102208201518160110160006101000a81548160ff02191690831515021790555061024082015181601201600082015181600001556020820151816001015560408201518160020155606082015181600301556080820151816004015560a0820151816005015560c08201518160060155505061026082015181601901559050505b5b5b6040518060e00160405280600081526020016000815260200160008152602001600081526020016000815260200160008152602001600081525082600801600084600101548152602001908152602001600020600082015181600001556020820151816001015560408201518160020155606082015181600301556080820151816004015560a0820151816005015560c08201518160060155905050600182600601876040516113af9190612a30565b908152602001604051809103902060006101000a81548160ff021916908315150217905550828260020160008460010154815260200190815260200160002060006101000a81548173ffffffffffffffffffffffffffffffffffffffff021916908373ffffffffffffffffffffffffffffffffffffffff1602179055508160070160008473ffffffffffffffffffffffffffffffffffffffff1673ffffffffffffffffffffffffffffffffffffffff168152602001908152602001600020826001015490806001815401808255809150506001900390600052602060002001600090919091909150558160040160008473ffffffffffffffffffffffffffffffffffffffff1673ffffffffffffffffffffffffffffffffffffffff16815260200190815260200160002060008154809291906114ea90612b18565b9190505550505050505050565b611511828260405180602001604052806000815250611ab7565b5050565b600080611520611a8a565b905080600201600084815260200190815260200160002060009054906101000a900473ffffffffffffffffffffffffffffffffffffffff16915050919050565b600061156a611a8a565b90503373ffffffffffffffffffffffffffffffffffffffff1681600201600085815260200190815260200160002060009054906101000a900473ffffffffffffffffffffffffffffffffffffffff1673ffffffffffffffffffffffffffffffffffffffff16146115d957600080fd5b80600601826040516115eb9190612a30565b908152602001604051809103902060009054906101000a900460ff1615611647576040517f08c379a000000000000000000000000000000000000000000000000000000000815260040161163e90612be0565b60405180910390fd5b600382511161168b576040517f08c379a000000000000000000000000000000000000000000000000000000000815260040161168290612eca565b60405180910390fd5b600a8251106116cf576040517f08c379a00000000000000000000000000000000000000000000000000000000081526004016116c690612f36565b60405180910390fd5b6000816003016000858152602001908152602001600020600f0180546116f490612a76565b80601f016020809104026020016040519081016040528092919081815260200182805461172090612a76565b801561176d5780601f106117425761010080835404028352916020019161176d565b820191906000526020600020905b81548152906001019060200180831161175057829003601f168201915b505050505090506000815111156117af5781600601816040516117909190612a30565b908152602001604051809103902060006101000a81549060ff02191690555b82826003016000868152602001908152602001600020600f0190816117d49190612dac565b50600182600601846040516117e99190612a30565b908152602001604051809103902060006101000a81548160ff02191690831515021790555050505050565b61181c611fb3565b6000611826611a8a565b90508060030160008481526020019081526020016000206040518061028001604052908160008201548152602001600182015481526020016002820154815260200160038201548152602001600482015481526020016005820154815260200160068201548152602001600782015481526020016008820154815260200160098201548152602001600a8201548152602001600b8201548152602001600c8201548152602001600d8201548152602001600e8201548152602001600f820180546118ef90612a76565b80601f016020809104026020016040519081016040528092919081815260200182805461191b90612a76565b80156119685780601f1061193d57610100808354040283529160200191611968565b820191906000526020600020905b81548152906001019060200180831161194b57829003601f168201915b5050505050815260200160108201805461198190612a76565b80601f01602080910402602001604051908101604052809291908181526020018280546119ad90612a76565b80156119fa5780601f106119cf576101008083540402835291602001916119fa565b820191906000526020600020905b8154815290600101906020018083116119dd57829003601f168201915b505050505081526020016011820160009054906101000a900460ff16151515158152602001601282016040518060e00160405290816000820154815260200160018201548152602001600282015481526020016003820154815260200160048201548152602001600582015481526020016006820154815250508152602001601982015481525050915050919050565b6000807f3cab9a070a0c61cd0ae9d9e9e2c0781e5ca8691bec4087e5a4701d5ac018dd4e90508091505090565b611ac18383611b12565b611ace6000848484611d41565b611b0d576040517f08c379a0000000000000000000000000000000000000000000000000000000008152600401611b0490612fc8565b60405180910390fd5b505050565b600073ffffffffffffffffffffffffffffffffffffffff168273ffffffffffffffffffffffffffffffffffffffff1603611b81576040517f08c379a0000000000000000000000000000000000000000000000000000000008152600401611b7890613034565b60405180910390fd5b611b8a81611ec8565b15611bca576040517f08c379a0000000000000000000000000000000000000000000000000000000008152600401611bc1906130a0565b60405180910390fd5b611bd8600083836001611f09565b611be181611ec8565b15611c21576040517f08c379a0000000000000000000000000000000000000000000000000000000008152600401611c18906130a0565b60405180910390fd5b6001611c2b611f0f565b600a0160008473ffffffffffffffffffffffffffffffffffffffff1673ffffffffffffffffffffffffffffffffffffffff1681526020019081526020016000206000828254019250508190555081611c81611f0f565b600901600083815260200190815260200160002060006101000a81548173ffffffffffffffffffffffffffffffffffffffff021916908373ffffffffffffffffffffffffffffffffffffffff160217905550808273ffffffffffffffffffffffffffffffffffffffff16600073ffffffffffffffffffffffffffffffffffffffff167fddf252ad1be2c89b69c2b068fc378daa952ba7f163c4a11628f55a4df523b3ef60405160405180910390a4611d3d600083836001611f3c565b5050565b6000611d628473ffffffffffffffffffffffffffffffffffffffff16611f42565b15611ebb578373ffffffffffffffffffffffffffffffffffffffff1663150b7a02611d8b611f65565b8786866040518563ffffffff1660e01b8152600401611dad9493929190613115565b6020604051808303816000875af1925050508015611de957506040513d601f19601f82011682018060405250810190611de691906131b9565b60015b611e6b573d8060008114611e19576040519150601f19603f3d011682016040523d82523d6000602084013e611e1e565b606091505b506000815103611e63576040517f08c379a0000000000000000000000000000000000000000000000000000000008152600401611e5a90612fc8565b60405180910390fd5b805181602001fd5b63150b7a0260e01b7bffffffffffffffffffffffffffffffffffffffffffffffffffffffff1916817bffffffffffffffffffffffffffffffffffffffffffffffffffffffff191614915050611ec0565b600190505b949350505050565b60008073ffffffffffffffffffffffffffffffffffffffff16611eea83611f6d565b73ffffffffffffffffffffffffffffffffffffffff1614159050919050565b50505050565b6000807f2569078dfb4b0305704d3008e7403993ae9601b85f7ae5e742de3de8f8011c4090508091505090565b50505050565b6000808273ffffffffffffffffffffffffffffffffffffffff163b119050919050565b600033905090565b6000611f77611f0f565b600901600083815260200190815260200160002060009054906101000a900473ffffffffffffffffffffffffffffffffffffffff169050919050565b6040518061028001604052806000815260200160008152602001600081526020016000815260200160008152602001600081526020016000815260200160008152602001600081526020016000815260200160008152602001600081526020016000815260200160008152602001600081526020016060815260200160608152602001600015158152602001612047612054565b8152602001600081525090565b6040518060e00160405280600081526020016000815260200160008152602001600081526020016000815260200160008152602001600081525090565b6000819050919050565b6120a481612091565b82525050565b60006020820190506120bf600083018461209b565b92915050565b6000604051905090565b600080fd5b600080fd5b6120e281612091565b81146120ed57600080fd5b50565b6000813590506120ff816120d9565b92915050565b6000806040838503121561211c5761211b6120cf565b5b600061212a858286016120f0565b925050602061213b858286016120f0565b9150509250929050565b600073ffffffffffffffffffffffffffffffffffffffff82169050919050565b600061217082612145565b9050919050565b61218081612165565b811461218b57600080fd5b50565b60008135905061219d81612177565b92915050565b6000602082840312156121b9576121b86120cf565b5b60006121c78482850161218e565b91505092915050565b600081519050919050565b600082825260208201905092915050565b6000819050602082019050919050565b61220581612091565b82525050565b600061221783836121fc565b60208301905092915050565b6000602082019050919050565b600061223b826121d0565b61224581856121db565b9350612250836121ec565b8060005b83811015612281578151612268888261220b565b975061227383612223565b925050600181019050612254565b5085935050505092915050565b600060208201905081810360008301526122a88184612230565b905092915050565b600080fd5b600080fd5b6000601f19601f8301169050919050565b7f4e487b7100000000000000000000000000000000000000000000000000000000600052604160045260246000fd5b612303826122ba565b810181811067ffffffffffffffff82111715612322576123216122cb565b5b80604052505050565b60006123356120c5565b905061234182826122fa565b919050565b600067ffffffffffffffff821115612361576123606122cb565b5b61236a826122ba565b9050602081019050919050565b82818337600083830152505050565b600061239961239484612346565b61232b565b9050828152602081018484840111156123b5576123b46122b5565b5b6123c0848285612377565b509392505050565b600082601f8301126123dd576123dc6122b0565b5b81356123ed848260208601612386565b91505092915050565b60006020828403121561240c5761240b6120cf565b5b600082013567ffffffffffffffff81111561242a576124296120d4565b5b612436848285016123c8565b91505092915050565b60008115159050919050565b6124548161243f565b82525050565b600060208201905061246f600083018461244b565b92915050565b61247e8161243f565b811461248957600080fd5b50565b60008135905061249b81612475565b92915050565b600080600080608085870312156124bb576124ba6120cf565b5b600085013567ffffffffffffffff8111156124d9576124d86120d4565b5b6124e5878288016123c8565b94505060206124f68782880161248c565b9350506040612507878288016120f0565b92505060606125188782880161218e565b91505092959194509250565b60006020828403121561253a576125396120cf565b5b6000612548848285016120f0565b91505092915050565b61255a81612165565b82525050565b60006020820190506125756000830184612551565b92915050565b60008060408385031215612592576125916120cf565b5b60006125a0858286016120f0565b925050602083013567ffffffffffffffff8111156125c1576125c06120d4565b5b6125cd858286016123c8565b9150509250929050565b600081519050919050565b600082825260208201905092915050565b60005b838110156126115780820151818401526020810190506125f6565b60008484015250505050565b6000612628826125d7565b61263281856125e2565b93506126428185602086016125f3565b61264b816122ba565b840191505092915050565b61265f8161243f565b82525050565b60e08201600082015161267b60008501826121fc565b50602082015161268e60208501826121fc565b5060408201516126a160408501826121fc565b5060608201516126b460608501826121fc565b5060808201516126c760808501826121fc565b5060a08201516126da60a08501826121fc565b5060c08201516126ed60c08501826121fc565b50505050565b60006103408301600083015161270c60008601826121fc565b50602083015161271f60208601826121fc565b50604083015161273260408601826121fc565b50606083015161274560608601826121fc565b50608083015161275860808601826121fc565b5060a083015161276b60a08601826121fc565b5060c083015161277e60c08601826121fc565b5060e083015161279160e08601826121fc565b506101008301516127a66101008601826121fc565b506101208301516127bb6101208601826121fc565b506101408301516127d06101408601826121fc565b506101608301516127e56101608601826121fc565b506101808301516127fa6101808601826121fc565b506101a083015161280f6101a08601826121fc565b506101c08301516128246101c08601826121fc565b506101e08301518482036101e086015261283e828261261d565b91505061020083015184820361020086015261285a828261261d565b915050610220830151612871610220860182612656565b50610240830151612886610240860182612665565b5061026083015161289b6103208601826121fc565b508091505092915050565b600060208201905081810360008301526128c081846126f3565b905092915050565b600081905092915050565b50565b60006128e36000836128c8565b91506128ee826128d3565b600082019050919050565b6000612904826128d6565b9150819050919050565b600082825260208201905092915050565b7f4661696c656420746f2073656e64204574686572000000000000000000000000600082015250565b600061295560148361290e565b91506129608261291f565b602082019050919050565b6000602082019050818103600083015261298481612948565b9050919050565b6000612996826125d7565b6129a0818561290e565b93506129b08185602086016125f3565b6129b9816122ba565b840191505092915050565b600060408201905081810360008301526129de818561298b565b90506129ed602083018461209b565b9392505050565b600081905092915050565b6000612a0a826125d7565b612a1481856129f4565b9350612a248185602086016125f3565b80840191505092915050565b6000612a3c82846129ff565b915081905092915050565b7f4e487b7100000000000000000000000000000000000000000000000000000000600052602260045260246000fd5b60006002820490506001821680612a8e57607f821691505b602082108103612aa157612aa0612a47565b5b50919050565b7f4e487b7100000000000000000000000000000000000000000000000000000000600052601160045260246000fd5b6000612ae182612091565b9150612aec83612091565b9250828202612afa81612091565b91508282048414831517612b1157612b10612aa7565b5b5092915050565b6000612b2382612091565b91507fffffffffffffffffffffffffffffffffffffffffffffffffffffffffffffffff8203612b5557612b54612aa7565b5b600182019050919050565b6000612b6b82612091565b9150612b7683612091565b9250828203905081811115612b8e57612b8d612aa7565b5b92915050565b7f6e616d652069732074616b656e00000000000000000000000000000000000000600082015250565b6000612bca600d8361290e565b9150612bd582612b94565b602082019050919050565b60006020820190508181036000830152612bf981612bbd565b9050919050565b60008190508160005260206000209050919050565b60006020601f8301049050919050565b600082821b905092915050565b600060088302612c627fffffffffffffffffffffffffffffffffffffffffffffffffffffffffffffffff82612c25565b612c6c8683612c25565b95508019841693508086168417925050509392505050565b6000819050919050565b6000612ca9612ca4612c9f84612091565b612c84565b612091565b9050919050565b6000819050919050565b612cc383612c8e565b612cd7612ccf82612cb0565b848454612c32565b825550505050565b600090565b612cec612cdf565b612cf7818484612cba565b505050565b5b81811015612d1b57612d10600082612ce4565b600181019050612cfd565b5050565b601f821115612d6057612d3181612c00565b612d3a84612c15565b81016020851015612d49578190505b612d5d612d5585612c15565b830182612cfc565b50505b505050565b600082821c905092915050565b6000612d8360001984600802612d65565b1980831691505092915050565b6000612d9c8383612d72565b9150826002028217905092915050565b612db5826125d7565b67ffffffffffffffff811115612dce57612dcd6122cb565b5b612dd88254612a76565b612de3828285612d1f565b600060209050601f831160018114612e165760008415612e04578287015190505b612e0e8582612d90565b865550612e76565b601f198416612e2486612c00565b60005b82811015612e4c57848901518255600182019150602085019450602081019050612e27565b86831015612e695784890151612e65601f891682612d72565b8355505b6001600288020188555050505b505050505050565b7f43616e6e6f74207061737320616e20656d707479206861736800000000000000600082015250565b6000612eb460198361290e565b9150612ebf82612e7e565b602082019050919050565b60006020820190508181036000830152612ee381612ea7565b9050919050565b7f43616e6e6f74206265206c6f6e676572207468616e2031302063686172730000600082015250565b6000612f20601e8361290e565b9150612f2b82612eea565b602082019050919050565b60006020820190508181036000830152612f4f81612f13565b9050919050565b7f4552433732313a207472616e7366657220746f206e6f6e20455243373231526560008201527f63656976657220696d706c656d656e7465720000000000000000000000000000602082015250565b6000612fb260328361290e565b9150612fbd82612f56565b604082019050919050565b60006020820190508181036000830152612fe181612fa5565b9050919050565b7f4552433732313a206d696e7420746f20746865207a65726f2061646472657373600082015250565b600061301e60208361290e565b915061302982612fe8565b602082019050919050565b6000602082019050818103600083015261304d81613011565b9050919050565b7f4552433732313a20746f6b656e20616c7265616479206d696e74656400000000600082015250565b600061308a601c8361290e565b915061309582613054565b602082019050919050565b600060208201905081810360008301526130b98161307d565b9050919050565b600081519050919050565b600082825260208201905092915050565b60006130e7826130c0565b6130f181856130cb565b93506131018185602086016125f3565b61310a816122ba565b840191505092915050565b600060808201905061312a6000830187612551565b6131376020830186612551565b613144604083018561209b565b818103606083015261315681846130dc565b905095945050505050565b60007fffffffff0000000000000000000000000000000000000000000000000000000082169050919050565b61319681613161565b81146131a157600080fd5b50565b6000815190506131b38161318d565b92915050565b6000602082840312156131cf576131ce6120cf565b5b60006131dd848285016131a4565b9150509291505056fe68747470733a2f2f697066732e696f2f697066732f516d556257785564387358344d5a6f6a4b455255506d507539597441596659726f425334546531484a454b75637968747470733a2f2f697066732e696f2f697066732f516d625641427439734b704e55613844674d4a64653344424351796f72534354395631447a6436634a385a556d5068747470733a2f2f697066732e696f2f697066732f516d66424e4870787077554e67747736695842784b584c6256786f6d386d7064427367715a5a79353970524d354368747470733a2f2f697066732e696f2f697066732f516d5158655965397278526b6b716645423744725a52534732533179724e676a363456386d3676374b65747a516468747470733a2f2f697066732e696f2f697066732f516d55715a4b5275646e616e673147586244326e4848776d4a664e4e42465156646d6f483857416e65616969356868747470733a2f2f697066732e696f2f697066732f516d56357053734d47474d4c5733593979513871534c534d4451616b646e6a686a53346b356865366d4a79506548a2646970667358221220e0c722cc483d64109159e28a2ae67c68f02655fa33a384af629a4393aca64b8c64736f6c63430008120033","opcodes":"PUSH1 0x80 PUSH1 0x40 MSTORE CALLVALUE DUP1 ISZERO PUSH2 0x10 JUMPI PUSH1 0x0 DUP1 REVERT JUMPDEST POP PUSH2 0x33AE DUP1 PUSH2 0x20 PUSH1 0x0 CODECOPY PUSH1 0x0 RETURN INVALID PUSH1 0x80 PUSH1 0x40 MSTORE PUSH1 0x4 CALLDATASIZE LT PUSH2 0x86 JUMPI PUSH1 0x0 CALLDATALOAD PUSH1 0xE0 SHR DUP1 PUSH4 0x82BBDBEC GT PUSH2 0x59 JUMPI DUP1 PUSH4 0x82BBDBEC EQ PUSH2 0x147 JUMPI DUP1 PUSH4 0xB93B66B1 EQ PUSH2 0x184 JUMPI DUP1 PUSH4 0xBFCC8B6D EQ PUSH2 0x1A0 JUMPI DUP1 PUSH4 0xC39CBEF1 EQ PUSH2 0x1DD JUMPI DUP1 PUSH4 0xE55AE4E8 EQ PUSH2 0x206 JUMPI PUSH2 0x86 JUMP JUMPDEST DUP1 PUSH4 0x501B79F EQ PUSH2 0x8B JUMPI DUP1 PUSH4 0x302BCC57 EQ PUSH2 0xB6 JUMPI DUP1 PUSH4 0x5226DC93 EQ PUSH2 0xE1 JUMPI DUP1 PUSH4 0x7A80B6B4 EQ PUSH2 0x10A JUMPI JUMPDEST PUSH1 0x0 DUP1 REVERT JUMPDEST CALLVALUE DUP1 ISZERO PUSH2 0x97 JUMPI PUSH1 0x0 DUP1 REVERT JUMPDEST POP PUSH2 0xA0 PUSH2 0x243 JUMP JUMPDEST PUSH1 0x40 MLOAD PUSH2 0xAD SWAP2 SWAP1 PUSH2 0x20AA JUMP JUMPDEST PUSH1 0x40 MLOAD DUP1 SWAP2 SUB SWAP1 RETURN JUMPDEST CALLVALUE DUP1 ISZERO PUSH2 0xC2 JUMPI PUSH1 0x0 DUP1 REVERT JUMPDEST POP PUSH2 0xCB PUSH2 0x24B JUMP JUMPDEST PUSH1 0x40 MLOAD PUSH2 0xD8 SWAP2 SWAP1 PUSH2 0x20AA JUMP JUMPDEST PUSH1 0x40 MLOAD DUP1 SWAP2 SUB SWAP1 RETURN JUMPDEST CALLVALUE DUP1 ISZERO PUSH2 0xED JUMPI PUSH1 0x0 DUP1 REVERT JUMPDEST POP PUSH2 0x108 PUSH1 0x4 DUP1 CALLDATASIZE SUB DUP2 ADD SWAP1 PUSH2 0x103 SWAP2 SWAP1 PUSH2 0x2105 JUMP JUMPDEST PUSH2 0x25A JUMP JUMPDEST STOP JUMPDEST CALLVALUE DUP1 ISZERO PUSH2 0x116 JUMPI PUSH1 0x0 DUP1 REVERT JUMPDEST POP PUSH2 0x131 PUSH1 0x4 DUP1 CALLDATASIZE SUB DUP2 ADD SWAP1 PUSH2 0x12C SWAP2 SWAP1 PUSH2 0x21A3 JUMP JUMPDEST PUSH2 0x296 JUMP JUMPDEST PUSH1 0x40 MLOAD PUSH2 0x13E SWAP2 SWAP1 PUSH2 0x228E JUMP JUMPDEST PUSH1 0x40 MLOAD DUP1 SWAP2 SUB SWAP1 RETURN JUMPDEST CALLVALUE DUP1 ISZERO PUSH2 0x153 JUMPI PUSH1 0x0 DUP1 REVERT JUMPDEST POP PUSH2 0x16E PUSH1 0x4 DUP1 CALLDATASIZE SUB DUP2 ADD SWAP1 PUSH2 0x169 SWAP2 SWAP1 PUSH2 0x23F6 JUMP JUMPDEST PUSH2 0x2A8 JUMP JUMPDEST PUSH1 0x40 MLOAD PUSH2 0x17B SWAP2 SWAP1 PUSH2 0x245A JUMP JUMPDEST PUSH1 0x40 MLOAD DUP1 SWAP2 SUB SWAP1 RETURN JUMPDEST PUSH2 0x19E PUSH1 0x4 DUP1 CALLDATASIZE SUB DUP2 ADD SWAP1 PUSH2 0x199 SWAP2 SWAP1 PUSH2 0x24A1 JUMP JUMPDEST PUSH2 0x2BA JUMP JUMPDEST STOP JUMPDEST CALLVALUE DUP1 ISZERO PUSH2 0x1AC JUMPI PUSH1 0x0 DUP1 REVERT JUMPDEST POP PUSH2 0x1C7 PUSH1 0x4 DUP1 CALLDATASIZE SUB DUP2 ADD SWAP1 PUSH2 0x1C2 SWAP2 SWAP1 PUSH2 0x2524 JUMP JUMPDEST PUSH2 0x418 JUMP JUMPDEST PUSH1 0x40 MLOAD PUSH2 0x1D4 SWAP2 SWAP1 PUSH2 0x2560 JUMP JUMPDEST PUSH1 0x40 MLOAD DUP1 SWAP2 SUB SWAP1 RETURN JUMPDEST CALLVALUE DUP1 ISZERO PUSH2 0x1E9 JUMPI PUSH1 0x0 DUP1 REVERT JUMPDEST POP PUSH2 0x204 PUSH1 0x4 DUP1 CALLDATASIZE SUB DUP2 ADD SWAP1 PUSH2 0x1FF SWAP2 SWAP1 PUSH2 0x257B JUMP JUMPDEST PUSH2 0x42A JUMP JUMPDEST STOP JUMPDEST CALLVALUE DUP1 ISZERO PUSH2 0x212 JUMPI PUSH1 0x0 DUP1 REVERT JUMPDEST POP PUSH2 0x22D PUSH1 0x4 DUP1 CALLDATASIZE SUB DUP2 ADD SWAP1 PUSH2 0x228 SWAP2 SWAP1 PUSH2 0x2524 JUMP JUMPDEST PUSH2 0x492 JUMP JUMPDEST PUSH1 0x40 MLOAD PUSH2 0x23A SWAP2 SWAP1 PUSH2 0x28A6 JUMP JUMPDEST PUSH1 0x40 MLOAD DUP1 SWAP2 SUB SWAP1 RETURN JUMPDEST PUSH1 0x0 TIMESTAMP SWAP1 POP SWAP1 JUMP JUMPDEST PUSH1 0x0 PUSH2 0x255 PUSH2 0x4AA JUMP JUMPDEST SWAP1 POP SWAP1 JUMP JUMPDEST PUSH2 0x264 DUP3 DUP3 PUSH2 0x4C2 JUMP JUMPDEST DUP1 DUP3 PUSH32 0x3B7CA85B5E3D1EBB3A81E8D9E27BFEB9EF2F447026C115421132A20B0733B73F PUSH1 0x40 MLOAD PUSH1 0x40 MLOAD DUP1 SWAP2 SUB SWAP1 LOG3 POP POP JUMP JUMPDEST PUSH1 0x60 PUSH2 0x2A1 DUP3 PUSH2 0x9BD JUMP JUMPDEST SWAP1 POP SWAP2 SWAP1 POP JUMP JUMPDEST PUSH1 0x0 PUSH2 0x2B3 DUP3 PUSH2 0xA63 JUMP JUMPDEST SWAP1 POP SWAP2 SWAP1 POP JUMP JUMPDEST PUSH1 0x0 PUSH7 0x38D7EA4C680000 SWAP1 POP DUP1 CALLVALUE LT ISZERO PUSH2 0x2D3 JUMPI PUSH1 0x0 DUP1 REVERT JUMPDEST PUSH1 0x0 PUSH20 0x8D8E680A2D295AF8CBCD8B8E07F900275BC6B8D SWAP1 POP PUSH1 0x0 DUP1 DUP3 PUSH20 0xFFFFFFFFFFFFFFFFFFFFFFFFFFFFFFFFFFFFFFFF AND CALLVALUE PUSH1 0x40 MLOAD PUSH2 0x313 SWAP1 PUSH2 0x28F9 JUMP JUMPDEST PUSH1 0x0 PUSH1 0x40 MLOAD DUP1 DUP4 SUB DUP2 DUP6 DUP8 GAS CALL SWAP3 POP POP POP RETURNDATASIZE DUP1 PUSH1 0x0 DUP2 EQ PUSH2 0x350 JUMPI PUSH1 0x40 MLOAD SWAP2 POP PUSH1 0x1F NOT PUSH1 0x3F RETURNDATASIZE ADD AND DUP3 ADD PUSH1 0x40 MSTORE RETURNDATASIZE DUP3 MSTORE RETURNDATASIZE PUSH1 0x0 PUSH1 0x20 DUP5 ADD RETURNDATACOPY PUSH2 0x355 JUMP JUMPDEST PUSH1 0x60 SWAP2 POP JUMPDEST POP SWAP2 POP SWAP2 POP DUP2 PUSH2 0x39A JUMPI PUSH1 0x40 MLOAD PUSH32 0x8C379A000000000000000000000000000000000000000000000000000000000 DUP2 MSTORE PUSH1 0x4 ADD PUSH2 0x391 SWAP1 PUSH2 0x296B JUMP JUMPDEST PUSH1 0x40 MLOAD DUP1 SWAP2 SUB SWAP1 REVERT JUMPDEST PUSH2 0x3A6 DUP9 DUP9 DUP9 DUP9 PUSH2 0xAA6 JUMP JUMPDEST PUSH1 0x0 PUSH2 0x3B0 PUSH2 0x24B JUMP JUMPDEST SWAP1 POP DUP6 PUSH20 0xFFFFFFFFFFFFFFFFFFFFFFFFFFFFFFFFFFFFFFFF AND DUP2 PUSH32 0xCB5AAB6C0BEC1E5513425DFAAD4ACFBCA112F8B0FFE1027BD614E3D98A3EE5D2 DUP12 DUP11 PUSH1 0x40 MLOAD PUSH2 0x3FB SWAP3 SWAP2 SWAP1 PUSH2 0x29C4 JUMP JUMPDEST PUSH1 0x40 MLOAD DUP1 SWAP2 SUB SWAP1 LOG3 PUSH2 0x40D DUP7 DUP3 PUSH2 0x14F7 JUMP JUMPDEST POP POP POP POP POP POP POP POP POP JUMP JUMPDEST PUSH1 0x0 PUSH2 0x423 DUP3 PUSH2 0x1515 JUMP JUMPDEST SWAP1 POP SWAP2 SWAP1 POP JUMP JUMPDEST PUSH2 0x434 DUP3 DUP3 PUSH2 0x1560 JUMP JUMPDEST DUP1 PUSH1 0x40 MLOAD PUSH2 0x442 SWAP2 SWAP1 PUSH2 0x2A30 JUMP JUMPDEST PUSH1 0x40 MLOAD DUP1 SWAP2 SUB SWAP1 KECCAK256 DUP3 CALLER PUSH20 0xFFFFFFFFFFFFFFFFFFFFFFFFFFFFFFFFFFFFFFFF AND PUSH32 0xE4CE50A62B6CBB7D19ACD75FD57F7E2588DD09705647D97993E2ECE872C305B2 PUSH1 0x40 MLOAD PUSH1 0x40 MLOAD DUP1 SWAP2 SUB SWAP1 LOG4 POP POP JUMP JUMPDEST PUSH2 0x49A PUSH2 0x1FB3 JUMP JUMPDEST PUSH2 0x4A3 DUP3 PUSH2 0x1814 JUMP JUMPDEST SWAP1 POP SWAP2 SWAP1 POP JUMP JUMPDEST PUSH1 0x0 DUP1 PUSH2 0x4B5 PUSH2 0x1A8A JUMP JUMPDEST SWAP1 POP DUP1 PUSH1 0x1 ADD SLOAD SWAP2 POP POP SWAP1 JUMP JUMPDEST PUSH1 0x0 PUSH2 0x4CC PUSH2 0x1A8A JUMP JUMPDEST SWAP1 POP PUSH1 0x0 DUP2 PUSH1 0x3 ADD PUSH1 0x0 DUP6 DUP2 MSTORE PUSH1 0x20 ADD SWAP1 DUP2 MSTORE PUSH1 0x20 ADD PUSH1 0x0 KECCAK256 PUSH1 0x40 MLOAD DUP1 PUSH2 0x280 ADD PUSH1 0x40 MSTORE SWAP1 DUP2 PUSH1 0x0 DUP3 ADD SLOAD DUP2 MSTORE PUSH1 0x20 ADD PUSH1 0x1 DUP3 ADD SLOAD DUP2 MSTORE PUSH1 0x20 ADD PUSH1 0x2 DUP3 ADD SLOAD DUP2 MSTORE PUSH1 0x20 ADD PUSH1 0x3 DUP3 ADD SLOAD DUP2 MSTORE PUSH1 0x20 ADD PUSH1 0x4 DUP3 ADD SLOAD DUP2 MSTORE PUSH1 0x20 ADD PUSH1 0x5 DUP3 ADD SLOAD DUP2 MSTORE PUSH1 0x20 ADD PUSH1 0x6 DUP3 ADD SLOAD DUP2 MSTORE PUSH1 0x20 ADD PUSH1 0x7 DUP3 ADD SLOAD DUP2 MSTORE PUSH1 0x20 ADD PUSH1 0x8 DUP3 ADD SLOAD DUP2 MSTORE PUSH1 0x20 ADD PUSH1 0x9 DUP3 ADD SLOAD DUP2 MSTORE PUSH1 0x20 ADD PUSH1 0xA DUP3 ADD SLOAD DUP2 MSTORE PUSH1 0x20 ADD PUSH1 0xB DUP3 ADD SLOAD DUP2 MSTORE PUSH1 0x20 ADD PUSH1 0xC DUP3 ADD SLOAD DUP2 MSTORE PUSH1 0x20 ADD PUSH1 0xD DUP3 ADD SLOAD DUP2 MSTORE PUSH1 0x20 ADD PUSH1 0xE DUP3 ADD SLOAD DUP2 MSTORE PUSH1 0x20 ADD PUSH1 0xF DUP3 ADD DUP1 SLOAD PUSH2 0x597 SWAP1 PUSH2 0x2A76 JUMP JUMPDEST DUP1 PUSH1 0x1F ADD PUSH1 0x20 DUP1 SWAP2 DIV MUL PUSH1 0x20 ADD PUSH1 0x40 MLOAD SWAP1 DUP2 ADD PUSH1 0x40 MSTORE DUP1 SWAP3 SWAP2 SWAP1 DUP2 DUP2 MSTORE PUSH1 0x20 ADD DUP3 DUP1 SLOAD PUSH2 0x5C3 SWAP1 PUSH2 0x2A76 JUMP JUMPDEST DUP1 ISZERO PUSH2 0x610 JUMPI DUP1 PUSH1 0x1F LT PUSH2 0x5E5 JUMPI PUSH2 0x100 DUP1 DUP4 SLOAD DIV MUL DUP4 MSTORE SWAP2 PUSH1 0x20 ADD SWAP2 PUSH2 0x610 JUMP JUMPDEST DUP3 ADD SWAP2 SWAP1 PUSH1 0x0 MSTORE PUSH1 0x20 PUSH1 0x0 KECCAK256 SWAP1 JUMPDEST DUP2 SLOAD DUP2 MSTORE SWAP1 PUSH1 0x1 ADD SWAP1 PUSH1 0x20 ADD DUP1 DUP4 GT PUSH2 0x5F3 JUMPI DUP3 SWAP1 SUB PUSH1 0x1F AND DUP3 ADD SWAP2 JUMPDEST POP POP POP POP POP DUP2 MSTORE PUSH1 0x20 ADD PUSH1 0x10 DUP3 ADD DUP1 SLOAD PUSH2 0x629 SWAP1 PUSH2 0x2A76 JUMP JUMPDEST DUP1 PUSH1 0x1F ADD PUSH1 0x20 DUP1 SWAP2 DIV MUL PUSH1 0x20 ADD PUSH1 0x40 MLOAD SWAP1 DUP2 ADD PUSH1 0x40 MSTORE DUP1 SWAP3 SWAP2 SWAP1 DUP2 DUP2 MSTORE PUSH1 0x20 ADD DUP3 DUP1 SLOAD PUSH2 0x655 SWAP1 PUSH2 0x2A76 JUMP JUMPDEST DUP1 ISZERO PUSH2 0x6A2 JUMPI DUP1 PUSH1 0x1F LT PUSH2 0x677 JUMPI PUSH2 0x100 DUP1 DUP4 SLOAD DIV MUL DUP4 MSTORE SWAP2 PUSH1 0x20 ADD SWAP2 PUSH2 0x6A2 JUMP JUMPDEST DUP3 ADD SWAP2 SWAP1 PUSH1 0x0 MSTORE PUSH1 0x20 PUSH1 0x0 KECCAK256 SWAP1 JUMPDEST DUP2 SLOAD DUP2 MSTORE SWAP1 PUSH1 0x1 ADD SWAP1 PUSH1 0x20 ADD DUP1 DUP4 GT PUSH2 0x685 JUMPI DUP3 SWAP1 SUB PUSH1 0x1F AND DUP3 ADD SWAP2 JUMPDEST POP POP POP POP POP DUP2 MSTORE PUSH1 0x20 ADD PUSH1 0x11 DUP3 ADD PUSH1 0x0 SWAP1 SLOAD SWAP1 PUSH2 0x100 EXP SWAP1 DIV PUSH1 0xFF AND ISZERO ISZERO ISZERO ISZERO DUP2 MSTORE PUSH1 0x20 ADD PUSH1 0x12 DUP3 ADD PUSH1 0x40 MLOAD DUP1 PUSH1 0xE0 ADD PUSH1 0x40 MSTORE SWAP1 DUP2 PUSH1 0x0 DUP3 ADD SLOAD DUP2 MSTORE PUSH1 0x20 ADD PUSH1 0x1 DUP3 ADD SLOAD DUP2 MSTORE PUSH1 0x20 ADD PUSH1 0x2 DUP3 ADD SLOAD DUP2 MSTORE PUSH1 0x20 ADD PUSH1 0x3 DUP3 ADD SLOAD DUP2 MSTORE PUSH1 0x20 ADD PUSH1 0x4 DUP3 ADD SLOAD DUP2 MSTORE PUSH1 0x20 ADD PUSH1 0x5 DUP3 ADD SLOAD DUP2 MSTORE PUSH1 0x20 ADD PUSH1 0x6 DUP3 ADD SLOAD DUP2 MSTORE POP POP DUP2 MSTORE PUSH1 0x20 ADD PUSH1 0x19 DUP3 ADD SLOAD DUP2 MSTORE POP POP SWAP1 POP PUSH1 0xA DUP2 PUSH1 0x0 ADD MLOAD PUSH2 0x73D SWAP2 SWAP1 PUSH2 0x2AD6 JUMP JUMPDEST DUP2 PUSH1 0x20 ADD MLOAD LT ISZERO PUSH2 0x74D JUMPI PUSH1 0x0 DUP1 REVERT JUMPDEST PUSH1 0x0 DUP4 SUB PUSH2 0x788 JUMPI DUP2 PUSH1 0x3 ADD PUSH1 0x0 DUP6 DUP2 MSTORE PUSH1 0x20 ADD SWAP1 DUP2 MSTORE PUSH1 0x20 ADD PUSH1 0x0 KECCAK256 PUSH1 0x3 ADD PUSH1 0x0 DUP2 SLOAD DUP1 SWAP3 SWAP2 SWAP1 PUSH2 0x77E SWAP1 PUSH2 0x2B18 JUMP JUMPDEST SWAP2 SWAP1 POP SSTORE POP PUSH2 0x918 JUMP JUMPDEST PUSH1 0x1 DUP4 SUB PUSH2 0x7C3 JUMPI DUP2 PUSH1 0x3 ADD PUSH1 0x0 DUP6 DUP2 MSTORE PUSH1 0x20 ADD SWAP1 DUP2 MSTORE PUSH1 0x20 ADD PUSH1 0x0 KECCAK256 PUSH1 0x4 ADD PUSH1 0x0 DUP2 SLOAD DUP1 SWAP3 SWAP2 SWAP1 PUSH2 0x7B9 SWAP1 PUSH2 0x2B18 JUMP JUMPDEST SWAP2 SWAP1 POP SSTORE POP PUSH2 0x917 JUMP JUMPDEST PUSH1 0x2 DUP4 SUB PUSH2 0x7FE JUMPI DUP2 PUSH1 0x3 ADD PUSH1 0x0 DUP6 DUP2 MSTORE PUSH1 0x20 ADD SWAP1 DUP2 MSTORE PUSH1 0x20 ADD PUSH1 0x0 KECCAK256 PUSH1 0x9 ADD PUSH1 0x0 DUP2 SLOAD DUP1 SWAP3 SWAP2 SWAP1 PUSH2 0x7F4 SWAP1 PUSH2 0x2B18 JUMP JUMPDEST SWAP2 SWAP1 POP SSTORE POP PUSH2 0x916 JUMP JUMPDEST PUSH1 0x3 DUP4 SUB PUSH2 0x839 JUMPI DUP2 PUSH1 0x3 ADD PUSH1 0x0 DUP6 DUP2 MSTORE PUSH1 0x20 ADD SWAP1 DUP2 MSTORE PUSH1 0x20 ADD PUSH1 0x0 KECCAK256 PUSH1 0x6 ADD PUSH1 0x0 DUP2 SLOAD DUP1 SWAP3 SWAP2 SWAP1 PUSH2 0x82F SWAP1 PUSH2 0x2B18 JUMP JUMPDEST SWAP2 SWAP1 POP SSTORE POP PUSH2 0x915 JUMP JUMPDEST PUSH1 0x4 DUP4 SUB PUSH2 0x874 JUMPI DUP2 PUSH1 0x3 ADD PUSH1 0x0 DUP6 DUP2 MSTORE PUSH1 0x20 ADD SWAP1 DUP2 MSTORE PUSH1 0x20 ADD PUSH1 0x0 KECCAK256 PUSH1 0xE ADD PUSH1 0x0 DUP2 SLOAD DUP1 SWAP3 SWAP2 SWAP1 PUSH2 0x86A SWAP1 PUSH2 0x2B18 JUMP JUMPDEST SWAP2 SWAP1 POP SSTORE POP PUSH2 0x914 JUMP JUMPDEST PUSH1 0x5 DUP4 SUB PUSH2 0x8AF JUMPI DUP2 PUSH1 0x3 ADD PUSH1 0x0 DUP6 DUP2 MSTORE PUSH1 0x20 ADD SWAP1 DUP2 MSTORE PUSH1 0x20 ADD PUSH1 0x0 KECCAK256 PUSH1 0xA ADD PUSH1 0x0 DUP2 SLOAD DUP1 SWAP3 SWAP2 SWAP1 PUSH2 0x8A5 SWAP1 PUSH2 0x2B18 JUMP JUMPDEST SWAP2 SWAP1 POP SSTORE POP PUSH2 0x913 JUMP JUMPDEST DUP2 PUSH1 0x3 ADD PUSH1 0x0 DUP6 DUP2 MSTORE PUSH1 0x20 ADD SWAP1 DUP2 MSTORE PUSH1 0x20 ADD PUSH1 0x0 KECCAK256 PUSH1 0x8 ADD PUSH1 0x0 DUP2 SLOAD DUP1 SWAP3 SWAP2 SWAP1 PUSH2 0x8D8 SWAP1 PUSH2 0x2B18 JUMP JUMPDEST SWAP2 SWAP1 POP SSTORE POP DUP2 PUSH1 0x3 ADD PUSH1 0x0 DUP6 DUP2 MSTORE PUSH1 0x20 ADD SWAP1 DUP2 MSTORE PUSH1 0x20 ADD PUSH1 0x0 KECCAK256 PUSH1 0x8 ADD SLOAD DUP3 PUSH1 0x3 ADD PUSH1 0x0 DUP7 DUP2 MSTORE PUSH1 0x20 ADD SWAP1 DUP2 MSTORE PUSH1 0x20 ADD PUSH1 0x0 KECCAK256 PUSH1 0x7 ADD DUP2 SWAP1 SSTORE POP JUMPDEST JUMPDEST JUMPDEST JUMPDEST JUMPDEST JUMPDEST DUP2 PUSH1 0x3 ADD PUSH1 0x0 DUP6 DUP2 MSTORE PUSH1 0x20 ADD SWAP1 DUP2 MSTORE PUSH1 0x20 ADD PUSH1 0x0 KECCAK256 PUSH1 0x4 ADD SLOAD DUP3 PUSH1 0x3 ADD PUSH1 0x0 DUP7 DUP2 MSTORE PUSH1 0x20 ADD SWAP1 DUP2 MSTORE PUSH1 0x20 ADD PUSH1 0x0 KECCAK256 PUSH1 0x5 ADD DUP2 SWAP1 SSTORE POP PUSH1 0xA DUP2 PUSH1 0x0 ADD MLOAD PUSH2 0x95E SWAP2 SWAP1 PUSH2 0x2AD6 JUMP JUMPDEST DUP2 PUSH1 0x20 ADD MLOAD PUSH2 0x96D SWAP2 SWAP1 PUSH2 0x2B60 JUMP JUMPDEST DUP3 PUSH1 0x3 ADD PUSH1 0x0 DUP7 DUP2 MSTORE PUSH1 0x20 ADD SWAP1 DUP2 MSTORE PUSH1 0x20 ADD PUSH1 0x0 KECCAK256 PUSH1 0x1 ADD DUP2 SWAP1 SSTORE POP DUP2 PUSH1 0x3 ADD PUSH1 0x0 DUP6 DUP2 MSTORE PUSH1 0x20 ADD SWAP1 DUP2 MSTORE PUSH1 0x20 ADD PUSH1 0x0 KECCAK256 PUSH1 0x0 ADD PUSH1 0x0 DUP2 SLOAD DUP1 SWAP3 SWAP2 SWAP1 PUSH2 0x9B2 SWAP1 PUSH2 0x2B18 JUMP JUMPDEST SWAP2 SWAP1 POP SSTORE POP POP POP POP POP JUMP JUMPDEST PUSH1 0x60 PUSH1 0x0 PUSH2 0x9C9 PUSH2 0x1A8A JUMP JUMPDEST SWAP1 POP DUP1 PUSH1 0x7 ADD PUSH1 0x0 DUP5 PUSH20 0xFFFFFFFFFFFFFFFFFFFFFFFFFFFFFFFFFFFFFFFF AND PUSH20 0xFFFFFFFFFFFFFFFFFFFFFFFFFFFFFFFFFFFFFFFF AND DUP2 MSTORE PUSH1 0x20 ADD SWAP1 DUP2 MSTORE PUSH1 0x20 ADD PUSH1 0x0 KECCAK256 DUP1 SLOAD DUP1 PUSH1 0x20 MUL PUSH1 0x20 ADD PUSH1 0x40 MLOAD SWAP1 DUP2 ADD PUSH1 0x40 MSTORE DUP1 SWAP3 SWAP2 SWAP1 DUP2 DUP2 MSTORE PUSH1 0x20 ADD DUP3 DUP1 SLOAD DUP1 ISZERO PUSH2 0xA56 JUMPI PUSH1 0x20 MUL DUP3 ADD SWAP2 SWAP1 PUSH1 0x0 MSTORE PUSH1 0x20 PUSH1 0x0 KECCAK256 SWAP1 JUMPDEST DUP2 SLOAD DUP2 MSTORE PUSH1 0x20 ADD SWAP1 PUSH1 0x1 ADD SWAP1 DUP1 DUP4 GT PUSH2 0xA42 JUMPI JUMPDEST POP POP POP POP POP SWAP2 POP POP SWAP2 SWAP1 POP JUMP JUMPDEST PUSH1 0x0 DUP1 PUSH2 0xA6E PUSH2 0x1A8A JUMP JUMPDEST SWAP1 POP DUP1 PUSH1 0x6 ADD DUP4 PUSH1 0x40 MLOAD PUSH2 0xA82 SWAP2 SWAP1 PUSH2 0x2A30 JUMP JUMPDEST SWAP1 DUP2 MSTORE PUSH1 0x20 ADD PUSH1 0x40 MLOAD DUP1 SWAP2 SUB SWAP1 KECCAK256 PUSH1 0x0 SWAP1 SLOAD SWAP1 PUSH2 0x100 EXP SWAP1 DIV PUSH1 0xFF AND SWAP2 POP POP SWAP2 SWAP1 POP JUMP JUMPDEST PUSH1 0x0 PUSH2 0xAB0 PUSH2 0x1A8A JUMP JUMPDEST SWAP1 POP PUSH2 0x1F40 DUP2 PUSH1 0x1 ADD SLOAD GT ISZERO PUSH2 0xAC5 JUMPI PUSH1 0x0 DUP1 REVERT JUMPDEST DUP1 PUSH1 0x6 ADD DUP6 PUSH1 0x40 MLOAD PUSH2 0xAD7 SWAP2 SWAP1 PUSH2 0x2A30 JUMP JUMPDEST SWAP1 DUP2 MSTORE PUSH1 0x20 ADD PUSH1 0x40 MLOAD DUP1 SWAP2 SUB SWAP1 KECCAK256 PUSH1 0x0 SWAP1 SLOAD SWAP1 PUSH2 0x100 EXP SWAP1 DIV PUSH1 0xFF AND ISZERO PUSH2 0xB33 JUMPI PUSH1 0x40 MLOAD PUSH32 0x8C379A000000000000000000000000000000000000000000000000000000000 DUP2 MSTORE PUSH1 0x4 ADD PUSH2 0xB2A SWAP1 PUSH2 0x2BE0 JUMP JUMPDEST PUSH1 0x40 MLOAD DUP1 SWAP2 SUB SWAP1 REVERT JUMPDEST PUSH1 0x2 DUP4 GT ISZERO PUSH2 0xB41 JUMPI PUSH1 0x0 DUP1 REVERT JUMPDEST PUSH1 0xA DUP6 MLOAD GT ISZERO PUSH2 0xB50 JUMPI PUSH1 0x0 DUP1 REVERT JUMPDEST PUSH1 0x3 DUP6 MLOAD LT ISZERO PUSH2 0xB5F JUMPI PUSH1 0x0 DUP1 REVERT JUMPDEST DUP1 PUSH1 0x1 ADD PUSH1 0x0 DUP2 SLOAD DUP1 SWAP3 SWAP2 SWAP1 PUSH2 0xB74 SWAP1 PUSH2 0x2B18 JUMP JUMPDEST SWAP2 SWAP1 POP SSTORE POP PUSH1 0x60 PUSH1 0x0 DUP5 SUB PUSH2 0xDFD JUMPI DUP5 PUSH2 0xBA9 JUMPI PUSH1 0x40 MLOAD DUP1 PUSH1 0x80 ADD PUSH1 0x40 MSTORE DUP1 PUSH1 0x43 DUP2 MSTORE PUSH1 0x20 ADD PUSH2 0x326D PUSH1 0x43 SWAP2 CODECOPY SWAP1 POP DUP1 PUSH2 0xBC6 JUMP JUMPDEST PUSH1 0x40 MLOAD DUP1 PUSH1 0x80 ADD PUSH1 0x40 MSTORE DUP1 PUSH1 0x43 DUP2 MSTORE PUSH1 0x20 ADD PUSH2 0x3336 PUSH1 0x43 SWAP2 CODECOPY SWAP1 POP DUP1 JUMPDEST POP PUSH1 0x40 MLOAD DUP1 PUSH2 0x280 ADD PUSH1 0x40 MSTORE DUP1 PUSH1 0x1 DUP2 MSTORE PUSH1 0x20 ADD PUSH1 0x0 DUP2 MSTORE PUSH1 0x20 ADD PUSH1 0x0 DUP2 MSTORE PUSH1 0x20 ADD PUSH1 0xB DUP2 MSTORE PUSH1 0x20 ADD PUSH1 0xC DUP2 MSTORE PUSH1 0x20 ADD PUSH1 0xC DUP2 MSTORE PUSH1 0x20 ADD PUSH1 0xA DUP2 MSTORE PUSH1 0x20 ADD PUSH1 0xA DUP2 MSTORE PUSH1 0x20 ADD PUSH1 0xA DUP2 MSTORE PUSH1 0x20 ADD PUSH1 0xA DUP2 MSTORE PUSH1 0x20 ADD PUSH1 0x1 DUP2 MSTORE PUSH1 0x20 ADD PUSH1 0x1 DUP2 MSTORE PUSH1 0x20 ADD PUSH1 0x1 DUP2 MSTORE PUSH1 0x20 ADD PUSH1 0x1 DUP2 MSTORE PUSH1 0x20 ADD PUSH1 0xB DUP2 MSTORE PUSH1 0x20 ADD DUP8 DUP2 MSTORE PUSH1 0x20 ADD DUP3 DUP2 MSTORE PUSH1 0x20 ADD DUP7 ISZERO ISZERO DUP2 MSTORE PUSH1 0x20 ADD PUSH1 0x40 MLOAD DUP1 PUSH1 0xE0 ADD PUSH1 0x40 MSTORE DUP1 PUSH1 0x0 DUP2 MSTORE PUSH1 0x20 ADD PUSH1 0x0 DUP2 MSTORE PUSH1 0x20 ADD PUSH1 0x0 DUP2 MSTORE PUSH1 0x20 ADD PUSH1 0x0 DUP2 MSTORE PUSH1 0x20 ADD PUSH1 0x0 DUP2 MSTORE PUSH1 0x20 ADD PUSH1 0x0 DUP2 MSTORE PUSH1 0x20 ADD PUSH1 0x0 DUP2 MSTORE POP DUP2 MSTORE PUSH1 0x20 ADD DUP6 DUP2 MSTORE POP DUP3 PUSH1 0x3 ADD PUSH1 0x0 DUP5 PUSH1 0x1 ADD SLOAD DUP2 MSTORE PUSH1 0x20 ADD SWAP1 DUP2 MSTORE PUSH1 0x20 ADD PUSH1 0x0 KECCAK256 PUSH1 0x0 DUP3 ADD MLOAD DUP2 PUSH1 0x0 ADD SSTORE PUSH1 0x20 DUP3 ADD MLOAD DUP2 PUSH1 0x1 ADD SSTORE PUSH1 0x40 DUP3 ADD MLOAD DUP2 PUSH1 0x2 ADD SSTORE PUSH1 0x60 DUP3 ADD MLOAD DUP2 PUSH1 0x3 ADD SSTORE PUSH1 0x80 DUP3 ADD MLOAD DUP2 PUSH1 0x4 ADD SSTORE PUSH1 0xA0 DUP3 ADD MLOAD DUP2 PUSH1 0x5 ADD SSTORE PUSH1 0xC0 DUP3 ADD MLOAD DUP2 PUSH1 0x6 ADD SSTORE PUSH1 0xE0 DUP3 ADD MLOAD DUP2 PUSH1 0x7 ADD SSTORE PUSH2 0x100 DUP3 ADD MLOAD DUP2 PUSH1 0x8 ADD SSTORE PUSH2 0x120 DUP3 ADD MLOAD DUP2 PUSH1 0x9 ADD SSTORE PUSH2 0x140 DUP3 ADD MLOAD DUP2 PUSH1 0xA ADD SSTORE PUSH2 0x160 DUP3 ADD MLOAD DUP2 PUSH1 0xB ADD SSTORE PUSH2 0x180 DUP3 ADD MLOAD DUP2 PUSH1 0xC ADD SSTORE PUSH2 0x1A0 DUP3 ADD MLOAD DUP2 PUSH1 0xD ADD SSTORE PUSH2 0x1C0 DUP3 ADD MLOAD DUP2 PUSH1 0xE ADD SSTORE PUSH2 0x1E0 DUP3 ADD MLOAD DUP2 PUSH1 0xF ADD SWAP1 DUP2 PUSH2 0xD5F SWAP2 SWAP1 PUSH2 0x2DAC JUMP JUMPDEST POP PUSH2 0x200 DUP3 ADD MLOAD DUP2 PUSH1 0x10 ADD SWAP1 DUP2 PUSH2 0xD76 SWAP2 SWAP1 PUSH2 0x2DAC JUMP JUMPDEST POP PUSH2 0x220 DUP3 ADD MLOAD DUP2 PUSH1 0x11 ADD PUSH1 0x0 PUSH2 0x100 EXP DUP2 SLOAD DUP2 PUSH1 0xFF MUL NOT AND SWAP1 DUP4 ISZERO ISZERO MUL OR SWAP1 SSTORE POP PUSH2 0x240 DUP3 ADD MLOAD DUP2 PUSH1 0x12 ADD PUSH1 0x0 DUP3 ADD MLOAD DUP2 PUSH1 0x0 ADD SSTORE PUSH1 0x20 DUP3 ADD MLOAD DUP2 PUSH1 0x1 ADD SSTORE PUSH1 0x40 DUP3 ADD MLOAD DUP2 PUSH1 0x2 ADD SSTORE PUSH1 0x60 DUP3 ADD MLOAD DUP2 PUSH1 0x3 ADD SSTORE PUSH1 0x80 DUP3 ADD MLOAD DUP2 PUSH1 0x4 ADD SSTORE PUSH1 0xA0 DUP3 ADD MLOAD DUP2 PUSH1 0x5 ADD SSTORE PUSH1 0xC0 DUP3 ADD MLOAD DUP2 PUSH1 0x6 ADD SSTORE POP POP PUSH2 0x260 DUP3 ADD MLOAD DUP2 PUSH1 0x19 ADD SSTORE SWAP1 POP POP PUSH2 0x12FF JUMP JUMPDEST PUSH1 0x1 DUP5 SUB PUSH2 0x107F JUMPI DUP5 PUSH2 0xE2B JUMPI PUSH1 0x40 MLOAD DUP1 PUSH1 0x80 ADD PUSH1 0x40 MSTORE DUP1 PUSH1 0x43 DUP2 MSTORE PUSH1 0x20 ADD PUSH2 0x32F3 PUSH1 0x43 SWAP2 CODECOPY SWAP1 POP DUP1 PUSH2 0xE48 JUMP JUMPDEST PUSH1 0x40 MLOAD DUP1 PUSH1 0x80 ADD PUSH1 0x40 MSTORE DUP1 PUSH1 0x43 DUP2 MSTORE PUSH1 0x20 ADD PUSH2 0x32B0 PUSH1 0x43 SWAP2 CODECOPY SWAP1 POP DUP1 JUMPDEST POP PUSH1 0x40 MLOAD DUP1 PUSH2 0x280 ADD PUSH1 0x40 MSTORE DUP1 PUSH1 0x1 DUP2 MSTORE PUSH1 0x20 ADD PUSH1 0x0 DUP2 MSTORE PUSH1 0x20 ADD PUSH1 0x0 DUP2 MSTORE PUSH1 0x20 ADD PUSH1 0xB DUP2 MSTORE PUSH1 0x20 ADD PUSH1 0xB DUP2 MSTORE PUSH1 0x20 ADD PUSH1 0xB DUP2 MSTORE PUSH1 0x20 ADD PUSH1 0xA DUP2 MSTORE PUSH1 0x20 ADD PUSH1 0xA DUP2 MSTORE PUSH1 0x20 ADD PUSH1 0xA DUP2 MSTORE PUSH1 0x20 ADD PUSH1 0xC DUP2 MSTORE PUSH1 0x20 ADD PUSH1 0x1 DUP2 MSTORE PUSH1 0x20 ADD PUSH1 0x1 DUP2 MSTORE PUSH1 0x20 ADD PUSH1 0x1 DUP2 MSTORE PUSH1 0x20 ADD PUSH1 0x1 DUP2 MSTORE PUSH1 0x20 ADD PUSH1 0xA DUP2 MSTORE PUSH1 0x20 ADD DUP8 DUP2 MSTORE PUSH1 0x20 ADD DUP3 DUP2 MSTORE PUSH1 0x20 ADD DUP7 ISZERO ISZERO DUP2 MSTORE PUSH1 0x20 ADD PUSH1 0x40 MLOAD DUP1 PUSH1 0xE0 ADD PUSH1 0x40 MSTORE DUP1 PUSH1 0x0 DUP2 MSTORE PUSH1 0x20 ADD PUSH1 0x0 DUP2 MSTORE PUSH1 0x20 ADD PUSH1 0x0 DUP2 MSTORE PUSH1 0x20 ADD PUSH1 0x0 DUP2 MSTORE PUSH1 0x20 ADD PUSH1 0x0 DUP2 MSTORE PUSH1 0x20 ADD PUSH1 0x0 DUP2 MSTORE PUSH1 0x20 ADD PUSH1 0x0 DUP2 MSTORE POP DUP2 MSTORE PUSH1 0x20 ADD DUP6 DUP2 MSTORE POP DUP3 PUSH1 0x3 ADD PUSH1 0x0 DUP5 PUSH1 0x1 ADD SLOAD DUP2 MSTORE PUSH1 0x20 ADD SWAP1 DUP2 MSTORE PUSH1 0x20 ADD PUSH1 0x0 KECCAK256 PUSH1 0x0 DUP3 ADD MLOAD DUP2 PUSH1 0x0 ADD SSTORE PUSH1 0x20 DUP3 ADD MLOAD DUP2 PUSH1 0x1 ADD SSTORE PUSH1 0x40 DUP3 ADD MLOAD DUP2 PUSH1 0x2 ADD SSTORE PUSH1 0x60 DUP3 ADD MLOAD DUP2 PUSH1 0x3 ADD SSTORE PUSH1 0x80 DUP3 ADD MLOAD DUP2 PUSH1 0x4 ADD SSTORE PUSH1 0xA0 DUP3 ADD MLOAD DUP2 PUSH1 0x5 ADD SSTORE PUSH1 0xC0 DUP3 ADD MLOAD DUP2 PUSH1 0x6 ADD SSTORE PUSH1 0xE0 DUP3 ADD MLOAD DUP2 PUSH1 0x7 ADD SSTORE PUSH2 0x100 DUP3 ADD MLOAD DUP2 PUSH1 0x8 ADD SSTORE PUSH2 0x120 DUP3 ADD MLOAD DUP2 PUSH1 0x9 ADD SSTORE PUSH2 0x140 DUP3 ADD MLOAD DUP2 PUSH1 0xA ADD SSTORE PUSH2 0x160 DUP3 ADD MLOAD DUP2 PUSH1 0xB ADD SSTORE PUSH2 0x180 DUP3 ADD MLOAD DUP2 PUSH1 0xC ADD SSTORE PUSH2 0x1A0 DUP3 ADD MLOAD DUP2 PUSH1 0xD ADD SSTORE PUSH2 0x1C0 DUP3 ADD MLOAD DUP2 PUSH1 0xE ADD SSTORE PUSH2 0x1E0 DUP3 ADD MLOAD DUP2 PUSH1 0xF ADD SWAP1 DUP2 PUSH2 0xFE1 SWAP2 SWAP1 PUSH2 0x2DAC JUMP JUMPDEST POP PUSH2 0x200 DUP3 ADD MLOAD DUP2 PUSH1 0x10 ADD SWAP1 DUP2 PUSH2 0xFF8 SWAP2 SWAP1 PUSH2 0x2DAC JUMP JUMPDEST POP PUSH2 0x220 DUP3 ADD MLOAD DUP2 PUSH1 0x11 ADD PUSH1 0x0 PUSH2 0x100 EXP DUP2 SLOAD DUP2 PUSH1 0xFF MUL NOT AND SWAP1 DUP4 ISZERO ISZERO MUL OR SWAP1 SSTORE POP PUSH2 0x240 DUP3 ADD MLOAD DUP2 PUSH1 0x12 ADD PUSH1 0x0 DUP3 ADD MLOAD DUP2 PUSH1 0x0 ADD SSTORE PUSH1 0x20 DUP3 ADD MLOAD DUP2 PUSH1 0x1 ADD SSTORE PUSH1 0x40 DUP3 ADD MLOAD DUP2 PUSH1 0x2 ADD SSTORE PUSH1 0x60 DUP3 ADD MLOAD DUP2 PUSH1 0x3 ADD SSTORE PUSH1 0x80 DUP3 ADD MLOAD DUP2 PUSH1 0x4 ADD SSTORE PUSH1 0xA0 DUP3 ADD MLOAD DUP2 PUSH1 0x5 ADD SSTORE PUSH1 0xC0 DUP3 ADD MLOAD DUP2 PUSH1 0x6 ADD SSTORE POP POP PUSH2 0x260 DUP3 ADD MLOAD DUP2 PUSH1 0x19 ADD SSTORE SWAP1 POP POP PUSH2 0x12FE JUMP JUMPDEST PUSH1 0x2 DUP5 SUB PUSH2 0x12FD JUMPI DUP5 PUSH2 0x10AD JUMPI PUSH1 0x40 MLOAD DUP1 PUSH1 0x80 ADD PUSH1 0x40 MSTORE DUP1 PUSH1 0x43 DUP2 MSTORE PUSH1 0x20 ADD PUSH2 0x322A PUSH1 0x43 SWAP2 CODECOPY SWAP1 POP DUP1 PUSH2 0x10CA JUMP JUMPDEST PUSH1 0x40 MLOAD DUP1 PUSH1 0x80 ADD PUSH1 0x40 MSTORE DUP1 PUSH1 0x43 DUP2 MSTORE PUSH1 0x20 ADD PUSH2 0x31E7 PUSH1 0x43 SWAP2 CODECOPY SWAP1 POP DUP1 JUMPDEST POP PUSH1 0x40 MLOAD DUP1 PUSH2 0x280 ADD PUSH1 0x40 MSTORE DUP1 PUSH1 0x1 DUP2 MSTORE PUSH1 0x20 ADD PUSH1 0x0 DUP2 MSTORE PUSH1 0x20 ADD PUSH1 0x0 DUP2 MSTORE PUSH1 0x20 ADD PUSH1 0xA DUP2 MSTORE PUSH1 0x20 ADD PUSH1 0xA DUP2 MSTORE PUSH1 0x20 ADD PUSH1 0xA DUP2 MSTORE PUSH1 0x20 ADD PUSH1 0xC DUP2 MSTORE PUSH1 0x20 ADD PUSH1 0xC DUP2 MSTORE PUSH1 0x20 ADD PUSH1 0xC DUP2 MSTORE PUSH1 0x20 ADD PUSH1 0xA DUP2 MSTORE PUSH1 0x20 ADD PUSH1 0x1 DUP2 MSTORE PUSH1 0x20 ADD PUSH1 0x1 DUP2 MSTORE PUSH1 0x20 ADD PUSH1 0x1 DUP2 MSTORE PUSH1 0x20 ADD PUSH1 0x1 DUP2 MSTORE PUSH1 0x20 ADD PUSH1 0xA DUP2 MSTORE PUSH1 0x20 ADD DUP8 DUP2 MSTORE PUSH1 0x20 ADD DUP3 DUP2 MSTORE PUSH1 0x20 ADD DUP7 ISZERO ISZERO DUP2 MSTORE PUSH1 0x20 ADD PUSH1 0x40 MLOAD DUP1 PUSH1 0xE0 ADD PUSH1 0x40 MSTORE DUP1 PUSH1 0x0 DUP2 MSTORE PUSH1 0x20 ADD PUSH1 0x0 DUP2 MSTORE PUSH1 0x20 ADD PUSH1 0x0 DUP2 MSTORE PUSH1 0x20 ADD PUSH1 0x0 DUP2 MSTORE PUSH1 0x20 ADD PUSH1 0x0 DUP2 MSTORE PUSH1 0x20 ADD PUSH1 0x0 DUP2 MSTORE PUSH1 0x20 ADD PUSH1 0x0 DUP2 MSTORE POP DUP2 MSTORE PUSH1 0x20 ADD DUP6 DUP2 MSTORE POP DUP3 PUSH1 0x3 ADD PUSH1 0x0 DUP5 PUSH1 0x1 ADD SLOAD DUP2 MSTORE PUSH1 0x20 ADD SWAP1 DUP2 MSTORE PUSH1 0x20 ADD PUSH1 0x0 KECCAK256 PUSH1 0x0 DUP3 ADD MLOAD DUP2 PUSH1 0x0 ADD SSTORE PUSH1 0x20 DUP3 ADD MLOAD DUP2 PUSH1 0x1 ADD SSTORE PUSH1 0x40 DUP3 ADD MLOAD DUP2 PUSH1 0x2 ADD SSTORE PUSH1 0x60 DUP3 ADD MLOAD DUP2 PUSH1 0x3 ADD SSTORE PUSH1 0x80 DUP3 ADD MLOAD DUP2 PUSH1 0x4 ADD SSTORE PUSH1 0xA0 DUP3 ADD MLOAD DUP2 PUSH1 0x5 ADD SSTORE PUSH1 0xC0 DUP3 ADD MLOAD DUP2 PUSH1 0x6 ADD SSTORE PUSH1 0xE0 DUP3 ADD MLOAD DUP2 PUSH1 0x7 ADD SSTORE PUSH2 0x100 DUP3 ADD MLOAD DUP2 PUSH1 0x8 ADD SSTORE PUSH2 0x120 DUP3 ADD MLOAD DUP2 PUSH1 0x9 ADD SSTORE PUSH2 0x140 DUP3 ADD MLOAD DUP2 PUSH1 0xA ADD SSTORE PUSH2 0x160 DUP3 ADD MLOAD DUP2 PUSH1 0xB ADD SSTORE PUSH2 0x180 DUP3 ADD MLOAD DUP2 PUSH1 0xC ADD SSTORE PUSH2 0x1A0 DUP3 ADD MLOAD DUP2 PUSH1 0xD ADD SSTORE PUSH2 0x1C0 DUP3 ADD MLOAD DUP2 PUSH1 0xE ADD SSTORE PUSH2 0x1E0 DUP3 ADD MLOAD DUP2 PUSH1 0xF ADD SWAP1 DUP2 PUSH2 0x1263 SWAP2 SWAP1 PUSH2 0x2DAC JUMP JUMPDEST POP PUSH2 0x200 DUP3 ADD MLOAD DUP2 PUSH1 0x10 ADD SWAP1 DUP2 PUSH2 0x127A SWAP2 SWAP1 PUSH2 0x2DAC JUMP JUMPDEST POP PUSH2 0x220 DUP3 ADD MLOAD DUP2 PUSH1 0x11 ADD PUSH1 0x0 PUSH2 0x100 EXP DUP2 SLOAD DUP2 PUSH1 0xFF MUL NOT AND SWAP1 DUP4 ISZERO ISZERO MUL OR SWAP1 SSTORE POP PUSH2 0x240 DUP3 ADD MLOAD DUP2 PUSH1 0x12 ADD PUSH1 0x0 DUP3 ADD MLOAD DUP2 PUSH1 0x0 ADD SSTORE PUSH1 0x20 DUP3 ADD MLOAD DUP2 PUSH1 0x1 ADD SSTORE PUSH1 0x40 DUP3 ADD MLOAD DUP2 PUSH1 0x2 ADD SSTORE PUSH1 0x60 DUP3 ADD MLOAD DUP2 PUSH1 0x3 ADD SSTORE PUSH1 0x80 DUP3 ADD MLOAD DUP2 PUSH1 0x4 ADD SSTORE PUSH1 0xA0 DUP3 ADD MLOAD DUP2 PUSH1 0x5 ADD SSTORE PUSH1 0xC0 DUP3 ADD MLOAD DUP2 PUSH1 0x6 ADD SSTORE POP POP PUSH2 0x260 DUP3 ADD MLOAD DUP2 PUSH1 0x19 ADD SSTORE SWAP1 POP POP JUMPDEST JUMPDEST JUMPDEST PUSH1 0x40 MLOAD DUP1 PUSH1 0xE0 ADD PUSH1 0x40 MSTORE DUP1 PUSH1 0x0 DUP2 MSTORE PUSH1 0x20 ADD PUSH1 0x0 DUP2 MSTORE PUSH1 0x20 ADD PUSH1 0x0 DUP2 MSTORE PUSH1 0x20 ADD PUSH1 0x0 DUP2 MSTORE PUSH1 0x20 ADD PUSH1 0x0 DUP2 MSTORE PUSH1 0x20 ADD PUSH1 0x0 DUP2 MSTORE PUSH1 0x20 ADD PUSH1 0x0 DUP2 MSTORE POP DUP3 PUSH1 0x8 ADD PUSH1 0x0 DUP5 PUSH1 0x1 ADD SLOAD DUP2 MSTORE PUSH1 0x20 ADD SWAP1 DUP2 MSTORE PUSH1 0x20 ADD PUSH1 0x0 KECCAK256 PUSH1 0x0 DUP3 ADD MLOAD DUP2 PUSH1 0x0 ADD SSTORE PUSH1 0x20 DUP3 ADD MLOAD DUP2 PUSH1 0x1 ADD SSTORE PUSH1 0x40 DUP3 ADD MLOAD DUP2 PUSH1 0x2 ADD SSTORE PUSH1 0x60 DUP3 ADD MLOAD DUP2 PUSH1 0x3 ADD SSTORE PUSH1 0x80 DUP3 ADD MLOAD DUP2 PUSH1 0x4 ADD SSTORE PUSH1 0xA0 DUP3 ADD MLOAD DUP2 PUSH1 0x5 ADD SSTORE PUSH1 0xC0 DUP3 ADD MLOAD DUP2 PUSH1 0x6 ADD SSTORE SWAP1 POP POP PUSH1 0x1 DUP3 PUSH1 0x6 ADD DUP8 PUSH1 0x40 MLOAD PUSH2 0x13AF SWAP2 SWAP1 PUSH2 0x2A30 JUMP JUMPDEST SWAP1 DUP2 MSTORE PUSH1 0x20 ADD PUSH1 0x40 MLOAD DUP1 SWAP2 SUB SWAP1 KECCAK256 PUSH1 0x0 PUSH2 0x100 EXP DUP2 SLOAD DUP2 PUSH1 0xFF MUL NOT AND SWAP1 DUP4 ISZERO ISZERO MUL OR SWAP1 SSTORE POP DUP3 DUP3 PUSH1 0x2 ADD PUSH1 0x0 DUP5 PUSH1 0x1 ADD SLOAD DUP2 MSTORE PUSH1 0x20 ADD SWAP1 DUP2 MSTORE PUSH1 0x20 ADD PUSH1 0x0 KECCAK256 PUSH1 0x0 PUSH2 0x100 EXP DUP2 SLOAD DUP2 PUSH20 0xFFFFFFFFFFFFFFFFFFFFFFFFFFFFFFFFFFFFFFFF MUL NOT AND SWAP1 DUP4 PUSH20 0xFFFFFFFFFFFFFFFFFFFFFFFFFFFFFFFFFFFFFFFF AND MUL OR SWAP1 SSTORE POP DUP2 PUSH1 0x7 ADD PUSH1 0x0 DUP5 PUSH20 0xFFFFFFFFFFFFFFFFFFFFFFFFFFFFFFFFFFFFFFFF AND PUSH20 0xFFFFFFFFFFFFFFFFFFFFFFFFFFFFFFFFFFFFFFFF AND DUP2 MSTORE PUSH1 0x20 ADD SWAP1 DUP2 MSTORE PUSH1 0x20 ADD PUSH1 0x0 KECCAK256 DUP3 PUSH1 0x1 ADD SLOAD SWAP1 DUP1 PUSH1 0x1 DUP2 SLOAD ADD DUP1 DUP3 SSTORE DUP1 SWAP2 POP POP PUSH1 0x1 SWAP1 SUB SWAP1 PUSH1 0x0 MSTORE PUSH1 0x20 PUSH1 0x0 KECCAK256 ADD PUSH1 0x0 SWAP1 SWAP2 SWAP1 SWAP2 SWAP1 SWAP2 POP SSTORE DUP2 PUSH1 0x4 ADD PUSH1 0x0 DUP5 PUSH20 0xFFFFFFFFFFFFFFFFFFFFFFFFFFFFFFFFFFFFFFFF AND PUSH20 0xFFFFFFFFFFFFFFFFFFFFFFFFFFFFFFFFFFFFFFFF AND DUP2 MSTORE PUSH1 0x20 ADD SWAP1 DUP2 MSTORE PUSH1 0x20 ADD PUSH1 0x0 KECCAK256 PUSH1 0x0 DUP2 SLOAD DUP1 SWAP3 SWAP2 SWAP1 PUSH2 0x14EA SWAP1 PUSH2 0x2B18 JUMP JUMPDEST SWAP2 SWAP1 POP SSTORE POP POP POP POP POP POP POP JUMP JUMPDEST PUSH2 0x1511 DUP3 DUP3 PUSH1 0x40 MLOAD DUP1 PUSH1 0x20 ADD PUSH1 0x40 MSTORE DUP1 PUSH1 0x0 DUP2 MSTORE POP PUSH2 0x1AB7 JUMP JUMPDEST POP POP JUMP JUMPDEST PUSH1 0x0 DUP1 PUSH2 0x1520 PUSH2 0x1A8A JUMP JUMPDEST SWAP1 POP DUP1 PUSH1 0x2 ADD PUSH1 0x0 DUP5 DUP2 MSTORE PUSH1 0x20 ADD SWAP1 DUP2 MSTORE PUSH1 0x20 ADD PUSH1 0x0 KECCAK256 PUSH1 0x0 SWAP1 SLOAD SWAP1 PUSH2 0x100 EXP SWAP1 DIV PUSH20 0xFFFFFFFFFFFFFFFFFFFFFFFFFFFFFFFFFFFFFFFF AND SWAP2 POP POP SWAP2 SWAP1 POP JUMP JUMPDEST PUSH1 0x0 PUSH2 0x156A PUSH2 0x1A8A JUMP JUMPDEST SWAP1 POP CALLER PUSH20 0xFFFFFFFFFFFFFFFFFFFFFFFFFFFFFFFFFFFFFFFF AND DUP2 PUSH1 0x2 ADD PUSH1 0x0 DUP6 DUP2 MSTORE PUSH1 0x20 ADD SWAP1 DUP2 MSTORE PUSH1 0x20 ADD PUSH1 0x0 KECCAK256 PUSH1 0x0 SWAP1 SLOAD SWAP1 PUSH2 0x100 EXP SWAP1 DIV PUSH20 0xFFFFFFFFFFFFFFFFFFFFFFFFFFFFFFFFFFFFFFFF AND PUSH20 0xFFFFFFFFFFFFFFFFFFFFFFFFFFFFFFFFFFFFFFFF AND EQ PUSH2 0x15D9 JUMPI PUSH1 0x0 DUP1 REVERT JUMPDEST DUP1 PUSH1 0x6 ADD DUP3 PUSH1 0x40 MLOAD PUSH2 0x15EB SWAP2 SWAP1 PUSH2 0x2A30 JUMP JUMPDEST SWAP1 DUP2 MSTORE PUSH1 0x20 ADD PUSH1 0x40 MLOAD DUP1 SWAP2 SUB SWAP1 KECCAK256 PUSH1 0x0 SWAP1 SLOAD SWAP1 PUSH2 0x100 EXP SWAP1 DIV PUSH1 0xFF AND ISZERO PUSH2 0x1647 JUMPI PUSH1 0x40 MLOAD PUSH32 0x8C379A000000000000000000000000000000000000000000000000000000000 DUP2 MSTORE PUSH1 0x4 ADD PUSH2 0x163E SWAP1 PUSH2 0x2BE0 JUMP JUMPDEST PUSH1 0x40 MLOAD DUP1 SWAP2 SUB SWAP1 REVERT JUMPDEST PUSH1 0x3 DUP3 MLOAD GT PUSH2 0x168B JUMPI PUSH1 0x40 MLOAD PUSH32 0x8C379A000000000000000000000000000000000000000000000000000000000 DUP2 MSTORE PUSH1 0x4 ADD PUSH2 0x1682 SWAP1 PUSH2 0x2ECA JUMP JUMPDEST PUSH1 0x40 MLOAD DUP1 SWAP2 SUB SWAP1 REVERT JUMPDEST PUSH1 0xA DUP3 MLOAD LT PUSH2 0x16CF JUMPI PUSH1 0x40 MLOAD PUSH32 0x8C379A000000000000000000000000000000000000000000000000000000000 DUP2 MSTORE PUSH1 0x4 ADD PUSH2 0x16C6 SWAP1 PUSH2 0x2F36 JUMP JUMPDEST PUSH1 0x40 MLOAD DUP1 SWAP2 SUB SWAP1 REVERT JUMPDEST PUSH1 0x0 DUP2 PUSH1 0x3 ADD PUSH1 0x0 DUP6 DUP2 MSTORE PUSH1 0x20 ADD SWAP1 DUP2 MSTORE PUSH1 0x20 ADD PUSH1 0x0 KECCAK256 PUSH1 0xF ADD DUP1 SLOAD PUSH2 0x16F4 SWAP1 PUSH2 0x2A76 JUMP JUMPDEST DUP1 PUSH1 0x1F ADD PUSH1 0x20 DUP1 SWAP2 DIV MUL PUSH1 0x20 ADD PUSH1 0x40 MLOAD SWAP1 DUP2 ADD PUSH1 0x40 MSTORE DUP1 SWAP3 SWAP2 SWAP1 DUP2 DUP2 MSTORE PUSH1 0x20 ADD DUP3 DUP1 SLOAD PUSH2 0x1720 SWAP1 PUSH2 0x2A76 JUMP JUMPDEST DUP1 ISZERO PUSH2 0x176D JUMPI DUP1 PUSH1 0x1F LT PUSH2 0x1742 JUMPI PUSH2 0x100 DUP1 DUP4 SLOAD DIV MUL DUP4 MSTORE SWAP2 PUSH1 0x20 ADD SWAP2 PUSH2 0x176D JUMP JUMPDEST DUP3 ADD SWAP2 SWAP1 PUSH1 0x0 MSTORE PUSH1 0x20 PUSH1 0x0 KECCAK256 SWAP1 JUMPDEST DUP2 SLOAD DUP2 MSTORE SWAP1 PUSH1 0x1 ADD SWAP1 PUSH1 0x20 ADD DUP1 DUP4 GT PUSH2 0x1750 JUMPI DUP3 SWAP1 SUB PUSH1 0x1F AND DUP3 ADD SWAP2 JUMPDEST POP POP POP POP POP SWAP1 POP PUSH1 0x0 DUP2 MLOAD GT ISZERO PUSH2 0x17AF JUMPI DUP2 PUSH1 0x6 ADD DUP2 PUSH1 0x40 MLOAD PUSH2 0x1790 SWAP2 SWAP1 PUSH2 0x2A30 JUMP JUMPDEST SWAP1 DUP2 MSTORE PUSH1 0x20 ADD PUSH1 0x40 MLOAD DUP1 SWAP2 SUB SWAP1 KECCAK256 PUSH1 0x0 PUSH2 0x100 EXP DUP2 SLOAD SWAP1 PUSH1 0xFF MUL NOT AND SWAP1 SSTORE JUMPDEST DUP3 DUP3 PUSH1 0x3 ADD PUSH1 0x0 DUP7 DUP2 MSTORE PUSH1 0x20 ADD SWAP1 DUP2 MSTORE PUSH1 0x20 ADD PUSH1 0x0 KECCAK256 PUSH1 0xF ADD SWAP1 DUP2 PUSH2 0x17D4 SWAP2 SWAP1 PUSH2 0x2DAC JUMP JUMPDEST POP PUSH1 0x1 DUP3 PUSH1 0x6 ADD DUP5 PUSH1 0x40 MLOAD PUSH2 0x17E9 SWAP2 SWAP1 PUSH2 0x2A30 JUMP JUMPDEST SWAP1 DUP2 MSTORE PUSH1 0x20 ADD PUSH1 0x40 MLOAD DUP1 SWAP2 SUB SWAP1 KECCAK256 PUSH1 0x0 PUSH2 0x100 EXP DUP2 SLOAD DUP2 PUSH1 0xFF MUL NOT AND SWAP1 DUP4 ISZERO ISZERO MUL OR SWAP1 SSTORE POP POP POP POP POP JUMP JUMPDEST PUSH2 0x181C PUSH2 0x1FB3 JUMP JUMPDEST PUSH1 0x0 PUSH2 0x1826 PUSH2 0x1A8A JUMP JUMPDEST SWAP1 POP DUP1 PUSH1 0x3 ADD PUSH1 0x0 DUP5 DUP2 MSTORE PUSH1 0x20 ADD SWAP1 DUP2 MSTORE PUSH1 0x20 ADD PUSH1 0x0 KECCAK256 PUSH1 0x40 MLOAD DUP1 PUSH2 0x280 ADD PUSH1 0x40 MSTORE SWAP1 DUP2 PUSH1 0x0 DUP3 ADD SLOAD DUP2 MSTORE PUSH1 0x20 ADD PUSH1 0x1 DUP3 ADD SLOAD DUP2 MSTORE PUSH1 0x20 ADD PUSH1 0x2 DUP3 ADD SLOAD DUP2 MSTORE PUSH1 0x20 ADD PUSH1 0x3 DUP3 ADD SLOAD DUP2 MSTORE PUSH1 0x20 ADD PUSH1 0x4 DUP3 ADD SLOAD DUP2 MSTORE PUSH1 0x20 ADD PUSH1 0x5 DUP3 ADD SLOAD DUP2 MSTORE PUSH1 0x20 ADD PUSH1 0x6 DUP3 ADD SLOAD DUP2 MSTORE PUSH1 0x20 ADD PUSH1 0x7 DUP3 ADD SLOAD DUP2 MSTORE PUSH1 0x20 ADD PUSH1 0x8 DUP3 ADD SLOAD DUP2 MSTORE PUSH1 0x20 ADD PUSH1 0x9 DUP3 ADD SLOAD DUP2 MSTORE PUSH1 0x20 ADD PUSH1 0xA DUP3 ADD SLOAD DUP2 MSTORE PUSH1 0x20 ADD PUSH1 0xB DUP3 ADD SLOAD DUP2 MSTORE PUSH1 0x20 ADD PUSH1 0xC DUP3 ADD SLOAD DUP2 MSTORE PUSH1 0x20 ADD PUSH1 0xD DUP3 ADD SLOAD DUP2 MSTORE PUSH1 0x20 ADD PUSH1 0xE DUP3 ADD SLOAD DUP2 MSTORE PUSH1 0x20 ADD PUSH1 0xF DUP3 ADD DUP1 SLOAD PUSH2 0x18EF SWAP1 PUSH2 0x2A76 JUMP JUMPDEST DUP1 PUSH1 0x1F ADD PUSH1 0x20 DUP1 SWAP2 DIV MUL PUSH1 0x20 ADD PUSH1 0x40 MLOAD SWAP1 DUP2 ADD PUSH1 0x40 MSTORE DUP1 SWAP3 SWAP2 SWAP1 DUP2 DUP2 MSTORE PUSH1 0x20 ADD DUP3 DUP1 SLOAD PUSH2 0x191B SWAP1 PUSH2 0x2A76 JUMP JUMPDEST DUP1 ISZERO PUSH2 0x1968 JUMPI DUP1 PUSH1 0x1F LT PUSH2 0x193D JUMPI PUSH2 0x100 DUP1 DUP4 SLOAD DIV MUL DUP4 MSTORE SWAP2 PUSH1 0x20 ADD SWAP2 PUSH2 0x1968 JUMP JUMPDEST DUP3 ADD SWAP2 SWAP1 PUSH1 0x0 MSTORE PUSH1 0x20 PUSH1 0x0 KECCAK256 SWAP1 JUMPDEST DUP2 SLOAD DUP2 MSTORE SWAP1 PUSH1 0x1 ADD SWAP1 PUSH1 0x20 ADD DUP1 DUP4 GT PUSH2 0x194B JUMPI DUP3 SWAP1 SUB PUSH1 0x1F AND DUP3 ADD SWAP2 JUMPDEST POP POP POP POP POP DUP2 MSTORE PUSH1 0x20 ADD PUSH1 0x10 DUP3 ADD DUP1 SLOAD PUSH2 0x1981 SWAP1 PUSH2 0x2A76 JUMP JUMPDEST DUP1 PUSH1 0x1F ADD PUSH1 0x20 DUP1 SWAP2 DIV MUL PUSH1 0x20 ADD PUSH1 0x40 MLOAD SWAP1 DUP2 ADD PUSH1 0x40 MSTORE DUP1 SWAP3 SWAP2 SWAP1 DUP2 DUP2 MSTORE PUSH1 0x20 ADD DUP3 DUP1 SLOAD PUSH2 0x19AD SWAP1 PUSH2 0x2A76 JUMP JUMPDEST DUP1 ISZERO PUSH2 0x19FA JUMPI DUP1 PUSH1 0x1F LT PUSH2 0x19CF JUMPI PUSH2 0x100 DUP1 DUP4 SLOAD DIV MUL DUP4 MSTORE SWAP2 PUSH1 0x20 ADD SWAP2 PUSH2 0x19FA JUMP JUMPDEST DUP3 ADD SWAP2 SWAP1 PUSH1 0x0 MSTORE PUSH1 0x20 PUSH1 0x0 KECCAK256 SWAP1 JUMPDEST DUP2 SLOAD DUP2 MSTORE SWAP1 PUSH1 0x1 ADD SWAP1 PUSH1 0x20 ADD DUP1 DUP4 GT PUSH2 0x19DD JUMPI DUP3 SWAP1 SUB PUSH1 0x1F AND DUP3 ADD SWAP2 JUMPDEST POP POP POP POP POP DUP2 MSTORE PUSH1 0x20 ADD PUSH1 0x11 DUP3 ADD PUSH1 0x0 SWAP1 SLOAD SWAP1 PUSH2 0x100 EXP SWAP1 DIV PUSH1 0xFF AND ISZERO ISZERO ISZERO ISZERO DUP2 MSTORE PUSH1 0x20 ADD PUSH1 0x12 DUP3 ADD PUSH1 0x40 MLOAD DUP1 PUSH1 0xE0 ADD PUSH1 0x40 MSTORE SWAP1 DUP2 PUSH1 0x0 DUP3 ADD SLOAD DUP2 MSTORE PUSH1 0x20 ADD PUSH1 0x1 DUP3 ADD SLOAD DUP2 MSTORE PUSH1 0x20 ADD PUSH1 0x2 DUP3 ADD SLOAD DUP2 MSTORE PUSH1 0x20 ADD PUSH1 0x3 DUP3 ADD SLOAD DUP2 MSTORE PUSH1 0x20 ADD PUSH1 0x4 DUP3 ADD SLOAD DUP2 MSTORE PUSH1 0x20 ADD PUSH1 0x5 DUP3 ADD SLOAD DUP2 MSTORE PUSH1 0x20 ADD PUSH1 0x6 DUP3 ADD SLOAD DUP2 MSTORE POP POP DUP2 MSTORE PUSH1 0x20 ADD PUSH1 0x19 DUP3 ADD SLOAD DUP2 MSTORE POP POP SWAP2 POP POP SWAP2 SWAP1 POP JUMP JUMPDEST PUSH1 0x0 DUP1 PUSH32 0x3CAB9A070A0C61CD0AE9D9E9E2C0781E5CA8691BEC4087E5A4701D5AC018DD4E SWAP1 POP DUP1 SWAP2 POP POP SWAP1 JUMP JUMPDEST PUSH2 0x1AC1 DUP4 DUP4 PUSH2 0x1B12 JUMP JUMPDEST PUSH2 0x1ACE PUSH1 0x0 DUP5 DUP5 DUP5 PUSH2 0x1D41 JUMP JUMPDEST PUSH2 0x1B0D JUMPI PUSH1 0x40 MLOAD PUSH32 0x8C379A000000000000000000000000000000000000000000000000000000000 DUP2 MSTORE PUSH1 0x4 ADD PUSH2 0x1B04 SWAP1 PUSH2 0x2FC8 JUMP JUMPDEST PUSH1 0x40 MLOAD DUP1 SWAP2 SUB SWAP1 REVERT JUMPDEST POP POP POP JUMP JUMPDEST PUSH1 0x0 PUSH20 0xFFFFFFFFFFFFFFFFFFFFFFFFFFFFFFFFFFFFFFFF AND DUP3 PUSH20 0xFFFFFFFFFFFFFFFFFFFFFFFFFFFFFFFFFFFFFFFF AND SUB PUSH2 0x1B81 JUMPI PUSH1 0x40 MLOAD PUSH32 0x8C379A000000000000000000000000000000000000000000000000000000000 DUP2 MSTORE PUSH1 0x4 ADD PUSH2 0x1B78 SWAP1 PUSH2 0x3034 JUMP JUMPDEST PUSH1 0x40 MLOAD DUP1 SWAP2 SUB SWAP1 REVERT JUMPDEST PUSH2 0x1B8A DUP2 PUSH2 0x1EC8 JUMP JUMPDEST ISZERO PUSH2 0x1BCA JUMPI PUSH1 0x40 MLOAD PUSH32 0x8C379A000000000000000000000000000000000000000000000000000000000 DUP2 MSTORE PUSH1 0x4 ADD PUSH2 0x1BC1 SWAP1 PUSH2 0x30A0 JUMP JUMPDEST PUSH1 0x40 MLOAD DUP1 SWAP2 SUB SWAP1 REVERT JUMPDEST PUSH2 0x1BD8 PUSH1 0x0 DUP4 DUP4 PUSH1 0x1 PUSH2 0x1F09 JUMP JUMPDEST PUSH2 0x1BE1 DUP2 PUSH2 0x1EC8 JUMP JUMPDEST ISZERO PUSH2 0x1C21 JUMPI PUSH1 0x40 MLOAD PUSH32 0x8C379A000000000000000000000000000000000000000000000000000000000 DUP2 MSTORE PUSH1 0x4 ADD PUSH2 0x1C18 SWAP1 PUSH2 0x30A0 JUMP JUMPDEST PUSH1 0x40 MLOAD DUP1 SWAP2 SUB SWAP1 REVERT JUMPDEST PUSH1 0x1 PUSH2 0x1C2B PUSH2 0x1F0F JUMP JUMPDEST PUSH1 0xA ADD PUSH1 0x0 DUP5 PUSH20 0xFFFFFFFFFFFFFFFFFFFFFFFFFFFFFFFFFFFFFFFF AND PUSH20 0xFFFFFFFFFFFFFFFFFFFFFFFFFFFFFFFFFFFFFFFF AND DUP2 MSTORE PUSH1 0x20 ADD SWAP1 DUP2 MSTORE PUSH1 0x20 ADD PUSH1 0x0 KECCAK256 PUSH1 0x0 DUP3 DUP3 SLOAD ADD SWAP3 POP POP DUP2 SWAP1 SSTORE POP DUP2 PUSH2 0x1C81 PUSH2 0x1F0F JUMP JUMPDEST PUSH1 0x9 ADD PUSH1 0x0 DUP4 DUP2 MSTORE PUSH1 0x20 ADD SWAP1 DUP2 MSTORE PUSH1 0x20 ADD PUSH1 0x0 KECCAK256 PUSH1 0x0 PUSH2 0x100 EXP DUP2 SLOAD DUP2 PUSH20 0xFFFFFFFFFFFFFFFFFFFFFFFFFFFFFFFFFFFFFFFF MUL NOT AND SWAP1 DUP4 PUSH20 0xFFFFFFFFFFFFFFFFFFFFFFFFFFFFFFFFFFFFFFFF AND MUL OR SWAP1 SSTORE POP DUP1 DUP3 PUSH20 0xFFFFFFFFFFFFFFFFFFFFFFFFFFFFFFFFFFFFFFFF AND PUSH1 0x0 PUSH20 0xFFFFFFFFFFFFFFFFFFFFFFFFFFFFFFFFFFFFFFFF AND PUSH32 0xDDF252AD1BE2C89B69C2B068FC378DAA952BA7F163C4A11628F55A4DF523B3EF PUSH1 0x40 MLOAD PUSH1 0x40 MLOAD DUP1 SWAP2 SUB SWAP1 LOG4 PUSH2 0x1D3D PUSH1 0x0 DUP4 DUP4 PUSH1 0x1 PUSH2 0x1F3C JUMP JUMPDEST POP POP JUMP JUMPDEST PUSH1 0x0 PUSH2 0x1D62 DUP5 PUSH20 0xFFFFFFFFFFFFFFFFFFFFFFFFFFFFFFFFFFFFFFFF AND PUSH2 0x1F42 JUMP JUMPDEST ISZERO PUSH2 0x1EBB JUMPI DUP4 PUSH20 0xFFFFFFFFFFFFFFFFFFFFFFFFFFFFFFFFFFFFFFFF AND PUSH4 0x150B7A02 PUSH2 0x1D8B PUSH2 0x1F65 JUMP JUMPDEST DUP8 DUP7 DUP7 PUSH1 0x40 MLOAD DUP6 PUSH4 0xFFFFFFFF AND PUSH1 0xE0 SHL DUP2 MSTORE PUSH1 0x4 ADD PUSH2 0x1DAD SWAP5 SWAP4 SWAP3 SWAP2 SWAP1 PUSH2 0x3115 JUMP JUMPDEST PUSH1 0x20 PUSH1 0x40 MLOAD DUP1 DUP4 SUB DUP2 PUSH1 0x0 DUP8 GAS CALL SWAP3 POP POP POP DUP1 ISZERO PUSH2 0x1DE9 JUMPI POP PUSH1 0x40 MLOAD RETURNDATASIZE PUSH1 0x1F NOT PUSH1 0x1F DUP3 ADD AND DUP3 ADD DUP1 PUSH1 0x40 MSTORE POP DUP2 ADD SWAP1 PUSH2 0x1DE6 SWAP2 SWAP1 PUSH2 0x31B9 JUMP JUMPDEST PUSH1 0x1 JUMPDEST PUSH2 0x1E6B JUMPI RETURNDATASIZE DUP1 PUSH1 0x0 DUP2 EQ PUSH2 0x1E19 JUMPI PUSH1 0x40 MLOAD SWAP2 POP PUSH1 0x1F NOT PUSH1 0x3F RETURNDATASIZE ADD AND DUP3 ADD PUSH1 0x40 MSTORE RETURNDATASIZE DUP3 MSTORE RETURNDATASIZE PUSH1 0x0 PUSH1 0x20 DUP5 ADD RETURNDATACOPY PUSH2 0x1E1E JUMP JUMPDEST PUSH1 0x60 SWAP2 POP JUMPDEST POP PUSH1 0x0 DUP2 MLOAD SUB PUSH2 0x1E63 JUMPI PUSH1 0x40 MLOAD PUSH32 0x8C379A000000000000000000000000000000000000000000000000000000000 DUP2 MSTORE PUSH1 0x4 ADD PUSH2 0x1E5A SWAP1 PUSH2 0x2FC8 JUMP JUMPDEST PUSH1 0x40 MLOAD DUP1 SWAP2 SUB SWAP1 REVERT JUMPDEST DUP1 MLOAD DUP2 PUSH1 0x20 ADD REVERT JUMPDEST PUSH4 0x150B7A02 PUSH1 0xE0 SHL PUSH28 0xFFFFFFFFFFFFFFFFFFFFFFFFFFFFFFFFFFFFFFFFFFFFFFFFFFFFFFFF NOT AND DUP2 PUSH28 0xFFFFFFFFFFFFFFFFFFFFFFFFFFFFFFFFFFFFFFFFFFFFFFFFFFFFFFFF NOT AND EQ SWAP2 POP POP PUSH2 0x1EC0 JUMP JUMPDEST PUSH1 0x1 SWAP1 POP JUMPDEST SWAP5 SWAP4 POP POP POP POP JUMP JUMPDEST PUSH1 0x0 DUP1 PUSH20 0xFFFFFFFFFFFFFFFFFFFFFFFFFFFFFFFFFFFFFFFF AND PUSH2 0x1EEA DUP4 PUSH2 0x1F6D JUMP JUMPDEST PUSH20 0xFFFFFFFFFFFFFFFFFFFFFFFFFFFFFFFFFFFFFFFF AND EQ ISZERO SWAP1 POP SWAP2 SWAP1 POP JUMP JUMPDEST POP POP POP POP JUMP JUMPDEST PUSH1 0x0 DUP1 PUSH32 0x2569078DFB4B0305704D3008E7403993AE9601B85F7AE5E742DE3DE8F8011C40 SWAP1 POP DUP1 SWAP2 POP POP SWAP1 JUMP JUMPDEST POP POP POP POP JUMP JUMPDEST PUSH1 0x0 DUP1 DUP3 PUSH20 0xFFFFFFFFFFFFFFFFFFFFFFFFFFFFFFFFFFFFFFFF AND EXTCODESIZE GT SWAP1 POP SWAP2 SWAP1 POP JUMP JUMPDEST PUSH1 0x0 CALLER SWAP1 POP SWAP1 JUMP JUMPDEST PUSH1 0x0 PUSH2 0x1F77 PUSH2 0x1F0F JUMP JUMPDEST PUSH1 0x9 ADD PUSH1 0x0 DUP4 DUP2 MSTORE PUSH1 0x20 ADD SWAP1 DUP2 MSTORE PUSH1 0x20 ADD PUSH1 0x0 KECCAK256 PUSH1 0x0 SWAP1 SLOAD SWAP1 PUSH2 0x100 EXP SWAP1 DIV PUSH20 0xFFFFFFFFFFFFFFFFFFFFFFFFFFFFFFFFFFFFFFFF AND SWAP1 POP SWAP2 SWAP1 POP JUMP JUMPDEST PUSH1 0x40 MLOAD DUP1 PUSH2 0x280 ADD PUSH1 0x40 MSTORE DUP1 PUSH1 0x0 DUP2 MSTORE PUSH1 0x20 ADD PUSH1 0x0 DUP2 MSTORE PUSH1 0x20 ADD PUSH1 0x0 DUP2 MSTORE PUSH1 0x20 ADD PUSH1 0x0 DUP2 MSTORE PUSH1 0x20 ADD PUSH1 0x0 DUP2 MSTORE PUSH1 0x20 ADD PUSH1 0x0 DUP2 MSTORE PUSH1 0x20 ADD PUSH1 0x0 DUP2 MSTORE PUSH1 0x20 ADD PUSH1 0x0 DUP2 MSTORE PUSH1 0x20 ADD PUSH1 0x0 DUP2 MSTORE PUSH1 0x20 ADD PUSH1 0x0 DUP2 MSTORE PUSH1 0x20 ADD PUSH1 0x0 DUP2 MSTORE PUSH1 0x20 ADD PUSH1 0x0 DUP2 MSTORE PUSH1 0x20 ADD PUSH1 0x0 DUP2 MSTORE PUSH1 0x20 ADD PUSH1 0x0 DUP2 MSTORE PUSH1 0x20 ADD PUSH1 0x0 DUP2 MSTORE PUSH1 0x20 ADD PUSH1 0x60 DUP2 MSTORE PUSH1 0x20 ADD PUSH1 0x60 DUP2 MSTORE PUSH1 0x20 ADD PUSH1 0x0 ISZERO ISZERO DUP2 MSTORE PUSH1 0x20 ADD PUSH2 0x2047 PUSH2 0x2054 JUMP JUMPDEST DUP2 MSTORE PUSH1 0x20 ADD PUSH1 0x0 DUP2 MSTORE POP SWAP1 JUMP JUMPDEST PUSH1 0x40 MLOAD DUP1 PUSH1 0xE0 ADD PUSH1 0x40 MSTORE DUP1 PUSH1 0x0 DUP2 MSTORE PUSH1 0x20 ADD PUSH1 0x0 DUP2 MSTORE PUSH1 0x20 ADD PUSH1 0x0 DUP2 MSTORE PUSH1 0x20 ADD PUSH1 0x0 DUP2 MSTORE PUSH1 0x20 ADD PUSH1 0x0 DUP2 MSTORE PUSH1 0x20 ADD PUSH1 0x0 DUP2 MSTORE PUSH1 0x20 ADD PUSH1 0x0 DUP2 MSTORE POP SWAP1 JUMP JUMPDEST PUSH1 0x0 DUP2 SWAP1 POP SWAP2 SWAP1 POP JUMP JUMPDEST PUSH2 0x20A4 DUP2 PUSH2 0x2091 JUMP JUMPDEST DUP3 MSTORE POP POP JUMP JUMPDEST PUSH1 0x0 PUSH1 0x20 DUP3 ADD SWAP1 POP PUSH2 0x20BF PUSH1 0x0 DUP4 ADD DUP5 PUSH2 0x209B JUMP JUMPDEST SWAP3 SWAP2 POP POP JUMP JUMPDEST PUSH1 0x0 PUSH1 0x40 MLOAD SWAP1 POP SWAP1 JUMP JUMPDEST PUSH1 0x0 DUP1 REVERT JUMPDEST PUSH1 0x0 DUP1 REVERT JUMPDEST PUSH2 0x20E2 DUP2 PUSH2 0x2091 JUMP JUMPDEST DUP2 EQ PUSH2 0x20ED JUMPI PUSH1 0x0 DUP1 REVERT JUMPDEST POP JUMP JUMPDEST PUSH1 0x0 DUP2 CALLDATALOAD SWAP1 POP PUSH2 0x20FF DUP2 PUSH2 0x20D9 JUMP JUMPDEST SWAP3 SWAP2 POP POP JUMP JUMPDEST PUSH1 0x0 DUP1 PUSH1 0x40 DUP4 DUP6 SUB SLT ISZERO PUSH2 0x211C JUMPI PUSH2 0x211B PUSH2 0x20CF JUMP JUMPDEST JUMPDEST PUSH1 0x0 PUSH2 0x212A DUP6 DUP3 DUP7 ADD PUSH2 0x20F0 JUMP JUMPDEST SWAP3 POP POP PUSH1 0x20 PUSH2 0x213B DUP6 DUP3 DUP7 ADD PUSH2 0x20F0 JUMP JUMPDEST SWAP2 POP POP SWAP3 POP SWAP3 SWAP1 POP JUMP JUMPDEST PUSH1 0x0 PUSH20 0xFFFFFFFFFFFFFFFFFFFFFFFFFFFFFFFFFFFFFFFF DUP3 AND SWAP1 POP SWAP2 SWAP1 POP JUMP JUMPDEST PUSH1 0x0 PUSH2 0x2170 DUP3 PUSH2 0x2145 JUMP JUMPDEST SWAP1 POP SWAP2 SWAP1 POP JUMP JUMPDEST PUSH2 0x2180 DUP2 PUSH2 0x2165 JUMP JUMPDEST DUP2 EQ PUSH2 0x218B JUMPI PUSH1 0x0 DUP1 REVERT JUMPDEST POP JUMP JUMPDEST PUSH1 0x0 DUP2 CALLDATALOAD SWAP1 POP PUSH2 0x219D DUP2 PUSH2 0x2177 JUMP JUMPDEST SWAP3 SWAP2 POP POP JUMP JUMPDEST PUSH1 0x0 PUSH1 0x20 DUP3 DUP5 SUB SLT ISZERO PUSH2 0x21B9 JUMPI PUSH2 0x21B8 PUSH2 0x20CF JUMP JUMPDEST JUMPDEST PUSH1 0x0 PUSH2 0x21C7 DUP5 DUP3 DUP6 ADD PUSH2 0x218E JUMP JUMPDEST SWAP2 POP POP SWAP3 SWAP2 POP POP JUMP JUMPDEST PUSH1 0x0 DUP2 MLOAD SWAP1 POP SWAP2 SWAP1 POP JUMP JUMPDEST PUSH1 0x0 DUP3 DUP3 MSTORE PUSH1 0x20 DUP3 ADD SWAP1 POP SWAP3 SWAP2 POP POP JUMP JUMPDEST PUSH1 0x0 DUP2 SWAP1 POP PUSH1 0x20 DUP3 ADD SWAP1 POP SWAP2 SWAP1 POP JUMP JUMPDEST PUSH2 0x2205 DUP2 PUSH2 0x2091 JUMP JUMPDEST DUP3 MSTORE POP POP JUMP JUMPDEST PUSH1 0x0 PUSH2 0x2217 DUP4 DUP4 PUSH2 0x21FC JUMP JUMPDEST PUSH1 0x20 DUP4 ADD SWAP1 POP SWAP3 SWAP2 POP POP JUMP JUMPDEST PUSH1 0x0 PUSH1 0x20 DUP3 ADD SWAP1 POP SWAP2 SWAP1 POP JUMP JUMPDEST PUSH1 0x0 PUSH2 0x223B DUP3 PUSH2 0x21D0 JUMP JUMPDEST PUSH2 0x2245 DUP2 DUP6 PUSH2 0x21DB JUMP JUMPDEST SWAP4 POP PUSH2 0x2250 DUP4 PUSH2 0x21EC JUMP JUMPDEST DUP1 PUSH1 0x0 JUMPDEST DUP4 DUP2 LT ISZERO PUSH2 0x2281 JUMPI DUP2 MLOAD PUSH2 0x2268 DUP9 DUP3 PUSH2 0x220B JUMP JUMPDEST SWAP8 POP PUSH2 0x2273 DUP4 PUSH2 0x2223 JUMP JUMPDEST SWAP3 POP POP PUSH1 0x1 DUP2 ADD SWAP1 POP PUSH2 0x2254 JUMP JUMPDEST POP DUP6 SWAP4 POP POP POP POP SWAP3 SWAP2 POP POP JUMP JUMPDEST PUSH1 0x0 PUSH1 0x20 DUP3 ADD SWAP1 POP DUP2 DUP2 SUB PUSH1 0x0 DUP4 ADD MSTORE PUSH2 0x22A8 DUP2 DUP5 PUSH2 0x2230 JUMP JUMPDEST SWAP1 POP SWAP3 SWAP2 POP POP JUMP JUMPDEST PUSH1 0x0 DUP1 REVERT JUMPDEST PUSH1 0x0 DUP1 REVERT JUMPDEST PUSH1 0x0 PUSH1 0x1F NOT PUSH1 0x1F DUP4 ADD AND SWAP1 POP SWAP2 SWAP1 POP JUMP JUMPDEST PUSH32 0x4E487B7100000000000000000000000000000000000000000000000000000000 PUSH1 0x0 MSTORE PUSH1 0x41 PUSH1 0x4 MSTORE PUSH1 0x24 PUSH1 0x0 REVERT JUMPDEST PUSH2 0x2303 DUP3 PUSH2 0x22BA JUMP JUMPDEST DUP2 ADD DUP2 DUP2 LT PUSH8 0xFFFFFFFFFFFFFFFF DUP3 GT OR ISZERO PUSH2 0x2322 JUMPI PUSH2 0x2321 PUSH2 0x22CB JUMP JUMPDEST JUMPDEST DUP1 PUSH1 0x40 MSTORE POP POP POP JUMP JUMPDEST PUSH1 0x0 PUSH2 0x2335 PUSH2 0x20C5 JUMP JUMPDEST SWAP1 POP PUSH2 0x2341 DUP3 DUP3 PUSH2 0x22FA JUMP JUMPDEST SWAP2 SWAP1 POP JUMP JUMPDEST PUSH1 0x0 PUSH8 0xFFFFFFFFFFFFFFFF DUP3 GT ISZERO PUSH2 0x2361 JUMPI PUSH2 0x2360 PUSH2 0x22CB JUMP JUMPDEST JUMPDEST PUSH2 0x236A DUP3 PUSH2 0x22BA JUMP JUMPDEST SWAP1 POP PUSH1 0x20 DUP2 ADD SWAP1 POP SWAP2 SWAP1 POP JUMP JUMPDEST DUP3 DUP2 DUP4 CALLDATACOPY PUSH1 0x0 DUP4 DUP4 ADD MSTORE POP POP POP JUMP JUMPDEST PUSH1 0x0 PUSH2 0x2399 PUSH2 0x2394 DUP5 PUSH2 0x2346 JUMP JUMPDEST PUSH2 0x232B JUMP JUMPDEST SWAP1 POP DUP3 DUP2 MSTORE PUSH1 0x20 DUP2 ADD DUP5 DUP5 DUP5 ADD GT ISZERO PUSH2 0x23B5 JUMPI PUSH2 0x23B4 PUSH2 0x22B5 JUMP JUMPDEST JUMPDEST PUSH2 0x23C0 DUP5 DUP3 DUP6 PUSH2 0x2377 JUMP JUMPDEST POP SWAP4 SWAP3 POP POP POP JUMP JUMPDEST PUSH1 0x0 DUP3 PUSH1 0x1F DUP4 ADD SLT PUSH2 0x23DD JUMPI PUSH2 0x23DC PUSH2 0x22B0 JUMP JUMPDEST JUMPDEST DUP2 CALLDATALOAD PUSH2 0x23ED DUP5 DUP3 PUSH1 0x20 DUP7 ADD PUSH2 0x2386 JUMP JUMPDEST SWAP2 POP POP SWAP3 SWAP2 POP POP JUMP JUMPDEST PUSH1 0x0 PUSH1 0x20 DUP3 DUP5 SUB SLT ISZERO PUSH2 0x240C JUMPI PUSH2 0x240B PUSH2 0x20CF JUMP JUMPDEST JUMPDEST PUSH1 0x0 DUP3 ADD CALLDATALOAD PUSH8 0xFFFFFFFFFFFFFFFF DUP2 GT ISZERO PUSH2 0x242A JUMPI PUSH2 0x2429 PUSH2 0x20D4 JUMP JUMPDEST JUMPDEST PUSH2 0x2436 DUP5 DUP3 DUP6 ADD PUSH2 0x23C8 JUMP JUMPDEST SWAP2 POP POP SWAP3 SWAP2 POP POP JUMP JUMPDEST PUSH1 0x0 DUP2 ISZERO ISZERO SWAP1 POP SWAP2 SWAP1 POP JUMP JUMPDEST PUSH2 0x2454 DUP2 PUSH2 0x243F JUMP JUMPDEST DUP3 MSTORE POP POP JUMP JUMPDEST PUSH1 0x0 PUSH1 0x20 DUP3 ADD SWAP1 POP PUSH2 0x246F PUSH1 0x0 DUP4 ADD DUP5 PUSH2 0x244B JUMP JUMPDEST SWAP3 SWAP2 POP POP JUMP JUMPDEST PUSH2 0x247E DUP2 PUSH2 0x243F JUMP JUMPDEST DUP2 EQ PUSH2 0x2489 JUMPI PUSH1 0x0 DUP1 REVERT JUMPDEST POP JUMP JUMPDEST PUSH1 0x0 DUP2 CALLDATALOAD SWAP1 POP PUSH2 0x249B DUP2 PUSH2 0x2475 JUMP JUMPDEST SWAP3 SWAP2 POP POP JUMP JUMPDEST PUSH1 0x0 DUP1 PUSH1 0x0 DUP1 PUSH1 0x80 DUP6 DUP8 SUB SLT ISZERO PUSH2 0x24BB JUMPI PUSH2 0x24BA PUSH2 0x20CF JUMP JUMPDEST JUMPDEST PUSH1 0x0 DUP6 ADD CALLDATALOAD PUSH8 0xFFFFFFFFFFFFFFFF DUP2 GT ISZERO PUSH2 0x24D9 JUMPI PUSH2 0x24D8 PUSH2 0x20D4 JUMP JUMPDEST JUMPDEST PUSH2 0x24E5 DUP8 DUP3 DUP9 ADD PUSH2 0x23C8 JUMP JUMPDEST SWAP5 POP POP PUSH1 0x20 PUSH2 0x24F6 DUP8 DUP3 DUP9 ADD PUSH2 0x248C JUMP JUMPDEST SWAP4 POP POP PUSH1 0x40 PUSH2 0x2507 DUP8 DUP3 DUP9 ADD PUSH2 0x20F0 JUMP JUMPDEST SWAP3 POP POP PUSH1 0x60 PUSH2 0x2518 DUP8 DUP3 DUP9 ADD PUSH2 0x218E JUMP JUMPDEST SWAP2 POP POP SWAP3 SWAP6 SWAP2 SWAP5 POP SWAP3 POP JUMP JUMPDEST PUSH1 0x0 PUSH1 0x20 DUP3 DUP5 SUB SLT ISZERO PUSH2 0x253A JUMPI PUSH2 0x2539 PUSH2 0x20CF JUMP JUMPDEST JUMPDEST PUSH1 0x0 PUSH2 0x2548 DUP5 DUP3 DUP6 ADD PUSH2 0x20F0 JUMP JUMPDEST SWAP2 POP POP SWAP3 SWAP2 POP POP JUMP JUMPDEST PUSH2 0x255A DUP2 PUSH2 0x2165 JUMP JUMPDEST DUP3 MSTORE POP POP JUMP JUMPDEST PUSH1 0x0 PUSH1 0x20 DUP3 ADD SWAP1 POP PUSH2 0x2575 PUSH1 0x0 DUP4 ADD DUP5 PUSH2 0x2551 JUMP JUMPDEST SWAP3 SWAP2 POP POP JUMP JUMPDEST PUSH1 0x0 DUP1 PUSH1 0x40 DUP4 DUP6 SUB SLT ISZERO PUSH2 0x2592 JUMPI PUSH2 0x2591 PUSH2 0x20CF JUMP JUMPDEST JUMPDEST PUSH1 0x0 PUSH2 0x25A0 DUP6 DUP3 DUP7 ADD PUSH2 0x20F0 JUMP JUMPDEST SWAP3 POP POP PUSH1 0x20 DUP4 ADD CALLDATALOAD PUSH8 0xFFFFFFFFFFFFFFFF DUP2 GT ISZERO PUSH2 0x25C1 JUMPI PUSH2 0x25C0 PUSH2 0x20D4 JUMP JUMPDEST JUMPDEST PUSH2 0x25CD DUP6 DUP3 DUP7 ADD PUSH2 0x23C8 JUMP JUMPDEST SWAP2 POP POP SWAP3 POP SWAP3 SWAP1 POP JUMP JUMPDEST PUSH1 0x0 DUP2 MLOAD SWAP1 POP SWAP2 SWAP1 POP JUMP JUMPDEST PUSH1 0x0 DUP3 DUP3 MSTORE PUSH1 0x20 DUP3 ADD SWAP1 POP SWAP3 SWAP2 POP POP JUMP JUMPDEST PUSH1 0x0 JUMPDEST DUP4 DUP2 LT ISZERO PUSH2 0x2611 JUMPI DUP1 DUP3 ADD MLOAD DUP2 DUP5 ADD MSTORE PUSH1 0x20 DUP2 ADD SWAP1 POP PUSH2 0x25F6 JUMP JUMPDEST PUSH1 0x0 DUP5 DUP5 ADD MSTORE POP POP POP POP JUMP JUMPDEST PUSH1 0x0 PUSH2 0x2628 DUP3 PUSH2 0x25D7 JUMP JUMPDEST PUSH2 0x2632 DUP2 DUP6 PUSH2 0x25E2 JUMP JUMPDEST SWAP4 POP PUSH2 0x2642 DUP2 DUP6 PUSH1 0x20 DUP7 ADD PUSH2 0x25F3 JUMP JUMPDEST PUSH2 0x264B DUP2 PUSH2 0x22BA JUMP JUMPDEST DUP5 ADD SWAP2 POP POP SWAP3 SWAP2 POP POP JUMP JUMPDEST PUSH2 0x265F DUP2 PUSH2 0x243F JUMP JUMPDEST DUP3 MSTORE POP POP JUMP JUMPDEST PUSH1 0xE0 DUP3 ADD PUSH1 0x0 DUP3 ADD MLOAD PUSH2 0x267B PUSH1 0x0 DUP6 ADD DUP3 PUSH2 0x21FC JUMP JUMPDEST POP PUSH1 0x20 DUP3 ADD MLOAD PUSH2 0x268E PUSH1 0x20 DUP6 ADD DUP3 PUSH2 0x21FC JUMP JUMPDEST POP PUSH1 0x40 DUP3 ADD MLOAD PUSH2 0x26A1 PUSH1 0x40 DUP6 ADD DUP3 PUSH2 0x21FC JUMP JUMPDEST POP PUSH1 0x60 DUP3 ADD MLOAD PUSH2 0x26B4 PUSH1 0x60 DUP6 ADD DUP3 PUSH2 0x21FC JUMP JUMPDEST POP PUSH1 0x80 DUP3 ADD MLOAD PUSH2 0x26C7 PUSH1 0x80 DUP6 ADD DUP3 PUSH2 0x21FC JUMP JUMPDEST POP PUSH1 0xA0 DUP3 ADD MLOAD PUSH2 0x26DA PUSH1 0xA0 DUP6 ADD DUP3 PUSH2 0x21FC JUMP JUMPDEST POP PUSH1 0xC0 DUP3 ADD MLOAD PUSH2 0x26ED PUSH1 0xC0 DUP6 ADD DUP3 PUSH2 0x21FC JUMP JUMPDEST POP POP POP POP JUMP JUMPDEST PUSH1 0x0 PUSH2 0x340 DUP4 ADD PUSH1 0x0 DUP4 ADD MLOAD PUSH2 0x270C PUSH1 0x0 DUP7 ADD DUP3 PUSH2 0x21FC JUMP JUMPDEST POP PUSH1 0x20 DUP4 ADD MLOAD PUSH2 0x271F PUSH1 0x20 DUP7 ADD DUP3 PUSH2 0x21FC JUMP JUMPDEST POP PUSH1 0x40 DUP4 ADD MLOAD PUSH2 0x2732 PUSH1 0x40 DUP7 ADD DUP3 PUSH2 0x21FC JUMP JUMPDEST POP PUSH1 0x60 DUP4 ADD MLOAD PUSH2 0x2745 PUSH1 0x60 DUP7 ADD DUP3 PUSH2 0x21FC JUMP JUMPDEST POP PUSH1 0x80 DUP4 ADD MLOAD PUSH2 0x2758 PUSH1 0x80 DUP7 ADD DUP3 PUSH2 0x21FC JUMP JUMPDEST POP PUSH1 0xA0 DUP4 ADD MLOAD PUSH2 0x276B PUSH1 0xA0 DUP7 ADD DUP3 PUSH2 0x21FC JUMP JUMPDEST POP PUSH1 0xC0 DUP4 ADD MLOAD PUSH2 0x277E PUSH1 0xC0 DUP7 ADD DUP3 PUSH2 0x21FC JUMP JUMPDEST POP PUSH1 0xE0 DUP4 ADD MLOAD PUSH2 0x2791 PUSH1 0xE0 DUP7 ADD DUP3 PUSH2 0x21FC JUMP JUMPDEST POP PUSH2 0x100 DUP4 ADD MLOAD PUSH2 0x27A6 PUSH2 0x100 DUP7 ADD DUP3 PUSH2 0x21FC JUMP JUMPDEST POP PUSH2 0x120 DUP4 ADD MLOAD PUSH2 0x27BB PUSH2 0x120 DUP7 ADD DUP3 PUSH2 0x21FC JUMP JUMPDEST POP PUSH2 0x140 DUP4 ADD MLOAD PUSH2 0x27D0 PUSH2 0x140 DUP7 ADD DUP3 PUSH2 0x21FC JUMP JUMPDEST POP PUSH2 0x160 DUP4 ADD MLOAD PUSH2 0x27E5 PUSH2 0x160 DUP7 ADD DUP3 PUSH2 0x21FC JUMP JUMPDEST POP PUSH2 0x180 DUP4 ADD MLOAD PUSH2 0x27FA PUSH2 0x180 DUP7 ADD DUP3 PUSH2 0x21FC JUMP JUMPDEST POP PUSH2 0x1A0 DUP4 ADD MLOAD PUSH2 0x280F PUSH2 0x1A0 DUP7 ADD DUP3 PUSH2 0x21FC JUMP JUMPDEST POP PUSH2 0x1C0 DUP4 ADD MLOAD PUSH2 0x2824 PUSH2 0x1C0 DUP7 ADD DUP3 PUSH2 0x21FC JUMP JUMPDEST POP PUSH2 0x1E0 DUP4 ADD MLOAD DUP5 DUP3 SUB PUSH2 0x1E0 DUP7 ADD MSTORE PUSH2 0x283E DUP3 DUP3 PUSH2 0x261D JUMP JUMPDEST SWAP2 POP POP PUSH2 0x200 DUP4 ADD MLOAD DUP5 DUP3 SUB PUSH2 0x200 DUP7 ADD MSTORE PUSH2 0x285A DUP3 DUP3 PUSH2 0x261D JUMP JUMPDEST SWAP2 POP POP PUSH2 0x220 DUP4 ADD MLOAD PUSH2 0x2871 PUSH2 0x220 DUP7 ADD DUP3 PUSH2 0x2656 JUMP JUMPDEST POP PUSH2 0x240 DUP4 ADD MLOAD PUSH2 0x2886 PUSH2 0x240 DUP7 ADD DUP3 PUSH2 0x2665 JUMP JUMPDEST POP PUSH2 0x260 DUP4 ADD MLOAD PUSH2 0x289B PUSH2 0x320 DUP7 ADD DUP3 PUSH2 0x21FC JUMP JUMPDEST POP DUP1 SWAP2 POP POP SWAP3 SWAP2 POP POP JUMP JUMPDEST PUSH1 0x0 PUSH1 0x20 DUP3 ADD SWAP1 POP DUP2 DUP2 SUB PUSH1 0x0 DUP4 ADD MSTORE PUSH2 0x28C0 DUP2 DUP5 PUSH2 0x26F3 JUMP JUMPDEST SWAP1 POP SWAP3 SWAP2 POP POP JUMP JUMPDEST PUSH1 0x0 DUP2 SWAP1 POP SWAP3 SWAP2 POP POP JUMP JUMPDEST POP JUMP JUMPDEST PUSH1 0x0 PUSH2 0x28E3 PUSH1 0x0 DUP4 PUSH2 0x28C8 JUMP JUMPDEST SWAP2 POP PUSH2 0x28EE DUP3 PUSH2 0x28D3 JUMP JUMPDEST PUSH1 0x0 DUP3 ADD SWAP1 POP SWAP2 SWAP1 POP JUMP JUMPDEST PUSH1 0x0 PUSH2 0x2904 DUP3 PUSH2 0x28D6 JUMP JUMPDEST SWAP2 POP DUP2 SWAP1 POP SWAP2 SWAP1 POP JUMP JUMPDEST PUSH1 0x0 DUP3 DUP3 MSTORE PUSH1 0x20 DUP3 ADD SWAP1 POP SWAP3 SWAP2 POP POP JUMP JUMPDEST PUSH32 0x4661696C656420746F2073656E64204574686572000000000000000000000000 PUSH1 0x0 DUP3 ADD MSTORE POP JUMP JUMPDEST PUSH1 0x0 PUSH2 0x2955 PUSH1 0x14 DUP4 PUSH2 0x290E JUMP JUMPDEST SWAP2 POP PUSH2 0x2960 DUP3 PUSH2 0x291F JUMP JUMPDEST PUSH1 0x20 DUP3 ADD SWAP1 POP SWAP2 SWAP1 POP JUMP JUMPDEST PUSH1 0x0 PUSH1 0x20 DUP3 ADD SWAP1 POP DUP2 DUP2 SUB PUSH1 0x0 DUP4 ADD MSTORE PUSH2 0x2984 DUP2 PUSH2 0x2948 JUMP JUMPDEST SWAP1 POP SWAP2 SWAP1 POP JUMP JUMPDEST PUSH1 0x0 PUSH2 0x2996 DUP3 PUSH2 0x25D7 JUMP JUMPDEST PUSH2 0x29A0 DUP2 DUP6 PUSH2 0x290E JUMP JUMPDEST SWAP4 POP PUSH2 0x29B0 DUP2 DUP6 PUSH1 0x20 DUP7 ADD PUSH2 0x25F3 JUMP JUMPDEST PUSH2 0x29B9 DUP2 PUSH2 0x22BA JUMP JUMPDEST DUP5 ADD SWAP2 POP POP SWAP3 SWAP2 POP POP JUMP JUMPDEST PUSH1 0x0 PUSH1 0x40 DUP3 ADD SWAP1 POP DUP2 DUP2 SUB PUSH1 0x0 DUP4 ADD MSTORE PUSH2 0x29DE DUP2 DUP6 PUSH2 0x298B JUMP JUMPDEST SWAP1 POP PUSH2 0x29ED PUSH1 0x20 DUP4 ADD DUP5 PUSH2 0x209B JUMP JUMPDEST SWAP4 SWAP3 POP POP POP JUMP JUMPDEST PUSH1 0x0 DUP2 SWAP1 POP SWAP3 SWAP2 POP POP JUMP JUMPDEST PUSH1 0x0 PUSH2 0x2A0A DUP3 PUSH2 0x25D7 JUMP JUMPDEST PUSH2 0x2A14 DUP2 DUP6 PUSH2 0x29F4 JUMP JUMPDEST SWAP4 POP PUSH2 0x2A24 DUP2 DUP6 PUSH1 0x20 DUP7 ADD PUSH2 0x25F3 JUMP JUMPDEST DUP1 DUP5 ADD SWAP2 POP POP SWAP3 SWAP2 POP POP JUMP JUMPDEST PUSH1 0x0 PUSH2 0x2A3C DUP3 DUP5 PUSH2 0x29FF JUMP JUMPDEST SWAP2 POP DUP2 SWAP1 POP SWAP3 SWAP2 POP POP JUMP JUMPDEST PUSH32 0x4E487B7100000000000000000000000000000000000000000000000000000000 PUSH1 0x0 MSTORE PUSH1 0x22 PUSH1 0x4 MSTORE PUSH1 0x24 PUSH1 0x0 REVERT JUMPDEST PUSH1 0x0 PUSH1 0x2 DUP3 DIV SWAP1 POP PUSH1 0x1 DUP3 AND DUP1 PUSH2 0x2A8E JUMPI PUSH1 0x7F DUP3 AND SWAP2 POP JUMPDEST PUSH1 0x20 DUP3 LT DUP2 SUB PUSH2 0x2AA1 JUMPI PUSH2 0x2AA0 PUSH2 0x2A47 JUMP JUMPDEST JUMPDEST POP SWAP2 SWAP1 POP JUMP JUMPDEST PUSH32 0x4E487B7100000000000000000000000000000000000000000000000000000000 PUSH1 0x0 MSTORE PUSH1 0x11 PUSH1 0x4 MSTORE PUSH1 0x24 PUSH1 0x0 REVERT JUMPDEST PUSH1 0x0 PUSH2 0x2AE1 DUP3 PUSH2 0x2091 JUMP JUMPDEST SWAP2 POP PUSH2 0x2AEC DUP4 PUSH2 0x2091 JUMP JUMPDEST SWAP3 POP DUP3 DUP3 MUL PUSH2 0x2AFA DUP2 PUSH2 0x2091 JUMP JUMPDEST SWAP2 POP DUP3 DUP3 DIV DUP5 EQ DUP4 ISZERO OR PUSH2 0x2B11 JUMPI PUSH2 0x2B10 PUSH2 0x2AA7 JUMP JUMPDEST JUMPDEST POP SWAP3 SWAP2 POP POP JUMP JUMPDEST PUSH1 0x0 PUSH2 0x2B23 DUP3 PUSH2 0x2091 JUMP JUMPDEST SWAP2 POP PUSH32 0xFFFFFFFFFFFFFFFFFFFFFFFFFFFFFFFFFFFFFFFFFFFFFFFFFFFFFFFFFFFFFFFF DUP3 SUB PUSH2 0x2B55 JUMPI PUSH2 0x2B54 PUSH2 0x2AA7 JUMP JUMPDEST JUMPDEST PUSH1 0x1 DUP3 ADD SWAP1 POP SWAP2 SWAP1 POP JUMP JUMPDEST PUSH1 0x0 PUSH2 0x2B6B DUP3 PUSH2 0x2091 JUMP JUMPDEST SWAP2 POP PUSH2 0x2B76 DUP4 PUSH2 0x2091 JUMP JUMPDEST SWAP3 POP DUP3 DUP3 SUB SWAP1 POP DUP2 DUP2 GT ISZERO PUSH2 0x2B8E JUMPI PUSH2 0x2B8D PUSH2 0x2AA7 JUMP JUMPDEST JUMPDEST SWAP3 SWAP2 POP POP JUMP JUMPDEST PUSH32 0x6E616D652069732074616B656E00000000000000000000000000000000000000 PUSH1 0x0 DUP3 ADD MSTORE POP JUMP JUMPDEST PUSH1 0x0 PUSH2 0x2BCA PUSH1 0xD DUP4 PUSH2 0x290E JUMP JUMPDEST SWAP2 POP PUSH2 0x2BD5 DUP3 PUSH2 0x2B94 JUMP JUMPDEST PUSH1 0x20 DUP3 ADD SWAP1 POP SWAP2 SWAP1 POP JUMP JUMPDEST PUSH1 0x0 PUSH1 0x20 DUP3 ADD SWAP1 POP DUP2 DUP2 SUB PUSH1 0x0 DUP4 ADD MSTORE PUSH2 0x2BF9 DUP2 PUSH2 0x2BBD JUMP JUMPDEST SWAP1 POP SWAP2 SWAP1 POP JUMP JUMPDEST PUSH1 0x0 DUP2 SWAP1 POP DUP2 PUSH1 0x0 MSTORE PUSH1 0x20 PUSH1 0x0 KECCAK256 SWAP1 POP SWAP2 SWAP1 POP JUMP JUMPDEST PUSH1 0x0 PUSH1 0x20 PUSH1 0x1F DUP4 ADD DIV SWAP1 POP SWAP2 SWAP1 POP JUMP JUMPDEST PUSH1 0x0 DUP3 DUP3 SHL SWAP1 POP SWAP3 SWAP2 POP POP JUMP JUMPDEST PUSH1 0x0 PUSH1 0x8 DUP4 MUL PUSH2 0x2C62 PUSH32 0xFFFFFFFFFFFFFFFFFFFFFFFFFFFFFFFFFFFFFFFFFFFFFFFFFFFFFFFFFFFFFFFF DUP3 PUSH2 0x2C25 JUMP JUMPDEST PUSH2 0x2C6C DUP7 DUP4 PUSH2 0x2C25 JUMP JUMPDEST SWAP6 POP DUP1 NOT DUP5 AND SWAP4 POP DUP1 DUP7 AND DUP5 OR SWAP3 POP POP POP SWAP4 SWAP3 POP POP POP JUMP JUMPDEST PUSH1 0x0 DUP2 SWAP1 POP SWAP2 SWAP1 POP JUMP JUMPDEST PUSH1 0x0 PUSH2 0x2CA9 PUSH2 0x2CA4 PUSH2 0x2C9F DUP5 PUSH2 0x2091 JUMP JUMPDEST PUSH2 0x2C84 JUMP JUMPDEST PUSH2 0x2091 JUMP JUMPDEST SWAP1 POP SWAP2 SWAP1 POP JUMP JUMPDEST PUSH1 0x0 DUP2 SWAP1 POP SWAP2 SWAP1 POP JUMP JUMPDEST PUSH2 0x2CC3 DUP4 PUSH2 0x2C8E JUMP JUMPDEST PUSH2 0x2CD7 PUSH2 0x2CCF DUP3 PUSH2 0x2CB0 JUMP JUMPDEST DUP5 DUP5 SLOAD PUSH2 0x2C32 JUMP JUMPDEST DUP3 SSTORE POP POP POP POP JUMP JUMPDEST PUSH1 0x0 SWAP1 JUMP JUMPDEST PUSH2 0x2CEC PUSH2 0x2CDF JUMP JUMPDEST PUSH2 0x2CF7 DUP2 DUP5 DUP5 PUSH2 0x2CBA JUMP JUMPDEST POP POP POP JUMP JUMPDEST JUMPDEST DUP2 DUP2 LT ISZERO PUSH2 0x2D1B JUMPI PUSH2 0x2D10 PUSH1 0x0 DUP3 PUSH2 0x2CE4 JUMP JUMPDEST PUSH1 0x1 DUP2 ADD SWAP1 POP PUSH2 0x2CFD JUMP JUMPDEST POP POP JUMP JUMPDEST PUSH1 0x1F DUP3 GT ISZERO PUSH2 0x2D60 JUMPI PUSH2 0x2D31 DUP2 PUSH2 0x2C00 JUMP JUMPDEST PUSH2 0x2D3A DUP5 PUSH2 0x2C15 JUMP JUMPDEST DUP2 ADD PUSH1 0x20 DUP6 LT ISZERO PUSH2 0x2D49 JUMPI DUP2 SWAP1 POP JUMPDEST PUSH2 0x2D5D PUSH2 0x2D55 DUP6 PUSH2 0x2C15 JUMP JUMPDEST DUP4 ADD DUP3 PUSH2 0x2CFC JUMP JUMPDEST POP POP JUMPDEST POP POP POP JUMP JUMPDEST PUSH1 0x0 DUP3 DUP3 SHR SWAP1 POP SWAP3 SWAP2 POP POP JUMP JUMPDEST PUSH1 0x0 PUSH2 0x2D83 PUSH1 0x0 NOT DUP5 PUSH1 0x8 MUL PUSH2 0x2D65 JUMP JUMPDEST NOT DUP1 DUP4 AND SWAP2 POP POP SWAP3 SWAP2 POP POP JUMP JUMPDEST PUSH1 0x0 PUSH2 0x2D9C DUP4 DUP4 PUSH2 0x2D72 JUMP JUMPDEST SWAP2 POP DUP3 PUSH1 0x2 MUL DUP3 OR SWAP1 POP SWAP3 SWAP2 POP POP JUMP JUMPDEST PUSH2 0x2DB5 DUP3 PUSH2 0x25D7 JUMP JUMPDEST PUSH8 0xFFFFFFFFFFFFFFFF DUP2 GT ISZERO PUSH2 0x2DCE JUMPI PUSH2 0x2DCD PUSH2 0x22CB JUMP JUMPDEST JUMPDEST PUSH2 0x2DD8 DUP3 SLOAD PUSH2 0x2A76 JUMP JUMPDEST PUSH2 0x2DE3 DUP3 DUP3 DUP6 PUSH2 0x2D1F JUMP JUMPDEST PUSH1 0x0 PUSH1 0x20 SWAP1 POP PUSH1 0x1F DUP4 GT PUSH1 0x1 DUP2 EQ PUSH2 0x2E16 JUMPI PUSH1 0x0 DUP5 ISZERO PUSH2 0x2E04 JUMPI DUP3 DUP8 ADD MLOAD SWAP1 POP JUMPDEST PUSH2 0x2E0E DUP6 DUP3 PUSH2 0x2D90 JUMP JUMPDEST DUP7 SSTORE POP PUSH2 0x2E76 JUMP JUMPDEST PUSH1 0x1F NOT DUP5 AND PUSH2 0x2E24 DUP7 PUSH2 0x2C00 JUMP JUMPDEST PUSH1 0x0 JUMPDEST DUP3 DUP2 LT ISZERO PUSH2 0x2E4C JUMPI DUP5 DUP10 ADD MLOAD DUP3 SSTORE PUSH1 0x1 DUP3 ADD SWAP2 POP PUSH1 0x20 DUP6 ADD SWAP5 POP PUSH1 0x20 DUP2 ADD SWAP1 POP PUSH2 0x2E27 JUMP JUMPDEST DUP7 DUP4 LT ISZERO PUSH2 0x2E69 JUMPI DUP5 DUP10 ADD MLOAD PUSH2 0x2E65 PUSH1 0x1F DUP10 AND DUP3 PUSH2 0x2D72 JUMP JUMPDEST DUP4 SSTORE POP JUMPDEST PUSH1 0x1 PUSH1 0x2 DUP9 MUL ADD DUP9 SSTORE POP POP POP JUMPDEST POP POP POP POP POP POP JUMP JUMPDEST PUSH32 0x43616E6E6F74207061737320616E20656D707479206861736800000000000000 PUSH1 0x0 DUP3 ADD MSTORE POP JUMP JUMPDEST PUSH1 0x0 PUSH2 0x2EB4 PUSH1 0x19 DUP4 PUSH2 0x290E JUMP JUMPDEST SWAP2 POP PUSH2 0x2EBF DUP3 PUSH2 0x2E7E JUMP JUMPDEST PUSH1 0x20 DUP3 ADD SWAP1 POP SWAP2 SWAP1 POP JUMP JUMPDEST PUSH1 0x0 PUSH1 0x20 DUP3 ADD SWAP1 POP DUP2 DUP2 SUB PUSH1 0x0 DUP4 ADD MSTORE PUSH2 0x2EE3 DUP2 PUSH2 0x2EA7 JUMP JUMPDEST SWAP1 POP SWAP2 SWAP1 POP JUMP JUMPDEST PUSH32 0x43616E6E6F74206265206C6F6E676572207468616E2031302063686172730000 PUSH1 0x0 DUP3 ADD MSTORE POP JUMP JUMPDEST PUSH1 0x0 PUSH2 0x2F20 PUSH1 0x1E DUP4 PUSH2 0x290E JUMP JUMPDEST SWAP2 POP PUSH2 0x2F2B DUP3 PUSH2 0x2EEA JUMP JUMPDEST PUSH1 0x20 DUP3 ADD SWAP1 POP SWAP2 SWAP1 POP JUMP JUMPDEST PUSH1 0x0 PUSH1 0x20 DUP3 ADD SWAP1 POP DUP2 DUP2 SUB PUSH1 0x0 DUP4 ADD MSTORE PUSH2 0x2F4F DUP2 PUSH2 0x2F13 JUMP JUMPDEST SWAP1 POP SWAP2 SWAP1 POP JUMP JUMPDEST PUSH32 0x4552433732313A207472616E7366657220746F206E6F6E204552433732315265 PUSH1 0x0 DUP3 ADD MSTORE PUSH32 0x63656976657220696D706C656D656E7465720000000000000000000000000000 PUSH1 0x20 DUP3 ADD MSTORE POP JUMP JUMPDEST PUSH1 0x0 PUSH2 0x2FB2 PUSH1 0x32 DUP4 PUSH2 0x290E JUMP JUMPDEST SWAP2 POP PUSH2 0x2FBD DUP3 PUSH2 0x2F56 JUMP JUMPDEST PUSH1 0x40 DUP3 ADD SWAP1 POP SWAP2 SWAP1 POP JUMP JUMPDEST PUSH1 0x0 PUSH1 0x20 DUP3 ADD SWAP1 POP DUP2 DUP2 SUB PUSH1 0x0 DUP4 ADD MSTORE PUSH2 0x2FE1 DUP2 PUSH2 0x2FA5 JUMP JUMPDEST SWAP1 POP SWAP2 SWAP1 POP JUMP JUMPDEST PUSH32 0x4552433732313A206D696E7420746F20746865207A65726F2061646472657373 PUSH1 0x0 DUP3 ADD MSTORE POP JUMP JUMPDEST PUSH1 0x0 PUSH2 0x301E PUSH1 0x20 DUP4 PUSH2 0x290E JUMP JUMPDEST SWAP2 POP PUSH2 0x3029 DUP3 PUSH2 0x2FE8 JUMP JUMPDEST PUSH1 0x20 DUP3 ADD SWAP1 POP SWAP2 SWAP1 POP JUMP JUMPDEST PUSH1 0x0 PUSH1 0x20 DUP3 ADD SWAP1 POP DUP2 DUP2 SUB PUSH1 0x0 DUP4 ADD MSTORE PUSH2 0x304D DUP2 PUSH2 0x3011 JUMP JUMPDEST SWAP1 POP SWAP2 SWAP1 POP JUMP JUMPDEST PUSH32 0x4552433732313A20746F6B656E20616C7265616479206D696E74656400000000 PUSH1 0x0 DUP3 ADD MSTORE POP JUMP JUMPDEST PUSH1 0x0 PUSH2 0x308A PUSH1 0x1C DUP4 PUSH2 0x290E JUMP JUMPDEST SWAP2 POP PUSH2 0x3095 DUP3 PUSH2 0x3054 JUMP JUMPDEST PUSH1 0x20 DUP3 ADD SWAP1 POP SWAP2 SWAP1 POP JUMP JUMPDEST PUSH1 0x0 PUSH1 0x20 DUP3 ADD SWAP1 POP DUP2 DUP2 SUB PUSH1 0x0 DUP4 ADD MSTORE PUSH2 0x30B9 DUP2 PUSH2 0x307D JUMP JUMPDEST SWAP1 POP SWAP2 SWAP1 POP JUMP JUMPDEST PUSH1 0x0 DUP2 MLOAD SWAP1 POP SWAP2 SWAP1 POP JUMP JUMPDEST PUSH1 0x0 DUP3 DUP3 MSTORE PUSH1 0x20 DUP3 ADD SWAP1 POP SWAP3 SWAP2 POP POP JUMP JUMPDEST PUSH1 0x0 PUSH2 0x30E7 DUP3 PUSH2 0x30C0 JUMP JUMPDEST PUSH2 0x30F1 DUP2 DUP6 PUSH2 0x30CB JUMP JUMPDEST SWAP4 POP PUSH2 0x3101 DUP2 DUP6 PUSH1 0x20 DUP7 ADD PUSH2 0x25F3 JUMP JUMPDEST PUSH2 0x310A DUP2 PUSH2 0x22BA JUMP JUMPDEST DUP5 ADD SWAP2 POP POP SWAP3 SWAP2 POP POP JUMP JUMPDEST PUSH1 0x0 PUSH1 0x80 DUP3 ADD SWAP1 POP PUSH2 0x312A PUSH1 0x0 DUP4 ADD DUP8 PUSH2 0x2551 JUMP JUMPDEST PUSH2 0x3137 PUSH1 0x20 DUP4 ADD DUP7 PUSH2 0x2551 JUMP JUMPDEST PUSH2 0x3144 PUSH1 0x40 DUP4 ADD DUP6 PUSH2 0x209B JUMP JUMPDEST DUP2 DUP2 SUB PUSH1 0x60 DUP4 ADD MSTORE PUSH2 0x3156 DUP2 DUP5 PUSH2 0x30DC JUMP JUMPDEST SWAP1 POP SWAP6 SWAP5 POP POP POP POP POP JUMP JUMPDEST PUSH1 0x0 PUSH32 0xFFFFFFFF00000000000000000000000000000000000000000000000000000000 DUP3 AND SWAP1 POP SWAP2 SWAP1 POP JUMP JUMPDEST PUSH2 0x3196 DUP2 PUSH2 0x3161 JUMP JUMPDEST DUP2 EQ PUSH2 0x31A1 JUMPI PUSH1 0x0 DUP1 REVERT JUMPDEST POP JUMP JUMPDEST PUSH1 0x0 DUP2 MLOAD SWAP1 POP PUSH2 0x31B3 DUP2 PUSH2 0x318D JUMP JUMPDEST SWAP3 SWAP2 POP POP JUMP JUMPDEST PUSH1 0x0 PUSH1 0x20 DUP3 DUP5 SUB SLT ISZERO PUSH2 0x31CF JUMPI PUSH2 0x31CE PUSH2 0x20CF JUMP JUMPDEST JUMPDEST PUSH1 0x0 PUSH2 0x31DD DUP5 DUP3 DUP6 ADD PUSH2 0x31A4 JUMP JUMPDEST SWAP2 POP POP SWAP3 SWAP2 POP POP JUMP INVALID PUSH9 0x747470733A2F2F6970 PUSH7 0x732E696F2F6970 PUSH7 0x732F516D556257 PUSH25 0x5564387358344D5A6F6A4B455255506D507539597441596659 PUSH19 0x6F425334546531484A454B7563796874747073 GASPRICE 0x2F 0x2F PUSH10 0x7066732E696F2F697066 PUSH20 0x2F516D625641427439734B704E55613844674D4A PUSH5 0x6533444243 MLOAD PUSH26 0x6F72534354395631447A6436634A385A556D5068747470733A2F 0x2F PUSH10 0x7066732E696F2F697066 PUSH20 0x2F516D66424E4870787077554E67747736695842 PUSH25 0x4B584C6256786F6D386D7064427367715A5A79353970524D35 NUMBER PUSH9 0x747470733A2F2F6970 PUSH7 0x732E696F2F6970 PUSH7 0x732F516D515865 MSIZE PUSH6 0x397278526B6B PUSH18 0x6645423744725A52534732533179724E676A CALLDATASIZE CALLVALUE JUMP CODESIZE PUSH14 0x3676374B65747A51646874747073 GASPRICE 0x2F 0x2F PUSH10 0x7066732E696F2F697066 PUSH20 0x2F516D55715A4B5275646E616E67314758624432 PUSH15 0x4848776D4A664E4E42465156646D6F BASEFEE CODESIZE JUMPI COINBASE PUSH15 0x65616969356868747470733A2F2F69 PUSH17 0x66732E696F2F697066732F516D56357053 PUSH20 0x4D47474D4C5733593979513871534C534D445161 PUSH12 0x646E6A686A53346B35686536 PUSH14 0x4A79506548A26469706673582212 KECCAK256 0xE0 0xC7 0x22 0xCC BASEFEE RETURNDATASIZE PUSH5 0x109159E28A 0x2A 0xE6 PUSH29 0x68F02655FA33A384AF629A4393ACA64B8C64736F6C6343000812003300 "},"methodIdentifiers":{"changeName(uint256,string)":"c39cbef1","getBlocktime()":"0501b79f","getPlayer(uint256)":"e55ae4e8","getPlayers(address)":"7a80b6b4","levelUp(uint256,uint256)":"5226dc93","mint(string,bool,uint256,address)":"b93b66b1","nameAvailable(string)":"82bbdbec","ownerOfPlayer(uint256)":"bfcc8b6d","playerCount()":"302bcc57"}}}}}