{
  "_format": "hh-sol-artifact-1",
  "contractName": "QuestFacet",
  "sourceName": "contracts/facets/QuestFacet.sol",
  "abi": [
    {
      "anonymous": false,
      "inputs": [
        {
          "indexed": true,
          "internalType": "address",
          "name": "_playerAddress",
          "type": "address"
        },
        {
          "indexed": true,
          "internalType": "uint256",
          "name": "_playerId",
          "type": "uint256"
        },
        {
          "indexed": true,
          "internalType": "uint256",
          "name": "_goldQuestScheme",
          "type": "uint256"
        }
      ],
      "name": "BeginGoldQuest",
      "type": "event"
    },
    {
      "anonymous": false,
      "inputs": [
        {
          "indexed": true,
          "internalType": "address",
          "name": "_playerAddress",
          "type": "address"
        },
        {
          "indexed": false,
          "internalType": "uint256",
          "name": "_id",
          "type": "uint256"
        }
      ],
      "name": "BeginQuesting",
      "type": "event"
    },
    {
      "anonymous": false,
      "inputs": [
        {
          "indexed": false,
          "internalType": "uint256",
          "name": "_goldQuestId",
          "type": "uint256"
        },
        {
          "components": [
            {
              "internalType": "uint256",
              "name": "GoldQuestSchemaId",
              "type": "uint256"
            },
            {
              "internalType": "uint256",
              "name": "reward",
              "type": "uint256"
            },
            {
              "internalType": "uint256",
              "name": "maxReward",
              "type": "uint256"
            },
            {
              "internalType": "uint256",
              "name": "level",
              "type": "uint256"
            },
            {
              "internalType": "uint256",
              "name": "damage",
              "type": "uint256"
            },
            {
              "internalType": "uint256",
              "name": "time",
              "type": "uint256"
            }
          ],
          "indexed": false,
          "internalType": "struct GoldQuestSchema",
          "name": "_goldQuest",
          "type": "tuple"
        }
      ],
      "name": "CreateGoldQuest",
      "type": "event"
    },
    {
      "anonymous": false,
      "inputs": [
        {
          "indexed": true,
          "internalType": "address",
          "name": "_playerAddress",
          "type": "address"
        },
        {
          "indexed": true,
          "internalType": "uint256",
          "name": "_playerId",
          "type": "uint256"
        },
        {
          "indexed": true,
          "internalType": "uint256",
          "name": "_goldQuestScheme",
          "type": "uint256"
        }
      ],
      "name": "EndGoldQuest",
      "type": "event"
    },
    {
      "inputs": [
        {
          "internalType": "uint256",
          "name": "_reward",
          "type": "uint256"
        },
        {
          "internalType": "uint256",
          "name": "_maxReward",
          "type": "uint256"
        },
        {
          "internalType": "uint256",
          "name": "_level",
          "type": "uint256"
        },
        {
          "internalType": "uint256",
          "name": "_damage",
          "type": "uint256"
        },
        {
          "internalType": "uint256",
          "name": "_time",
          "type": "uint256"
        }
      ],
      "name": "createQuestGold",
      "outputs": [],
      "stateMutability": "nonpayable",
      "type": "function"
    },
    {
      "inputs": [
        {
          "internalType": "uint256",
          "name": "_tokenId",
          "type": "uint256"
        }
      ],
      "name": "endQuestGem",
      "outputs": [],
      "stateMutability": "nonpayable",
      "type": "function"
    },
    {
      "inputs": [
        {
          "internalType": "uint256",
          "name": "_playerId",
          "type": "uint256"
        },
        {
          "internalType": "uint256",
          "name": "_goldQuestSchemaId",
          "type": "uint256"
        }
      ],
      "name": "endQuestGold",
      "outputs": [],
      "stateMutability": "nonpayable",
      "type": "function"
    },
    {
      "inputs": [
        {
          "internalType": "uint256",
          "name": "_playerId",
          "type": "uint256"
        }
      ],
      "name": "getCooldown",
      "outputs": [
        {
          "internalType": "uint256",
          "name": "",
          "type": "uint256"
        }
      ],
      "stateMutability": "view",
      "type": "function"
    },
    {
      "inputs": [
        {
          "internalType": "address",
          "name": "_address",
          "type": "address"
        }
      ],
      "name": "getGemBalance",
      "outputs": [
        {
          "internalType": "uint256",
          "name": "",
          "type": "uint256"
        }
      ],
      "stateMutability": "view",
      "type": "function"
    },
    {
      "inputs": [
        {
          "internalType": "uint256",
          "name": "_playerId",
          "type": "uint256"
        }
      ],
      "name": "getGemStart",
      "outputs": [
        {
          "internalType": "uint256",
          "name": "",
          "type": "uint256"
        }
      ],
      "stateMutability": "view",
      "type": "function"
    },
    {
      "inputs": [
        {
          "internalType": "uint256",
          "name": "_goldQuestId",
          "type": "uint256"
        }
      ],
      "name": "getGoldQuest",
      "outputs": [
        {
          "components": [
            {
              "internalType": "uint256",
              "name": "GoldQuestSchemaId",
              "type": "uint256"
            },
            {
              "internalType": "uint256",
              "name": "reward",
              "type": "uint256"
            },
            {
              "internalType": "uint256",
              "name": "maxReward",
              "type": "uint256"
            },
            {
              "internalType": "uint256",
              "name": "level",
              "type": "uint256"
            },
            {
              "internalType": "uint256",
              "name": "damage",
              "type": "uint256"
            },
            {
              "internalType": "uint256",
              "name": "time",
              "type": "uint256"
            }
          ],
          "internalType": "struct GoldQuestSchema",
          "name": "",
          "type": "tuple"
        }
      ],
      "stateMutability": "view",
      "type": "function"
    },
    {
      "inputs": [],
      "name": "getGoldQuestCount",
      "outputs": [
        {
          "internalType": "uint256",
          "name": "",
          "type": "uint256"
        }
      ],
      "stateMutability": "view",
      "type": "function"
    },
    {
      "inputs": [
        {
          "internalType": "uint256",
          "name": "_goldQuestId",
          "type": "uint256"
        },
        {
          "internalType": "uint256",
          "name": "_playerId",
          "type": "uint256"
        }
      ],
      "name": "getGoldStart",
      "outputs": [
        {
          "internalType": "uint256",
          "name": "",
          "type": "uint256"
        }
      ],
      "stateMutability": "view",
      "type": "function"
    },
    {
      "inputs": [
        {
          "internalType": "uint256",
          "name": "_tokenId",
          "type": "uint256"
        }
      ],
      "name": "startQuestGem",
      "outputs": [],
      "stateMutability": "nonpayable",
      "type": "function"
    },
    {
      "inputs": [
        {
          "internalType": "uint256",
          "name": "_playerId",
          "type": "uint256"
        },
        {
          "internalType": "uint256",
          "name": "_goldQuestSchemaId",
          "type": "uint256"
        }
      ],
      "name": "startQuestGold",
      "outputs": [],
      "stateMutability": "nonpayable",
      "type": "function"
    }
  ],
  "bytecode": "0x608060405234801561001057600080fd5b506118e8806100206000396000f3fe608060405234801561001057600080fd5b50600436106100a95760003560e01c8063909a3fdd11610071578063909a3fdd14610178578063929c2cc014610194578063a174d3c2146101c4578063a762eac0146101e0578063e42ce3cf14610210578063e953ac601461022c576100a9565b806329e203ab146100ae57806368a06747146100de578063703a15f91461010e578063713dfd9b1461013e57806371e9ad441461015c575b600080fd5b6100c860048036038101906100c391906112cf565b610248565b6040516100d5919061130b565b60405180910390f35b6100f860048036038101906100f391906112cf565b61025a565b604051610105919061130b565b60405180910390f35b610128600480360381019061012391906112cf565b61026c565b60405161013591906113b0565b60405180910390f35b610146610284565b604051610153919061130b565b60405180910390f35b610176600480360381019061017191906113cb565b610293565b005b610192600480360381019061018d9190611446565b610347565b005b6101ae60048036038101906101a991906114e4565b61039a565b6040516101bb919061130b565b60405180910390f35b6101de60048036038101906101d991906112cf565b6103ac565b005b6101fa60048036038101906101f59190611446565b610406565b604051610207919061130b565b60405180910390f35b61022a600480360381019061022591906112cf565b61041a565b005b61024660048036038101906102419190611446565b610426565b005b600061025382610479565b9050919050565b6000610265826104a4565b9050919050565b61027461125e565b61027d826104cf565b9050919050565b600061028e610547565b905090565b600073434d36f32abed3f7937fe0be88dc1b0eb938124490508073ffffffffffffffffffffffffffffffffffffffff163373ffffffffffffffffffffffffffffffffffffffff16146102e457600080fd5b6102f1868686868661055f565b60006102fb610547565b90507f806e22c3789ec8938eb5467bbd144320db22d9bef9b072669725f6402939f93e816103288361026c565b604051610336929190611511565b60405180910390a150505050505050565b6103518282610616565b80823373ffffffffffffffffffffffffffffffffffffffff167ff6a9fc23ecac3b6bf55f5a00d3454670dc6aeec10ab55ccca8a98c7dbf77ffda60405160405180910390a45050565b60006103a5826108cd565b9050919050565b6103b581610924565b3373ffffffffffffffffffffffffffffffffffffffff167f754ac03968a16df89a46742386b9770f63220c3d6eb2838f03971e18a1dba22a826040516103fb919061130b565b60405180910390a250565b60006104128383610a93565b905092915050565b61042381610ad0565b50565b6104308282610cf2565b80823373ffffffffffffffffffffffffffffffffffffffff167f74014e5c45914b8723ae71eb238a194c46af735607b1d1f8e9b2fef3486d557360405160405180910390a45050565b6000806104846111d7565b905080600801600084815260200190815260200160002054915050919050565b6000806104af6111d7565b905080600501600084815260200190815260200160002054915050919050565b6104d761125e565b60006104e16111d7565b90508060020160008481526020019081526020016000206040518060c00160405290816000820154815260200160018201548152602001600282015481526020016003820154815260200160048201548152602001600582015481525050915050919050565b6000806105526111d7565b9050806000015491505090565b60006105696111d7565b905080600001600081548092919061058090611569565b91905055506040518060c00160405280826000015481526020018781526020018681526020018581526020018481526020018381525081600201600083600001548152602001908152602001600020600082015181600001556020820151816001015560408201518160020155606082015181600301556080820151816004015560a08201518160050155905050505050505050565b60006106206111d7565b9050600061062c611204565b90506000610638611231565b90506000836002016000868152602001908152602001600020600201540361065f57600080fd5b6000826003016000878152602001908152602001600020600201541461068457600080fd5b3373ffffffffffffffffffffffffffffffffffffffff1682600201600087815260200190815260200160002060009054906101000a900473ffffffffffffffffffffffffffffffffffffffff1673ffffffffffffffffffffffffffffffffffffffff16146106f157600080fd5b60007308d8e680a2d295af8cbcd8b8e07f900275bc6b8d90508360020160008681526020019081526020016000206001015461271061073091906115b1565b8260010160008373ffffffffffffffffffffffffffffffffffffffff1673ffffffffffffffffffffffffffffffffffffffff16815260200190815260200160002054101561077d57600080fd5b8360020160008681526020019081526020016000206004015483600301600088815260200190815260200160002060050154116107ef576040517f08c379a00000000000000000000000000000000000000000000000000000000081526004016107e690611642565b60405180910390fd5b83600201600086815260200190815260200160002060030154836003016000888152602001908152602001600020600001541015610862576040517f08c379a0000000000000000000000000000000000000000000000000000000008152600401610859906116ae565b60405180910390fd5b428460010160008781526020019081526020016000206000888152602001908152602001600020819055506002836003016000888152602001908152602001600020600201819055508484600301600088815260200190815260200160002081905550505050505050565b6000806108d8611231565b90508060020160008473ffffffffffffffffffffffffffffffffffffffff1673ffffffffffffffffffffffffffffffffffffffff16815260200190815260200160002054915050919050565b600061092e611204565b9050600061093a6111d7565b90506000826003016000858152602001908152602001600020600201541461096157600080fd5b3373ffffffffffffffffffffffffffffffffffffffff1682600201600085815260200190815260200160002060009054906101000a900473ffffffffffffffffffffffffffffffffffffffff1673ffffffffffffffffffffffffffffffffffffffff16146109ce57600080fd5b600061012c836003016000868152602001908152602001600020600901541015610a205782600301600085815260200190815260200160002060090154610262610a1891906116ce565b905080610a27565b61012c9050805b508082600801600086815260200190815260200160002054610a4991906115b1565b421015610a5557600080fd5b600583600301600086815260200190815260200160002060020181905550428260050160008681526020019081526020016000208190555050505050565b600080610a9e6111d7565b905080600101600085815260200190815260200160002060008481526020019081526020016000205491505092915050565b6000610ada611204565b90506000610ae6611231565b90506000610af26111d7565b90503373ffffffffffffffffffffffffffffffffffffffff1683600201600086815260200190815260200160002060009054906101000a900473ffffffffffffffffffffffffffffffffffffffff1673ffffffffffffffffffffffffffffffffffffffff1614610b6157600080fd5b60058360030160008681526020019081526020016000206002015414610b8657600080fd5b600061012c846003016000878152602001908152602001600020600901541015610bd85783600301600086815260200190815260200160002060090154610262610bd091906116ce565b905080610bdf565b61012c9050805b508082600501600087815260200190815260200160002054610c0191906115b1565b421015610c43576040517f08c379a0000000000000000000000000000000000000000000000000000000008152600401610c3a9061174e565b60405180910390fd5b600084600301600087815260200190815260200160002060020181905550816005016000868152602001908152602001600020600090558260020160003373ffffffffffffffffffffffffffffffffffffffff1673ffffffffffffffffffffffffffffffffffffffff1681526020019081526020016000206000815480929190610ccc90611569565b919050555042826008016000878152602001908152602001600020819055505050505050565b6000610cfc611204565b90506000610d08611231565b90506000610d146111d7565b90503373ffffffffffffffffffffffffffffffffffffffff1683600201600087815260200190815260200160002060009054906101000a900473ffffffffffffffffffffffffffffffffffffffff1673ffffffffffffffffffffffffffffffffffffffff1614610db9576040517f08c379a0000000000000000000000000000000000000000000000000000000008152600401610db0906117ba565b60405180910390fd5b60028360030160008781526020019081526020016000206002015414610e14576040517f08c379a0000000000000000000000000000000000000000000000000000000008152600401610e0b90611826565b60405180910390fd5b838160030160008781526020019081526020016000205414610e6b576040517f08c379a0000000000000000000000000000000000000000000000000000000008152600401610e6290611892565b60405180910390fd5b600081600201600086815260200190815260200160002060050154846003016000888152602001908152602001600020600901541015610ef55783600301600087815260200190815260200160002060090154600a83600201600088815260200190815260200160002060050154610ee391906115b1565b610eed91906116ce565b905080610f12565b816002016000868152602001908152602001600020600501549050805b5080826001016000878152602001908152602001600020600088815260200190815260200160002054610f4591906115b1565b421015610f87576040517f08c379a0000000000000000000000000000000000000000000000000000000008152600401610f7e9061174e565b60405180910390fd5b600084600301600088815260200190815260200160002060020181905550600082600201600087815260200190815260200160002060040154856003016000898152602001908152602001600020600e0154101561102357846003016000888152602001908152602001600020600e01548360020160008881526020019081526020016000206004015461101b91906116ce565b905080611029565b60019050805b5080856003016000898152602001908152602001600020600501600082825461105291906116ce565b9250508190555060008360030160008981526020019081526020016000208190555082600401600088815260200190815260200160002060009055826002016000878152602001908152602001600020600101548460010160003373ffffffffffffffffffffffffffffffffffffffff1673ffffffffffffffffffffffffffffffffffffffff16815260200190815260200160002060008282546110f691906115b1565b9250508190555060007308d8e680a2d295af8cbcd8b8e07f900275bc6b8d9050836002016000888152602001908152602001600020600101548560010160008373ffffffffffffffffffffffffffffffffffffffff1673ffffffffffffffffffffffffffffffffffffffff168152602001908152602001600020600082825461117f91906116ce565b925050819055508360020160008881526020019081526020016000206001015484600201600089815260200190815260200160002060020160008282546111c691906116ce565b925050819055505050505050505050565b6000807ff76a8e66124dac83b46aecd7c4256d5158e69f6adf88592fd8146c79e007626e90508091505090565b6000807f3cab9a070a0c61cd0ae9d9e9e2c0781e5ca8691bec4087e5a4701d5ac018dd4e90508091505090565b6000807f2c89d74504b6ad8d4fbde22bc3474166bac5452a11195897f239d8bebe02d70790508091505090565b6040518060c001604052806000815260200160008152602001600081526020016000815260200160008152602001600081525090565b600080fd5b6000819050919050565b6112ac81611299565b81146112b757600080fd5b50565b6000813590506112c9816112a3565b92915050565b6000602082840312156112e5576112e4611294565b5b60006112f3848285016112ba565b91505092915050565b61130581611299565b82525050565b600060208201905061132060008301846112fc565b92915050565b61132f81611299565b82525050565b60c08201600082015161134b6000850182611326565b50602082015161135e6020850182611326565b5060408201516113716040850182611326565b5060608201516113846060850182611326565b5060808201516113976080850182611326565b5060a08201516113aa60a0850182611326565b50505050565b600060c0820190506113c56000830184611335565b92915050565b600080600080600060a086880312156113e7576113e6611294565b5b60006113f5888289016112ba565b9550506020611406888289016112ba565b9450506040611417888289016112ba565b9350506060611428888289016112ba565b9250506080611439888289016112ba565b9150509295509295909350565b6000806040838503121561145d5761145c611294565b5b600061146b858286016112ba565b925050602061147c858286016112ba565b9150509250929050565b600073ffffffffffffffffffffffffffffffffffffffff82169050919050565b60006114b182611486565b9050919050565b6114c1816114a6565b81146114cc57600080fd5b50565b6000813590506114de816114b8565b92915050565b6000602082840312156114fa576114f9611294565b5b6000611508848285016114cf565b91505092915050565b600060e08201905061152660008301856112fc565b6115336020830184611335565b9392505050565b7f4e487b7100000000000000000000000000000000000000000000000000000000600052601160045260246000fd5b600061157482611299565b91507fffffffffffffffffffffffffffffffffffffffffffffffffffffffffffffffff82036115a6576115a561153a565b5b600182019050919050565b60006115bc82611299565b91506115c783611299565b92508282019050808211156115df576115de61153a565b5b92915050565b600082825260208201905092915050565b7f6e6f7420656e6f75676820687000000000000000000000000000000000000000600082015250565b600061162c600d836115e5565b9150611637826115f6565b602082019050919050565b6000602082019050818103600083015261165b8161161f565b9050919050565b7f6e6f74206869676820656e6f756768206c6576656c0000000000000000000000600082015250565b60006116986015836115e5565b91506116a382611662565b602082019050919050565b600060208201905081810360008301526116c78161168b565b9050919050565b60006116d982611299565b91506116e483611299565b92508282039050818111156116fc576116fb61153a565b5b92915050565b7f6974277320746f6f206561726c7920746f2070756c6c206f7574000000000000600082015250565b6000611738601a836115e5565b915061174382611702565b602082019050919050565b600060208201905081810360008301526117678161172b565b9050919050565b7f796f7520617265206e6f7420746865206f776e65720000000000000000000000600082015250565b60006117a46015836115e5565b91506117af8261176e565b602082019050919050565b600060208201905081810360008301526117d381611797565b9050919050565b7f446f672c20796f7520617265206e6f7420676f6c64207175657374696e670000600082015250565b6000611810601e836115e5565b915061181b826117da565b602082019050919050565b6000602082019050818103600083015261183f81611803565b9050919050565b7f54686973206973206e6f74207468652072696768742071756573740000000000600082015250565b600061187c601b836115e5565b915061188782611846565b602082019050919050565b600060208201905081810360008301526118ab8161186f565b905091905056fea2646970667358221220f6488dfd76079eb7a4603a662b2fd058d6afbd413405b48a86291ceb795f169d64736f6c63430008120033",
  "linkReferences": {},
  "deployedLinkReferences": {}
}