{
  "_format": "hh-sol-artifact-1",
  "contractName": "QuestFacet",
  "sourceName": "contracts/facets/QuestFacet.sol",
  "abi": [
    {
      "anonymous": false,
      "inputs": [
        {
          "indexed": true,
          "internalType": "address",
          "name": "_playerAddress",
          "type": "address"
        },
        {
          "indexed": false,
          "internalType": "uint256",
          "name": "_id",
          "type": "uint256"
        }
      ],
      "name": "BeginQuesting",
      "type": "event"
    },
    {
      "anonymous": false,
      "inputs": [
        {
          "indexed": true,
          "internalType": "address",
          "name": "_playerAddress",
          "type": "address"
        },
        {
          "indexed": false,
          "internalType": "uint256",
          "name": "_id",
          "type": "uint256"
        }
      ],
      "name": "EndQuesting",
      "type": "event"
    },
    {
      "inputs": [
        {
          "internalType": "uint256",
          "name": "_tokenId",
          "type": "uint256"
        }
      ],
      "name": "endQuestGem",
      "outputs": [],
      "stateMutability": "nonpayable",
      "type": "function"
    },
    {
      "inputs": [
        {
          "internalType": "uint256",
          "name": "_tokenId",
          "type": "uint256"
        }
      ],
      "name": "endQuestGold",
      "outputs": [],
      "stateMutability": "nonpayable",
      "type": "function"
    },
    {
      "inputs": [
        {
          "internalType": "uint256",
          "name": "_playerId",
          "type": "uint256"
        }
      ],
      "name": "getCooldown",
      "outputs": [
        {
          "internalType": "uint256",
          "name": "",
          "type": "uint256"
        }
      ],
      "stateMutability": "view",
      "type": "function"
    },
    {
      "inputs": [
        {
          "internalType": "address",
          "name": "_address",
          "type": "address"
        }
      ],
      "name": "getGemBalance",
      "outputs": [
        {
          "internalType": "uint256",
          "name": "",
          "type": "uint256"
        }
      ],
      "stateMutability": "view",
      "type": "function"
    },
    {
      "inputs": [
        {
          "internalType": "uint256",
          "name": "_playerId",
          "type": "uint256"
        }
      ],
      "name": "getGemStart",
      "outputs": [
        {
          "internalType": "uint256",
          "name": "",
          "type": "uint256"
        }
      ],
      "stateMutability": "view",
      "type": "function"
    },
    {
      "inputs": [
        {
          "internalType": "uint256",
          "name": "_playerId",
          "type": "uint256"
        }
      ],
      "name": "getGoldStart",
      "outputs": [
        {
          "internalType": "uint256",
          "name": "",
          "type": "uint256"
        }
      ],
      "stateMutability": "view",
      "type": "function"
    },
    {
      "inputs": [
        {
          "internalType": "uint256",
          "name": "_tokenId",
          "type": "uint256"
        }
      ],
      "name": "startQuestGem",
      "outputs": [],
      "stateMutability": "nonpayable",
      "type": "function"
    },
    {
      "inputs": [
        {
          "internalType": "uint256",
          "name": "_tokenId",
          "type": "uint256"
        }
      ],
      "name": "startQuestGold",
      "outputs": [],
      "stateMutability": "nonpayable",
      "type": "function"
    }
  ],
  "bytecode": "0x608060405234801561001057600080fd5b50610f7e806100206000396000f3fe608060405234801561001057600080fd5b50600436106100885760003560e01c8063929c2cc01161005b578063929c2cc014610139578063a174d3c214610169578063e42ce3cf14610185578063e6be6c66146101a157610088565b806329e203ab1461008d5780633fc0287f146100bd57806368a06747146100d95780639208008014610109575b600080fd5b6100a760048036038101906100a29190610c32565b6101bd565b6040516100b49190610c6e565b60405180910390f35b6100d760048036038101906100d29190610c32565b6101cf565b005b6100f360048036038101906100ee9190610c32565b610229565b6040516101009190610c6e565b60405180910390f35b610123600480360381019061011e9190610c32565b61023b565b6040516101309190610c6e565b60405180910390f35b610153600480360381019061014e9190610ce7565b61024d565b6040516101609190610c6e565b60405180910390f35b610183600480360381019061017e9190610c32565b61025f565b005b61019f600480360381019061019a9190610c32565b6102b9565b005b6101bb60048036038101906101b69190610c32565b610313565b005b60006101c88261036d565b9050919050565b6101d881610398565b3373ffffffffffffffffffffffffffffffffffffffff167fcae7c1c63e65edc05144a6b48d8cb6d31d4f693030fd9aeb70a966faaad0f2628260405161021e9190610c6e565b60405180910390a250565b60006102348261060e565b9050919050565b600061024682610639565b9050919050565b600061025882610664565b9050919050565b610268816106bb565b3373ffffffffffffffffffffffffffffffffffffffff167f754ac03968a16df89a46742386b9770f63220c3d6eb2838f03971e18a1dba22a826040516102ae9190610c6e565b60405180910390a250565b6102c28161082a565b3373ffffffffffffffffffffffffffffffffffffffff167fcae7c1c63e65edc05144a6b48d8cb6d31d4f693030fd9aeb70a966faaad0f262826040516103089190610c6e565b60405180910390a250565b61031c81610a4c565b3373ffffffffffffffffffffffffffffffffffffffff167f754ac03968a16df89a46742386b9770f63220c3d6eb2838f03971e18a1dba22a826040516103629190610c6e565b60405180910390a250565b600080610378610b70565b905080600501600084815260200190815260200160002054915050919050565b60006103a2610b9d565b905060006103ae610bca565b905060006103ba610b70565b90503373ffffffffffffffffffffffffffffffffffffffff1683600201600086815260200190815260200160002060009054906101000a900473ffffffffffffffffffffffffffffffffffffffff1673ffffffffffffffffffffffffffffffffffffffff161461045f576040517f08c379a000000000000000000000000000000000000000000000000000000000815260040161045690610d71565b60405180910390fd5b600283600301600086815260200190815260200160002060020154146104ba576040517f08c379a00000000000000000000000000000000000000000000000000000000081526004016104b190610ddd565b60405180910390fd5b600061025884600301600087815260200190815260200160002060090154101561050c57836003016000868152602001908152602001600020600901546102626105049190610e2c565b905080610513565b6102589050805b5080826001016000878152602001908152602001600020546105359190610e60565b421015610577576040517f08c379a000000000000000000000000000000000000000000000000000000000815260040161056e90610ee0565b60405180910390fd5b6000846003016000878152602001908152602001600020600201819055508160010160008681526020019081526020016000206000905560018360010160003373ffffffffffffffffffffffffffffffffffffffff1673ffffffffffffffffffffffffffffffffffffffff16815260200190815260200160002060008282546106009190610e60565b925050819055505050505050565b600080610619610b70565b905080600201600084815260200190815260200160002054915050919050565b600080610644610b70565b905080600101600084815260200190815260200160002054915050919050565b60008061066f610bca565b90508060020160008473ffffffffffffffffffffffffffffffffffffffff1673ffffffffffffffffffffffffffffffffffffffff16815260200190815260200160002054915050919050565b60006106c5610b9d565b905060006106d1610b70565b9050600082600301600085815260200190815260200160002060020154146106f857600080fd5b3373ffffffffffffffffffffffffffffffffffffffff1682600201600085815260200190815260200160002060009054906101000a900473ffffffffffffffffffffffffffffffffffffffff1673ffffffffffffffffffffffffffffffffffffffff161461076557600080fd5b600061012c8360030160008681526020019081526020016000206009015410156107b757826003016000858152602001908152602001600020600901546102626107af9190610e2c565b9050806107be565b61012c9050805b5080826005016000868152602001908152602001600020546107e09190610e60565b4210156107ec57600080fd5b600583600301600086815260200190815260200160002060020181905550428260020160008681526020019081526020016000208190555050505050565b6000610834610b9d565b90506000610840610bca565b9050600061084c610b70565b90503373ffffffffffffffffffffffffffffffffffffffff1683600201600086815260200190815260200160002060009054906101000a900473ffffffffffffffffffffffffffffffffffffffff1673ffffffffffffffffffffffffffffffffffffffff16146108bb57600080fd5b600583600301600086815260200190815260200160002060020154146108e057600080fd5b600061012c846003016000878152602001908152602001600020600901541015610932578360030160008681526020019081526020016000206009015461026261092a9190610e2c565b905080610939565b61012c9050805b50808260020160008781526020019081526020016000205461095b9190610e60565b42101561099d576040517f08c379a000000000000000000000000000000000000000000000000000000000815260040161099490610ee0565b60405180910390fd5b600084600301600087815260200190815260200160002060020181905550816002016000868152602001908152602001600020600090558260020160003373ffffffffffffffffffffffffffffffffffffffff1673ffffffffffffffffffffffffffffffffffffffff1681526020019081526020016000206000815480929190610a2690610f00565b919050555042826005016000878152602001908152602001600020819055505050505050565b6000610a56610b9d565b90506000610a62610b70565b90506000610a6e610bca565b905060008360030160008681526020019081526020016000206002015414610a9557600080fd5b3373ffffffffffffffffffffffffffffffffffffffff1683600201600086815260200190815260200160002060009054906101000a900473ffffffffffffffffffffffffffffffffffffffff1673ffffffffffffffffffffffffffffffffffffffff1614610b0257600080fd5b620f424081600001541115610b1657600080fd5b6001816000016000828254610b2b9190610e60565b92505081905550600283600301600086815260200190815260200160002060020181905550428260010160008681526020019081526020016000208190555050505050565b6000807ff76a8e66124dac83b46aecd7c4256d5158e69f6adf88592fd8146c79e007626e90508091505090565b6000807f3cab9a070a0c61cd0ae9d9e9e2c0781e5ca8691bec4087e5a4701d5ac018dd4e90508091505090565b6000807f2c89d74504b6ad8d4fbde22bc3474166bac5452a11195897f239d8bebe02d70790508091505090565b600080fd5b6000819050919050565b610c0f81610bfc565b8114610c1a57600080fd5b50565b600081359050610c2c81610c06565b92915050565b600060208284031215610c4857610c47610bf7565b5b6000610c5684828501610c1d565b91505092915050565b610c6881610bfc565b82525050565b6000602082019050610c836000830184610c5f565b92915050565b600073ffffffffffffffffffffffffffffffffffffffff82169050919050565b6000610cb482610c89565b9050919050565b610cc481610ca9565b8114610ccf57600080fd5b50565b600081359050610ce181610cbb565b92915050565b600060208284031215610cfd57610cfc610bf7565b5b6000610d0b84828501610cd2565b91505092915050565b600082825260208201905092915050565b7f796f7520617265206e6f7420746865206f776e65720000000000000000000000600082015250565b6000610d5b601583610d14565b9150610d6682610d25565b602082019050919050565b60006020820190508181036000830152610d8a81610d4e565b9050919050565b7f446f672c20796f7520617265206e6f7420676f6c64207175657374696e670000600082015250565b6000610dc7601e83610d14565b9150610dd282610d91565b602082019050919050565b60006020820190508181036000830152610df681610dba565b9050919050565b7f4e487b7100000000000000000000000000000000000000000000000000000000600052601160045260246000fd5b6000610e3782610bfc565b9150610e4283610bfc565b9250828203905081811115610e5a57610e59610dfd565b5b92915050565b6000610e6b82610bfc565b9150610e7683610bfc565b9250828201905080821115610e8e57610e8d610dfd565b5b92915050565b7f6974277320746f6f206561726c7920746f2070756c6c206f7574000000000000600082015250565b6000610eca601a83610d14565b9150610ed582610e94565b602082019050919050565b60006020820190508181036000830152610ef981610ebd565b9050919050565b6000610f0b82610bfc565b91507fffffffffffffffffffffffffffffffffffffffffffffffffffffffffffffffff8203610f3d57610f3c610dfd565b5b60018201905091905056fea2646970667358221220264e825cfd8738d540ad7b3f1e9036242f19d0d94eef8fd0edb6be9685c9b5aa64736f6c63430008120033",
  "linkReferences": {},
  "deployedLinkReferences": {}
}