{
  "_format": "hh-sol-artifact-1",
  "contractName": "PlayerFacet",
  "sourceName": "contracts/facets/PlayerFacet.sol",
  "abi": [
    {
      "anonymous": false,
      "inputs": [
        {
          "indexed": true,
          "internalType": "address",
          "name": "owner",
          "type": "address"
        },
        {
          "indexed": true,
          "internalType": "address",
          "name": "approved",
          "type": "address"
        },
        {
          "indexed": true,
          "internalType": "uint256",
          "name": "tokenId",
          "type": "uint256"
        }
      ],
      "name": "Approval",
      "type": "event"
    },
    {
      "anonymous": false,
      "inputs": [
        {
          "indexed": true,
          "internalType": "address",
          "name": "owner",
          "type": "address"
        },
        {
          "indexed": true,
          "internalType": "address",
          "name": "operator",
          "type": "address"
        },
        {
          "indexed": false,
          "internalType": "bool",
          "name": "approved",
          "type": "bool"
        }
      ],
      "name": "ApprovalForAll",
      "type": "event"
    },
    {
      "anonymous": false,
      "inputs": [
        {
          "indexed": true,
          "internalType": "uint256",
          "name": "_playerId",
          "type": "uint256"
        },
        {
          "indexed": true,
          "internalType": "uint256",
          "name": "_stat",
          "type": "uint256"
        }
      ],
      "name": "LevelUp",
      "type": "event"
    },
    {
      "anonymous": false,
      "inputs": [
        {
          "indexed": true,
          "internalType": "uint256",
          "name": "id",
          "type": "uint256"
        },
        {
          "indexed": true,
          "internalType": "address",
          "name": "owner",
          "type": "address"
        },
        {
          "indexed": false,
          "internalType": "string",
          "name": "name",
          "type": "string"
        },
        {
          "indexed": false,
          "internalType": "uint256",
          "name": "_class",
          "type": "uint256"
        }
      ],
      "name": "Mint",
      "type": "event"
    },
    {
      "anonymous": false,
      "inputs": [
        {
          "indexed": true,
          "internalType": "address",
          "name": "owner",
          "type": "address"
        },
        {
          "indexed": true,
          "internalType": "uint256",
          "name": "id",
          "type": "uint256"
        },
        {
          "indexed": true,
          "internalType": "string",
          "name": "newName",
          "type": "string"
        }
      ],
      "name": "NameChange",
      "type": "event"
    },
    {
      "anonymous": false,
      "inputs": [
        {
          "indexed": true,
          "internalType": "address",
          "name": "from",
          "type": "address"
        },
        {
          "indexed": true,
          "internalType": "address",
          "name": "to",
          "type": "address"
        },
        {
          "indexed": true,
          "internalType": "uint256",
          "name": "tokenId",
          "type": "uint256"
        }
      ],
      "name": "Transfer",
      "type": "event"
    },
    {
      "inputs": [
        {
          "internalType": "uint256",
          "name": "_id",
          "type": "uint256"
        },
        {
          "internalType": "string",
          "name": "_newName",
          "type": "string"
        }
      ],
      "name": "changeName",
      "outputs": [],
      "stateMutability": "nonpayable",
      "type": "function"
    },
    {
      "inputs": [],
      "name": "getBlocktime",
      "outputs": [
        {
          "internalType": "uint256",
          "name": "",
          "type": "uint256"
        }
      ],
      "stateMutability": "view",
      "type": "function"
    },
    {
      "inputs": [
        {
          "internalType": "uint256",
          "name": "_playerId",
          "type": "uint256"
        }
      ],
      "name": "getPlayer",
      "outputs": [
        {
          "components": [
            {
              "internalType": "uint256",
              "name": "level",
              "type": "uint256"
            },
            {
              "internalType": "uint256",
              "name": "xp",
              "type": "uint256"
            },
            {
              "internalType": "uint256",
              "name": "status",
              "type": "uint256"
            },
            {
              "internalType": "uint256",
              "name": "strength",
              "type": "uint256"
            },
            {
              "internalType": "uint256",
              "name": "health",
              "type": "uint256"
            },
            {
              "internalType": "uint256",
              "name": "currentHealth",
              "type": "uint256"
            },
            {
              "internalType": "uint256",
              "name": "magic",
              "type": "uint256"
            },
            {
              "internalType": "uint256",
              "name": "mana",
              "type": "uint256"
            },
            {
              "internalType": "uint256",
              "name": "maxMana",
              "type": "uint256"
            },
            {
              "internalType": "uint256",
              "name": "agility",
              "type": "uint256"
            },
            {
              "internalType": "uint256",
              "name": "luck",
              "type": "uint256"
            },
            {
              "internalType": "uint256",
              "name": "wisdom",
              "type": "uint256"
            },
            {
              "internalType": "uint256",
              "name": "haki",
              "type": "uint256"
            },
            {
              "internalType": "uint256",
              "name": "perception",
              "type": "uint256"
            },
            {
              "internalType": "uint256",
              "name": "defense",
              "type": "uint256"
            },
            {
              "internalType": "string",
              "name": "name",
              "type": "string"
            },
            {
              "internalType": "string",
              "name": "uri",
              "type": "string"
            },
            {
              "internalType": "bool",
              "name": "male",
              "type": "bool"
            },
            {
              "components": [
                {
                  "internalType": "uint256",
                  "name": "head",
                  "type": "uint256"
                },
                {
                  "internalType": "uint256",
                  "name": "body",
                  "type": "uint256"
                },
                {
                  "internalType": "uint256",
                  "name": "leftHand",
                  "type": "uint256"
                },
                {
                  "internalType": "uint256",
                  "name": "rightHand",
                  "type": "uint256"
                },
                {
                  "internalType": "uint256",
                  "name": "pants",
                  "type": "uint256"
                },
                {
                  "internalType": "uint256",
                  "name": "feet",
                  "type": "uint256"
                },
                {
                  "internalType": "uint256",
                  "name": "neck",
                  "type": "uint256"
                }
              ],
              "internalType": "struct PlayerSlotLib.Slot",
              "name": "slot",
              "type": "tuple"
            },
            {
              "internalType": "uint256",
              "name": "playerClass",
              "type": "uint256"
            }
          ],
          "internalType": "struct PlayerSlotLib.Player",
          "name": "player",
          "type": "tuple"
        }
      ],
      "stateMutability": "view",
      "type": "function"
    },
    {
      "inputs": [
        {
          "internalType": "address",
          "name": "_address",
          "type": "address"
        }
      ],
      "name": "getPlayers",
      "outputs": [
        {
          "internalType": "uint256[]",
          "name": "",
          "type": "uint256[]"
        }
      ],
      "stateMutability": "view",
      "type": "function"
    },
    {
      "inputs": [
        {
          "internalType": "uint256",
          "name": "_playerId",
          "type": "uint256"
        },
        {
          "internalType": "uint256",
          "name": "_stat",
          "type": "uint256"
        }
      ],
      "name": "levelUp",
      "outputs": [],
      "stateMutability": "nonpayable",
      "type": "function"
    },
    {
      "inputs": [
        {
          "internalType": "string",
          "name": "_name",
          "type": "string"
        },
        {
          "internalType": "bool",
          "name": "_isMale",
          "type": "bool"
        },
        {
          "internalType": "uint256",
          "name": "_class",
          "type": "uint256"
        },
        {
          "internalType": "address",
          "name": "_to",
          "type": "address"
        }
      ],
      "name": "mint",
      "outputs": [],
      "stateMutability": "payable",
      "type": "function"
    },
    {
      "inputs": [
        {
          "internalType": "string",
          "name": "_name",
          "type": "string"
        }
      ],
      "name": "nameAvailable",
      "outputs": [
        {
          "internalType": "bool",
          "name": "available",
          "type": "bool"
        }
      ],
      "stateMutability": "view",
      "type": "function"
    },
    {
      "inputs": [
        {
          "internalType": "uint256",
          "name": "_playerId",
          "type": "uint256"
        }
      ],
      "name": "ownerOfPlayer",
      "outputs": [
        {
          "internalType": "address",
          "name": "owner",
          "type": "address"
        }
      ],
      "stateMutability": "view",
      "type": "function"
    },
    {
      "inputs": [],
      "name": "playerCount",
      "outputs": [
        {
          "internalType": "uint256",
          "name": "",
          "type": "uint256"
        }
      ],
      "stateMutability": "view",
      "type": "function"
    }
  ],
  "bytecode": "0x608060405234801561001057600080fd5b506133ae806100206000396000f3fe6080604052600436106100865760003560e01c806382bbdbec1161005957806382bbdbec14610147578063b93b66b114610184578063bfcc8b6d146101a0578063c39cbef1146101dd578063e55ae4e81461020657610086565b80630501b79f1461008b578063302bcc57146100b65780635226dc93146100e15780637a80b6b41461010a575b600080fd5b34801561009757600080fd5b506100a0610243565b6040516100ad91906120aa565b60405180910390f35b3480156100c257600080fd5b506100cb61024b565b6040516100d891906120aa565b60405180910390f35b3480156100ed57600080fd5b5061010860048036038101906101039190612105565b61025a565b005b34801561011657600080fd5b50610131600480360381019061012c91906121a3565b610296565b60405161013e919061228e565b60405180910390f35b34801561015357600080fd5b5061016e600480360381019061016991906123f6565b6102a8565b60405161017b919061245a565b60405180910390f35b61019e600480360381019061019991906124a1565b6102ba565b005b3480156101ac57600080fd5b506101c760048036038101906101c29190612524565b610418565b6040516101d49190612560565b60405180910390f35b3480156101e957600080fd5b5061020460048036038101906101ff919061257b565b61042a565b005b34801561021257600080fd5b5061022d60048036038101906102289190612524565b610492565b60405161023a91906128a6565b60405180910390f35b600042905090565b60006102556104aa565b905090565b61026482826104c2565b80827f3b7ca85b5e3d1ebb3a81e8d9e27bfeb9ef2f447026c115421132a20b0733b73f60405160405180910390a35050565b60606102a1826109bd565b9050919050565b60006102b382610a63565b9050919050565b60006638d7ea4c6800009050803410156102d357600080fd5b60007308d8e680a2d295af8cbcd8b8e07f900275bc6b8d90506000808273ffffffffffffffffffffffffffffffffffffffff1634604051610313906128f9565b60006040518083038185875af1925050503d8060008114610350576040519150601f19603f3d011682016040523d82523d6000602084013e610355565b606091505b50915091508161039a576040517f08c379a00000000000000000000000000000000000000000000000000000000081526004016103919061296b565b60405180910390fd5b6103a688888888610aa6565b60006103b061024b565b90508573ffffffffffffffffffffffffffffffffffffffff16817fcb5aab6c0bec1e5513425dfaad4acfbca112f8b0ffe1027bd614e3d98a3ee5d28b8a6040516103fb9291906129c4565b60405180910390a361040d86826114f7565b505050505050505050565b600061042382611515565b9050919050565b6104348282611560565b806040516104429190612a30565b6040518091039020823373ffffffffffffffffffffffffffffffffffffffff167fe4ce50a62b6cbb7d19acd75fd57f7e2588dd09705647d97993e2ece872c305b260405160405180910390a45050565b61049a611fb3565b6104a382611814565b9050919050565b6000806104b5611a8a565b9050806001015491505090565b60006104cc611a8a565b905060008160030160008581526020019081526020016000206040518061028001604052908160008201548152602001600182015481526020016002820154815260200160038201548152602001600482015481526020016005820154815260200160068201548152602001600782015481526020016008820154815260200160098201548152602001600a8201548152602001600b8201548152602001600c8201548152602001600d8201548152602001600e8201548152602001600f8201805461059790612a76565b80601f01602080910402602001604051908101604052809291908181526020018280546105c390612a76565b80156106105780601f106105e557610100808354040283529160200191610610565b820191906000526020600020905b8154815290600101906020018083116105f357829003601f168201915b5050505050815260200160108201805461062990612a76565b80601f016020809104026020016040519081016040528092919081815260200182805461065590612a76565b80156106a25780601f10610677576101008083540402835291602001916106a2565b820191906000526020600020905b81548152906001019060200180831161068557829003601f168201915b505050505081526020016011820160009054906101000a900460ff16151515158152602001601282016040518060e001604052908160008201548152602001600182015481526020016002820154815260200160038201548152602001600482015481526020016005820154815260200160068201548152505081526020016019820154815250509050600a816000015161073d9190612ad6565b8160200151101561074d57600080fd5b6000830361078857816003016000858152602001908152602001600020600301600081548092919061077e90612b18565b9190505550610918565b600183036107c35781600301600085815260200190815260200160002060040160008154809291906107b990612b18565b9190505550610917565b600283036107fe5781600301600085815260200190815260200160002060090160008154809291906107f490612b18565b9190505550610916565b6003830361083957816003016000858152602001908152602001600020600601600081548092919061082f90612b18565b9190505550610915565b6004830361087457816003016000858152602001908152602001600020600e01600081548092919061086a90612b18565b9190505550610914565b600583036108af57816003016000858152602001908152602001600020600a0160008154809291906108a590612b18565b9190505550610913565b81600301600085815260200190815260200160002060080160008154809291906108d890612b18565b919050555081600301600085815260200190815260200160002060080154826003016000868152602001908152602001600020600701819055505b5b5b5b5b5b8160030160008581526020019081526020016000206004015482600301600086815260200190815260200160002060050181905550600a816000015161095e9190612ad6565b816020015161096d9190612b60565b8260030160008681526020019081526020016000206001018190555081600301600085815260200190815260200160002060000160008154809291906109b290612b18565b919050555050505050565b606060006109c9611a8a565b90508060070160008473ffffffffffffffffffffffffffffffffffffffff1673ffffffffffffffffffffffffffffffffffffffff168152602001908152602001600020805480602002602001604051908101604052809291908181526020018280548015610a5657602002820191906000526020600020905b815481526020019060010190808311610a42575b5050505050915050919050565b600080610a6e611a8a565b90508060060183604051610a829190612a30565b908152602001604051809103902060009054906101000a900460ff16915050919050565b6000610ab0611a8a565b9050611f4081600101541115610ac557600080fd5b8060060185604051610ad79190612a30565b908152602001604051809103902060009054906101000a900460ff1615610b33576040517f08c379a0000000000000000000000000000000000000000000000000000000008152600401610b2a90612be0565b60405180910390fd5b6002831115610b4157600080fd5b600a85511115610b5057600080fd5b600385511015610b5f57600080fd5b806001016000815480929190610b7490612b18565b9190505550606060008403610dfd5784610ba95760405180608001604052806043815260200161326d60439139905080610bc6565b604051806080016040528060438152602001613336604391399050805b50604051806102800160405280600181526020016000815260200160008152602001600b8152602001600c8152602001600c8152602001600a8152602001600a8152602001600a8152602001600a815260200160018152602001600181526020016001815260200160018152602001600b815260200187815260200182815260200186151581526020016040518060e00160405280600081526020016000815260200160008152602001600081526020016000815260200160008152602001600081525081526020018581525082600301600084600101548152602001908152602001600020600082015181600001556020820151816001015560408201518160020155606082015181600301556080820151816004015560a0820151816005015560c0820151816006015560e082015181600701556101008201518160080155610120820151816009015561014082015181600a015561016082015181600b015561018082015181600c01556101a082015181600d01556101c082015181600e01556101e082015181600f019081610d5f9190612dac565b50610200820151816010019081610d769190612dac565b506102208201518160110160006101000a81548160ff02191690831515021790555061024082015181601201600082015181600001556020820151816001015560408201518160020155606082015181600301556080820151816004015560a0820151816005015560c08201518160060155505061026082015181601901559050506112ff565b6001840361107f5784610e2b576040518060800160405280604381526020016132f360439139905080610e48565b6040518060800160405280604381526020016132b0604391399050805b50604051806102800160405280600181526020016000815260200160008152602001600b8152602001600b8152602001600b8152602001600a8152602001600a8152602001600a8152602001600c815260200160018152602001600181526020016001815260200160018152602001600a815260200187815260200182815260200186151581526020016040518060e00160405280600081526020016000815260200160008152602001600081526020016000815260200160008152602001600081525081526020018581525082600301600084600101548152602001908152602001600020600082015181600001556020820151816001015560408201518160020155606082015181600301556080820151816004015560a0820151816005015560c0820151816006015560e082015181600701556101008201518160080155610120820151816009015561014082015181600a015561016082015181600b015561018082015181600c01556101a082015181600d01556101c082015181600e01556101e082015181600f019081610fe19190612dac565b50610200820151816010019081610ff89190612dac565b506102208201518160110160006101000a81548160ff02191690831515021790555061024082015181601201600082015181600001556020820151816001015560408201518160020155606082015181600301556080820151816004015560a0820151816005015560c08201518160060155505061026082015181601901559050506112fe565b600284036112fd57846110ad5760405180608001604052806043815260200161322a604391399050806110ca565b6040518060800160405280604381526020016131e7604391399050805b50604051806102800160405280600181526020016000815260200160008152602001600a8152602001600a8152602001600a8152602001600c8152602001600c8152602001600c8152602001600a815260200160018152602001600181526020016001815260200160018152602001600a815260200187815260200182815260200186151581526020016040518060e00160405280600081526020016000815260200160008152602001600081526020016000815260200160008152602001600081525081526020018581525082600301600084600101548152602001908152602001600020600082015181600001556020820151816001015560408201518160020155606082015181600301556080820151816004015560a0820151816005015560c0820151816006015560e082015181600701556101008201518160080155610120820151816009015561014082015181600a015561016082015181600b015561018082015181600c01556101a082015181600d01556101c082015181600e01556101e082015181600f0190816112639190612dac565b5061020082015181601001908161127a9190612dac565b506102208201518160110160006101000a81548160ff02191690831515021790555061024082015181601201600082015181600001556020820151816001015560408201518160020155606082015181600301556080820151816004015560a0820151816005015560c08201518160060155505061026082015181601901559050505b5b5b6040518060e00160405280600081526020016000815260200160008152602001600081526020016000815260200160008152602001600081525082600801600084600101548152602001908152602001600020600082015181600001556020820151816001015560408201518160020155606082015181600301556080820151816004015560a0820151816005015560c08201518160060155905050600182600601876040516113af9190612a30565b908152602001604051809103902060006101000a81548160ff021916908315150217905550828260020160008460010154815260200190815260200160002060006101000a81548173ffffffffffffffffffffffffffffffffffffffff021916908373ffffffffffffffffffffffffffffffffffffffff1602179055508160070160008473ffffffffffffffffffffffffffffffffffffffff1673ffffffffffffffffffffffffffffffffffffffff168152602001908152602001600020826001015490806001815401808255809150506001900390600052602060002001600090919091909150558160040160008473ffffffffffffffffffffffffffffffffffffffff1673ffffffffffffffffffffffffffffffffffffffff16815260200190815260200160002060008154809291906114ea90612b18565b9190505550505050505050565b611511828260405180602001604052806000815250611ab7565b5050565b600080611520611a8a565b905080600201600084815260200190815260200160002060009054906101000a900473ffffffffffffffffffffffffffffffffffffffff16915050919050565b600061156a611a8a565b90503373ffffffffffffffffffffffffffffffffffffffff1681600201600085815260200190815260200160002060009054906101000a900473ffffffffffffffffffffffffffffffffffffffff1673ffffffffffffffffffffffffffffffffffffffff16146115d957600080fd5b80600601826040516115eb9190612a30565b908152602001604051809103902060009054906101000a900460ff1615611647576040517f08c379a000000000000000000000000000000000000000000000000000000000815260040161163e90612be0565b60405180910390fd5b600382511161168b576040517f08c379a000000000000000000000000000000000000000000000000000000000815260040161168290612eca565b60405180910390fd5b600a8251106116cf576040517f08c379a00000000000000000000000000000000000000000000000000000000081526004016116c690612f36565b60405180910390fd5b6000816003016000858152602001908152602001600020600f0180546116f490612a76565b80601f016020809104026020016040519081016040528092919081815260200182805461172090612a76565b801561176d5780601f106117425761010080835404028352916020019161176d565b820191906000526020600020905b81548152906001019060200180831161175057829003601f168201915b505050505090506000815111156117af5781600601816040516117909190612a30565b908152602001604051809103902060006101000a81549060ff02191690555b82826003016000868152602001908152602001600020600f0190816117d49190612dac565b50600182600601846040516117e99190612a30565b908152602001604051809103902060006101000a81548160ff02191690831515021790555050505050565b61181c611fb3565b6000611826611a8a565b90508060030160008481526020019081526020016000206040518061028001604052908160008201548152602001600182015481526020016002820154815260200160038201548152602001600482015481526020016005820154815260200160068201548152602001600782015481526020016008820154815260200160098201548152602001600a8201548152602001600b8201548152602001600c8201548152602001600d8201548152602001600e8201548152602001600f820180546118ef90612a76565b80601f016020809104026020016040519081016040528092919081815260200182805461191b90612a76565b80156119685780601f1061193d57610100808354040283529160200191611968565b820191906000526020600020905b81548152906001019060200180831161194b57829003601f168201915b5050505050815260200160108201805461198190612a76565b80601f01602080910402602001604051908101604052809291908181526020018280546119ad90612a76565b80156119fa5780601f106119cf576101008083540402835291602001916119fa565b820191906000526020600020905b8154815290600101906020018083116119dd57829003601f168201915b505050505081526020016011820160009054906101000a900460ff16151515158152602001601282016040518060e00160405290816000820154815260200160018201548152602001600282015481526020016003820154815260200160048201548152602001600582015481526020016006820154815250508152602001601982015481525050915050919050565b6000807f3cab9a070a0c61cd0ae9d9e9e2c0781e5ca8691bec4087e5a4701d5ac018dd4e90508091505090565b611ac18383611b12565b611ace6000848484611d41565b611b0d576040517f08c379a0000000000000000000000000000000000000000000000000000000008152600401611b0490612fc8565b60405180910390fd5b505050565b600073ffffffffffffffffffffffffffffffffffffffff168273ffffffffffffffffffffffffffffffffffffffff1603611b81576040517f08c379a0000000000000000000000000000000000000000000000000000000008152600401611b7890613034565b60405180910390fd5b611b8a81611ec8565b15611bca576040517f08c379a0000000000000000000000000000000000000000000000000000000008152600401611bc1906130a0565b60405180910390fd5b611bd8600083836001611f09565b611be181611ec8565b15611c21576040517f08c379a0000000000000000000000000000000000000000000000000000000008152600401611c18906130a0565b60405180910390fd5b6001611c2b611f0f565b600a0160008473ffffffffffffffffffffffffffffffffffffffff1673ffffffffffffffffffffffffffffffffffffffff1681526020019081526020016000206000828254019250508190555081611c81611f0f565b600901600083815260200190815260200160002060006101000a81548173ffffffffffffffffffffffffffffffffffffffff021916908373ffffffffffffffffffffffffffffffffffffffff160217905550808273ffffffffffffffffffffffffffffffffffffffff16600073ffffffffffffffffffffffffffffffffffffffff167fddf252ad1be2c89b69c2b068fc378daa952ba7f163c4a11628f55a4df523b3ef60405160405180910390a4611d3d600083836001611f3c565b5050565b6000611d628473ffffffffffffffffffffffffffffffffffffffff16611f42565b15611ebb578373ffffffffffffffffffffffffffffffffffffffff1663150b7a02611d8b611f65565b8786866040518563ffffffff1660e01b8152600401611dad9493929190613115565b6020604051808303816000875af1925050508015611de957506040513d601f19601f82011682018060405250810190611de691906131b9565b60015b611e6b573d8060008114611e19576040519150601f19603f3d011682016040523d82523d6000602084013e611e1e565b606091505b506000815103611e63576040517f08c379a0000000000000000000000000000000000000000000000000000000008152600401611e5a90612fc8565b60405180910390fd5b805181602001fd5b63150b7a0260e01b7bffffffffffffffffffffffffffffffffffffffffffffffffffffffff1916817bffffffffffffffffffffffffffffffffffffffffffffffffffffffff191614915050611ec0565b600190505b949350505050565b60008073ffffffffffffffffffffffffffffffffffffffff16611eea83611f6d565b73ffffffffffffffffffffffffffffffffffffffff1614159050919050565b50505050565b6000807f2569078dfb4b0305704d3008e7403993ae9601b85f7ae5e742de3de8f8011c4090508091505090565b50505050565b6000808273ffffffffffffffffffffffffffffffffffffffff163b119050919050565b600033905090565b6000611f77611f0f565b600901600083815260200190815260200160002060009054906101000a900473ffffffffffffffffffffffffffffffffffffffff169050919050565b6040518061028001604052806000815260200160008152602001600081526020016000815260200160008152602001600081526020016000815260200160008152602001600081526020016000815260200160008152602001600081526020016000815260200160008152602001600081526020016060815260200160608152602001600015158152602001612047612054565b8152602001600081525090565b6040518060e00160405280600081526020016000815260200160008152602001600081526020016000815260200160008152602001600081525090565b6000819050919050565b6120a481612091565b82525050565b60006020820190506120bf600083018461209b565b92915050565b6000604051905090565b600080fd5b600080fd5b6120e281612091565b81146120ed57600080fd5b50565b6000813590506120ff816120d9565b92915050565b6000806040838503121561211c5761211b6120cf565b5b600061212a858286016120f0565b925050602061213b858286016120f0565b9150509250929050565b600073ffffffffffffffffffffffffffffffffffffffff82169050919050565b600061217082612145565b9050919050565b61218081612165565b811461218b57600080fd5b50565b60008135905061219d81612177565b92915050565b6000602082840312156121b9576121b86120cf565b5b60006121c78482850161218e565b91505092915050565b600081519050919050565b600082825260208201905092915050565b6000819050602082019050919050565b61220581612091565b82525050565b600061221783836121fc565b60208301905092915050565b6000602082019050919050565b600061223b826121d0565b61224581856121db565b9350612250836121ec565b8060005b83811015612281578151612268888261220b565b975061227383612223565b925050600181019050612254565b5085935050505092915050565b600060208201905081810360008301526122a88184612230565b905092915050565b600080fd5b600080fd5b6000601f19601f8301169050919050565b7f4e487b7100000000000000000000000000000000000000000000000000000000600052604160045260246000fd5b612303826122ba565b810181811067ffffffffffffffff82111715612322576123216122cb565b5b80604052505050565b60006123356120c5565b905061234182826122fa565b919050565b600067ffffffffffffffff821115612361576123606122cb565b5b61236a826122ba565b9050602081019050919050565b82818337600083830152505050565b600061239961239484612346565b61232b565b9050828152602081018484840111156123b5576123b46122b5565b5b6123c0848285612377565b509392505050565b600082601f8301126123dd576123dc6122b0565b5b81356123ed848260208601612386565b91505092915050565b60006020828403121561240c5761240b6120cf565b5b600082013567ffffffffffffffff81111561242a576124296120d4565b5b612436848285016123c8565b91505092915050565b60008115159050919050565b6124548161243f565b82525050565b600060208201905061246f600083018461244b565b92915050565b61247e8161243f565b811461248957600080fd5b50565b60008135905061249b81612475565b92915050565b600080600080608085870312156124bb576124ba6120cf565b5b600085013567ffffffffffffffff8111156124d9576124d86120d4565b5b6124e5878288016123c8565b94505060206124f68782880161248c565b9350506040612507878288016120f0565b92505060606125188782880161218e565b91505092959194509250565b60006020828403121561253a576125396120cf565b5b6000612548848285016120f0565b91505092915050565b61255a81612165565b82525050565b60006020820190506125756000830184612551565b92915050565b60008060408385031215612592576125916120cf565b5b60006125a0858286016120f0565b925050602083013567ffffffffffffffff8111156125c1576125c06120d4565b5b6125cd858286016123c8565b9150509250929050565b600081519050919050565b600082825260208201905092915050565b60005b838110156126115780820151818401526020810190506125f6565b60008484015250505050565b6000612628826125d7565b61263281856125e2565b93506126428185602086016125f3565b61264b816122ba565b840191505092915050565b61265f8161243f565b82525050565b60e08201600082015161267b60008501826121fc565b50602082015161268e60208501826121fc565b5060408201516126a160408501826121fc565b5060608201516126b460608501826121fc565b5060808201516126c760808501826121fc565b5060a08201516126da60a08501826121fc565b5060c08201516126ed60c08501826121fc565b50505050565b60006103408301600083015161270c60008601826121fc565b50602083015161271f60208601826121fc565b50604083015161273260408601826121fc565b50606083015161274560608601826121fc565b50608083015161275860808601826121fc565b5060a083015161276b60a08601826121fc565b5060c083015161277e60c08601826121fc565b5060e083015161279160e08601826121fc565b506101008301516127a66101008601826121fc565b506101208301516127bb6101208601826121fc565b506101408301516127d06101408601826121fc565b506101608301516127e56101608601826121fc565b506101808301516127fa6101808601826121fc565b506101a083015161280f6101a08601826121fc565b506101c08301516128246101c08601826121fc565b506101e08301518482036101e086015261283e828261261d565b91505061020083015184820361020086015261285a828261261d565b915050610220830151612871610220860182612656565b50610240830151612886610240860182612665565b5061026083015161289b6103208601826121fc565b508091505092915050565b600060208201905081810360008301526128c081846126f3565b905092915050565b600081905092915050565b50565b60006128e36000836128c8565b91506128ee826128d3565b600082019050919050565b6000612904826128d6565b9150819050919050565b600082825260208201905092915050565b7f4661696c656420746f2073656e64204574686572000000000000000000000000600082015250565b600061295560148361290e565b91506129608261291f565b602082019050919050565b6000602082019050818103600083015261298481612948565b9050919050565b6000612996826125d7565b6129a0818561290e565b93506129b08185602086016125f3565b6129b9816122ba565b840191505092915050565b600060408201905081810360008301526129de818561298b565b90506129ed602083018461209b565b9392505050565b600081905092915050565b6000612a0a826125d7565b612a1481856129f4565b9350612a248185602086016125f3565b80840191505092915050565b6000612a3c82846129ff565b915081905092915050565b7f4e487b7100000000000000000000000000000000000000000000000000000000600052602260045260246000fd5b60006002820490506001821680612a8e57607f821691505b602082108103612aa157612aa0612a47565b5b50919050565b7f4e487b7100000000000000000000000000000000000000000000000000000000600052601160045260246000fd5b6000612ae182612091565b9150612aec83612091565b9250828202612afa81612091565b91508282048414831517612b1157612b10612aa7565b5b5092915050565b6000612b2382612091565b91507fffffffffffffffffffffffffffffffffffffffffffffffffffffffffffffffff8203612b5557612b54612aa7565b5b600182019050919050565b6000612b6b82612091565b9150612b7683612091565b9250828203905081811115612b8e57612b8d612aa7565b5b92915050565b7f6e616d652069732074616b656e00000000000000000000000000000000000000600082015250565b6000612bca600d8361290e565b9150612bd582612b94565b602082019050919050565b60006020820190508181036000830152612bf981612bbd565b9050919050565b60008190508160005260206000209050919050565b60006020601f8301049050919050565b600082821b905092915050565b600060088302612c627fffffffffffffffffffffffffffffffffffffffffffffffffffffffffffffffff82612c25565b612c6c8683612c25565b95508019841693508086168417925050509392505050565b6000819050919050565b6000612ca9612ca4612c9f84612091565b612c84565b612091565b9050919050565b6000819050919050565b612cc383612c8e565b612cd7612ccf82612cb0565b848454612c32565b825550505050565b600090565b612cec612cdf565b612cf7818484612cba565b505050565b5b81811015612d1b57612d10600082612ce4565b600181019050612cfd565b5050565b601f821115612d6057612d3181612c00565b612d3a84612c15565b81016020851015612d49578190505b612d5d612d5585612c15565b830182612cfc565b50505b505050565b600082821c905092915050565b6000612d8360001984600802612d65565b1980831691505092915050565b6000612d9c8383612d72565b9150826002028217905092915050565b612db5826125d7565b67ffffffffffffffff811115612dce57612dcd6122cb565b5b612dd88254612a76565b612de3828285612d1f565b600060209050601f831160018114612e165760008415612e04578287015190505b612e0e8582612d90565b865550612e76565b601f198416612e2486612c00565b60005b82811015612e4c57848901518255600182019150602085019450602081019050612e27565b86831015612e695784890151612e65601f891682612d72565b8355505b6001600288020188555050505b505050505050565b7f43616e6e6f74207061737320616e20656d707479206861736800000000000000600082015250565b6000612eb460198361290e565b9150612ebf82612e7e565b602082019050919050565b60006020820190508181036000830152612ee381612ea7565b9050919050565b7f43616e6e6f74206265206c6f6e676572207468616e2031302063686172730000600082015250565b6000612f20601e8361290e565b9150612f2b82612eea565b602082019050919050565b60006020820190508181036000830152612f4f81612f13565b9050919050565b7f4552433732313a207472616e7366657220746f206e6f6e20455243373231526560008201527f63656976657220696d706c656d656e7465720000000000000000000000000000602082015250565b6000612fb260328361290e565b9150612fbd82612f56565b604082019050919050565b60006020820190508181036000830152612fe181612fa5565b9050919050565b7f4552433732313a206d696e7420746f20746865207a65726f2061646472657373600082015250565b600061301e60208361290e565b915061302982612fe8565b602082019050919050565b6000602082019050818103600083015261304d81613011565b9050919050565b7f4552433732313a20746f6b656e20616c7265616479206d696e74656400000000600082015250565b600061308a601c8361290e565b915061309582613054565b602082019050919050565b600060208201905081810360008301526130b98161307d565b9050919050565b600081519050919050565b600082825260208201905092915050565b60006130e7826130c0565b6130f181856130cb565b93506131018185602086016125f3565b61310a816122ba565b840191505092915050565b600060808201905061312a6000830187612551565b6131376020830186612551565b613144604083018561209b565b818103606083015261315681846130dc565b905095945050505050565b60007fffffffff0000000000000000000000000000000000000000000000000000000082169050919050565b61319681613161565b81146131a157600080fd5b50565b6000815190506131b38161318d565b92915050565b6000602082840312156131cf576131ce6120cf565b5b60006131dd848285016131a4565b9150509291505056fe68747470733a2f2f697066732e696f2f697066732f516d556257785564387358344d5a6f6a4b455255506d507539597441596659726f425334546531484a454b75637968747470733a2f2f697066732e696f2f697066732f516d625641427439734b704e55613844674d4a64653344424351796f72534354395631447a6436634a385a556d5068747470733a2f2f697066732e696f2f697066732f516d66424e4870787077554e67747736695842784b584c6256786f6d386d7064427367715a5a79353970524d354368747470733a2f2f697066732e696f2f697066732f516d5158655965397278526b6b716645423744725a52534732533179724e676a363456386d3676374b65747a516468747470733a2f2f697066732e696f2f697066732f516d55715a4b5275646e616e673147586244326e4848776d4a664e4e42465156646d6f483857416e65616969356868747470733a2f2f697066732e696f2f697066732f516d56357053734d47474d4c5733593979513871534c534d4451616b646e6a686a53346b356865366d4a79506548a2646970667358221220e0c722cc483d64109159e28a2ae67c68f02655fa33a384af629a4393aca64b8c64736f6c63430008120033",
  "linkReferences": {},
  "deployedLinkReferences": {}
}